{
  "_format": "hh-sol-artifact-1",
  "contractName": "CnStakingV2",
  "sourceName": "contracts/system_contracts/consensus/CnV2/CnStakingV2.sol",
  "abi": [
    {
      "inputs": [
        {
          "internalType": "address",
          "name": "_contractValidator",
          "type": "address"
        },
        {
          "internalType": "address",
          "name": "_nodeId",
          "type": "address"
        },
        {
          "internalType": "address",
          "name": "_rewardAddress",
          "type": "address"
        },
        {
          "internalType": "address[]",
          "name": "_cnAdminlist",
          "type": "address[]"
        },
        {
          "internalType": "uint256",
          "name": "_requirement",
          "type": "uint256"
        },
        {
          "internalType": "uint256[]",
          "name": "_unlockTime",
          "type": "uint256[]"
        },
        {
          "internalType": "uint256[]",
          "name": "_unlockAmount",
          "type": "uint256[]"
        }
      ],
      "stateMutability": "nonpayable",
      "type": "constructor"
    },
    {
      "anonymous": false,
      "inputs": [
        {
          "indexed": false,
          "internalType": "address",
          "name": "rewardAddress",
          "type": "address"
        }
      ],
      "name": "AcceptRewardAddress",
      "type": "event"
    },
    {
      "anonymous": false,
      "inputs": [
        {
          "indexed": true,
          "internalType": "address",
          "name": "admin",
          "type": "address"
        }
      ],
      "name": "AddAdmin",
      "type": "event"
    },
    {
      "anonymous": false,
      "inputs": [
        {
          "indexed": false,
          "internalType": "uint256",
          "name": "approvedWithdrawalId",
          "type": "uint256"
        },
        {
          "indexed": false,
          "internalType": "address",
          "name": "to",
          "type": "address"
        },
        {
          "indexed": false,
          "internalType": "uint256",
          "name": "value",
          "type": "uint256"
        },
        {
          "indexed": false,
          "internalType": "uint256",
          "name": "withdrawableFrom",
          "type": "uint256"
        }
      ],
      "name": "ApproveStakingWithdrawal",
      "type": "event"
    },
    {
      "anonymous": false,
      "inputs": [
        {
          "indexed": false,
          "internalType": "uint256",
          "name": "approvedWithdrawalId",
          "type": "uint256"
        },
        {
          "indexed": false,
          "internalType": "address",
          "name": "to",
          "type": "address"
        },
        {
          "indexed": false,
          "internalType": "uint256",
          "name": "value",
          "type": "uint256"
        }
      ],
      "name": "CancelApprovedStakingWithdrawal",
      "type": "event"
    },
    {
      "anonymous": false,
      "inputs": [
        {
          "indexed": true,
          "internalType": "uint256",
          "name": "id",
          "type": "uint256"
        },
        {
          "indexed": true,
          "internalType": "address",
          "name": "from",
          "type": "address"
        },
        {
          "indexed": false,
          "internalType": "enum ICnStakingV2.Functions",
          "name": "functionId",
          "type": "uint8"
        },
        {
          "indexed": false,
          "internalType": "bytes32",
          "name": "firstArg",
          "type": "bytes32"
        },
        {
          "indexed": false,
          "internalType": "bytes32",
          "name": "secondArg",
          "type": "bytes32"
        },
        {
          "indexed": false,
          "internalType": "bytes32",
          "name": "thirdArg",
          "type": "bytes32"
        }
      ],
      "name": "CancelRequest",
      "type": "event"
    },
    {
      "anonymous": false,
      "inputs": [],
      "name": "ClearRequest",
      "type": "event"
    },
    {
      "anonymous": false,
      "inputs": [],
      "name": "CompleteReviewInitialConditions",
      "type": "event"
    },
    {
      "anonymous": false,
      "inputs": [
        {
          "indexed": true,
          "internalType": "uint256",
          "name": "id",
          "type": "uint256"
        },
        {
          "indexed": true,
          "internalType": "address",
          "name": "from",
          "type": "address"
        },
        {
          "indexed": false,
          "internalType": "enum ICnStakingV2.Functions",
          "name": "functionId",
          "type": "uint8"
        },
        {
          "indexed": false,
          "internalType": "bytes32",
          "name": "firstArg",
          "type": "bytes32"
        },
        {
          "indexed": false,
          "internalType": "bytes32",
          "name": "secondArg",
          "type": "bytes32"
        },
        {
          "indexed": false,
          "internalType": "bytes32",
          "name": "thirdArg",
          "type": "bytes32"
        },
        {
          "indexed": false,
          "internalType": "address[]",
          "name": "confirmers",
          "type": "address[]"
        }
      ],
      "name": "ConfirmRequest",
      "type": "event"
    },
    {
      "anonymous": false,
      "inputs": [
        {
          "indexed": true,
          "internalType": "address",
          "name": "admin",
          "type": "address"
        }
      ],
      "name": "DeleteAdmin",
      "type": "event"
    },
    {
      "anonymous": false,
      "inputs": [
        {
          "indexed": false,
          "internalType": "string",
          "name": "contractType",
          "type": "string"
        },
        {
          "indexed": false,
          "internalType": "address",
          "name": "contractValidator",
          "type": "address"
        },
        {
          "indexed": false,
          "internalType": "address",
          "name": "nodeId",
          "type": "address"
        },
        {
          "indexed": false,
          "internalType": "address",
          "name": "rewardAddress",
          "type": "address"
        },
        {
          "indexed": false,
          "internalType": "address[]",
          "name": "cnAdminList",
          "type": "address[]"
        },
        {
          "indexed": false,
          "internalType": "uint256",
          "name": "requirement",
          "type": "uint256"
        },
        {
          "indexed": false,
          "internalType": "uint256[]",
          "name": "unlockTime",
          "type": "uint256[]"
        },
        {
          "indexed": false,
          "internalType": "uint256[]",
          "name": "unlockAmount",
          "type": "uint256[]"
        }
      ],
      "name": "DeployContract",
      "type": "event"
    },
    {
      "anonymous": false,
      "inputs": [
        {
          "indexed": false,
          "internalType": "address",
          "name": "from",
          "type": "address"
        },
        {
          "indexed": false,
          "internalType": "uint256",
          "name": "value",
          "type": "uint256"
        }
      ],
      "name": "DepositLockupStakingAndInit",
      "type": "event"
    },
    {
      "anonymous": false,
      "inputs": [
        {
          "indexed": true,
          "internalType": "uint256",
          "name": "id",
          "type": "uint256"
        },
        {
          "indexed": true,
          "internalType": "address",
          "name": "from",
          "type": "address"
        },
        {
          "indexed": false,
          "internalType": "enum ICnStakingV2.Functions",
          "name": "functionId",
          "type": "uint8"
        },
        {
          "indexed": false,
          "internalType": "bytes32",
          "name": "firstArg",
          "type": "bytes32"
        },
        {
          "indexed": false,
          "internalType": "bytes32",
          "name": "secondArg",
          "type": "bytes32"
        },
        {
          "indexed": false,
          "internalType": "bytes32",
          "name": "thirdArg",
          "type": "bytes32"
        }
      ],
      "name": "ExecuteRequestFailure",
      "type": "event"
    },
    {
      "anonymous": false,
      "inputs": [
        {
          "indexed": true,
          "internalType": "uint256",
          "name": "id",
          "type": "uint256"
        },
        {
          "indexed": true,
          "internalType": "address",
          "name": "from",
          "type": "address"
        },
        {
          "indexed": false,
          "internalType": "enum ICnStakingV2.Functions",
          "name": "functionId",
          "type": "uint8"
        },
        {
          "indexed": false,
          "internalType": "bytes32",
          "name": "firstArg",
          "type": "bytes32"
        },
        {
          "indexed": false,
          "internalType": "bytes32",
          "name": "secondArg",
          "type": "bytes32"
        },
        {
          "indexed": false,
          "internalType": "bytes32",
          "name": "thirdArg",
          "type": "bytes32"
        }
      ],
      "name": "ExecuteRequestSuccess",
      "type": "event"
    },
    {
      "anonymous": false,
      "inputs": [
        {
          "indexed": true,
          "internalType": "address",
          "name": "from",
          "type": "address"
        }
      ],
      "name": "ReviewInitialConditions",
      "type": "event"
    },
    {
      "anonymous": false,
      "inputs": [
        {
          "indexed": false,
          "internalType": "address",
          "name": "cnNodeId",
          "type": "address"
        },
        {
          "indexed": false,
          "internalType": "address",
          "name": "prevRewardAddress",
          "type": "address"
        },
        {
          "indexed": false,
          "internalType": "address",
          "name": "curRewardAddress",
          "type": "address"
        }
      ],
      "name": "ReviseRewardAddress",
      "type": "event"
    },
    {
      "anonymous": false,
      "inputs": [
        {
          "indexed": true,
          "internalType": "uint256",
          "name": "id",
          "type": "uint256"
        },
        {
          "indexed": true,
          "internalType": "address",
          "name": "from",
          "type": "address"
        },
        {
          "indexed": false,
          "internalType": "enum ICnStakingV2.Functions",
          "name": "functionId",
          "type": "uint8"
        },
        {
          "indexed": false,
          "internalType": "bytes32",
          "name": "firstArg",
          "type": "bytes32"
        },
        {
          "indexed": false,
          "internalType": "bytes32",
          "name": "secondArg",
          "type": "bytes32"
        },
        {
          "indexed": false,
          "internalType": "bytes32",
          "name": "thirdArg",
          "type": "bytes32"
        },
        {
          "indexed": false,
          "internalType": "address[]",
          "name": "confirmers",
          "type": "address[]"
        }
      ],
      "name": "RevokeConfirmation",
      "type": "event"
    },
    {
      "anonymous": false,
      "inputs": [
        {
          "indexed": false,
          "internalType": "address",
          "name": "from",
          "type": "address"
        },
        {
          "indexed": false,
          "internalType": "uint256",
          "name": "value",
          "type": "uint256"
        }
      ],
      "name": "StakeKlay",
      "type": "event"
    },
    {
      "anonymous": false,
      "inputs": [
        {
          "indexed": true,
          "internalType": "uint256",
          "name": "id",
          "type": "uint256"
        },
        {
          "indexed": true,
          "internalType": "address",
          "name": "from",
          "type": "address"
        },
        {
          "indexed": false,
          "internalType": "enum ICnStakingV2.Functions",
          "name": "functionId",
          "type": "uint8"
        },
        {
          "indexed": false,
          "internalType": "bytes32",
          "name": "firstArg",
          "type": "bytes32"
        },
        {
          "indexed": false,
          "internalType": "bytes32",
          "name": "secondArg",
          "type": "bytes32"
        },
        {
          "indexed": false,
          "internalType": "bytes32",
          "name": "thirdArg",
          "type": "bytes32"
        }
      ],
      "name": "SubmitRequest",
      "type": "event"
    },
    {
      "anonymous": false,
      "inputs": [
        {
          "indexed": false,
          "internalType": "uint256",
          "name": "gcId",
          "type": "uint256"
        }
      ],
      "name": "UpdateGCId",
      "type": "event"
    },
    {
      "anonymous": false,
      "inputs": [
        {
          "indexed": false,
          "internalType": "uint256",
          "name": "requirement",
          "type": "uint256"
        }
      ],
      "name": "UpdateRequirement",
      "type": "event"
    },
    {
      "anonymous": false,
      "inputs": [
        {
          "indexed": false,
          "internalType": "address",
          "name": "rewardAddress",
          "type": "address"
        }
      ],
      "name": "UpdateRewardAddress",
      "type": "event"
    },
    {
      "anonymous": false,
      "inputs": [
        {
          "indexed": false,
          "internalType": "address",
          "name": "stakingTracker",
          "type": "address"
        }
      ],
      "name": "UpdateStakingTracker",
      "type": "event"
    },
    {
      "anonymous": false,
      "inputs": [
        {
          "indexed": false,
          "internalType": "address",
          "name": "voterAddress",
          "type": "address"
        }
      ],
      "name": "UpdateVoterAddress",
      "type": "event"
    },
    {
      "anonymous": false,
      "inputs": [
        {
          "indexed": false,
          "internalType": "uint256",
          "name": "approvedWithdrawalId",
          "type": "uint256"
        },
        {
          "indexed": false,
          "internalType": "address",
          "name": "to",
          "type": "address"
        },
        {
          "indexed": false,
          "internalType": "uint256",
          "name": "value",
          "type": "uint256"
        }
      ],
      "name": "WithdrawApprovedStaking",
      "type": "event"
    },
    {
      "anonymous": false,
      "inputs": [
        {
          "indexed": true,
          "internalType": "address",
          "name": "to",
          "type": "address"
        },
        {
          "indexed": false,
          "internalType": "uint256",
          "name": "value",
          "type": "uint256"
        }
      ],
      "name": "WithdrawLockupStaking",
      "type": "event"
    },
    {
      "inputs": [],
      "name": "ADDRESS_BOOK_ADDRESS",
      "outputs": [
        {
          "internalType": "address",
          "name": "",
          "type": "address"
        }
      ],
      "stateMutability": "view",
      "type": "function"
    },
    {
      "inputs": [],
      "name": "CONTRACT_TYPE",
      "outputs": [
        {
          "internalType": "string",
          "name": "",
          "type": "string"
        }
      ],
      "stateMutability": "view",
      "type": "function"
    },
    {
      "inputs": [],
      "name": "MAX_ADMIN",
      "outputs": [
        {
          "internalType": "uint256",
          "name": "",
          "type": "uint256"
        }
      ],
      "stateMutability": "view",
      "type": "function"
    },
    {
      "inputs": [],
      "name": "ONE_WEEK",
      "outputs": [
        {
          "internalType": "uint256",
          "name": "",
          "type": "uint256"
        }
      ],
      "stateMutability": "view",
      "type": "function"
    },
    {
      "inputs": [],
      "name": "STAKE_LOCKUP",
      "outputs": [
        {
          "internalType": "uint256",
          "name": "",
          "type": "uint256"
        }
      ],
      "stateMutability": "view",
      "type": "function"
    },
    {
      "inputs": [],
      "name": "VERSION",
      "outputs": [
        {
          "internalType": "uint256",
          "name": "",
          "type": "uint256"
        }
      ],
      "stateMutability": "view",
      "type": "function"
    },
    {
      "inputs": [
        {
          "internalType": "address",
          "name": "_addr",
          "type": "address"
        }
      ],
      "name": "acceptRewardAddress",
      "outputs": [],
      "stateMutability": "nonpayable",
      "type": "function"
    },
    {
      "inputs": [
        {
          "internalType": "address",
          "name": "_admin",
          "type": "address"
        }
      ],
      "name": "addAdmin",
      "outputs": [],
      "stateMutability": "nonpayable",
      "type": "function"
    },
    {
      "inputs": [
        {
          "internalType": "uint256",
          "name": "",
          "type": "uint256"
        }
      ],
      "name": "adminList",
      "outputs": [
        {
          "internalType": "address",
          "name": "",
          "type": "address"
        }
      ],
      "stateMutability": "view",
      "type": "function"
    },
    {
      "inputs": [
        {
          "internalType": "address",
          "name": "_to",
          "type": "address"
        },
        {
          "internalType": "uint256",
          "name": "_value",
          "type": "uint256"
        }
      ],
      "name": "approveStakingWithdrawal",
      "outputs": [],
      "stateMutability": "nonpayable",
      "type": "function"
    },
    {
      "inputs": [
        {
          "internalType": "uint256",
          "name": "_id",
          "type": "uint256"
        }
      ],
      "name": "cancelApprovedStakingWithdrawal",
      "outputs": [],
      "stateMutability": "nonpayable",
      "type": "function"
    },
    {
      "inputs": [],
      "name": "clearRequest",
      "outputs": [],
      "stateMutability": "nonpayable",
      "type": "function"
    },
    {
      "inputs": [
        {
          "internalType": "uint256",
          "name": "_id",
          "type": "uint256"
        },
        {
          "internalType": "enum ICnStakingV2.Functions",
          "name": "_functionId",
          "type": "uint8"
        },
        {
          "internalType": "bytes32",
          "name": "_firstArg",
          "type": "bytes32"
        },
        {
          "internalType": "bytes32",
          "name": "_secondArg",
          "type": "bytes32"
        },
        {
          "internalType": "bytes32",
          "name": "_thirdArg",
          "type": "bytes32"
        }
      ],
      "name": "confirmRequest",
      "outputs": [],
      "stateMutability": "nonpayable",
      "type": "function"
    },
    {
      "inputs": [],
      "name": "contractValidator",
      "outputs": [
        {
          "internalType": "address",
          "name": "",
          "type": "address"
        }
      ],
      "stateMutability": "view",
      "type": "function"
    },
    {
      "inputs": [
        {
          "internalType": "address",
          "name": "_admin",
          "type": "address"
        }
      ],
      "name": "deleteAdmin",
      "outputs": [],
      "stateMutability": "nonpayable",
      "type": "function"
    },
    {
      "inputs": [],
      "name": "depositLockupStakingAndInit",
      "outputs": [],
      "stateMutability": "payable",
      "type": "function"
    },
    {
      "inputs": [],
      "name": "gcId",
      "outputs": [
        {
          "internalType": "uint256",
          "name": "",
          "type": "uint256"
        }
      ],
      "stateMutability": "view",
      "type": "function"
    },
    {
      "inputs": [
        {
          "internalType": "uint256",
          "name": "_from",
          "type": "uint256"
        },
        {
          "internalType": "uint256",
          "name": "_to",
          "type": "uint256"
        },
        {
          "internalType": "enum ICnStakingV2.WithdrawalStakingState",
          "name": "_state",
          "type": "uint8"
        }
      ],
      "name": "getApprovedStakingWithdrawalIds",
      "outputs": [
        {
          "internalType": "uint256[]",
          "name": "ids",
          "type": "uint256[]"
        }
      ],
      "stateMutability": "view",
      "type": "function"
    },
    {
      "inputs": [
        {
          "internalType": "uint256",
          "name": "_index",
          "type": "uint256"
        }
      ],
      "name": "getApprovedStakingWithdrawalInfo",
      "outputs": [
        {
          "internalType": "address",
          "name": "to",
          "type": "address"
        },
        {
          "internalType": "uint256",
          "name": "value",
          "type": "uint256"
        },
        {
          "internalType": "uint256",
          "name": "withdrawableFrom",
          "type": "uint256"
        },
        {
          "internalType": "enum ICnStakingV2.WithdrawalStakingState",
          "name": "state",
          "type": "uint8"
        }
      ],
      "stateMutability": "view",
      "type": "function"
    },
    {
      "inputs": [],
      "name": "getLockupStakingInfo",
      "outputs": [
        {
          "internalType": "uint256[]",
          "name": "unlockTime",
          "type": "uint256[]"
        },
        {
          "internalType": "uint256[]",
          "name": "unlockAmount",
          "type": "uint256[]"
        },
        {
          "internalType": "uint256",
          "name": "initial",
          "type": "uint256"
        },
        {
          "internalType": "uint256",
          "name": "remaining",
          "type": "uint256"
        },
        {
          "internalType": "uint256",
          "name": "withdrawable",
          "type": "uint256"
        }
      ],
      "stateMutability": "view",
      "type": "function"
    },
    {
      "inputs": [
        {
          "internalType": "uint256",
          "name": "_from",
          "type": "uint256"
        },
        {
          "internalType": "uint256",
          "name": "_to",
          "type": "uint256"
        },
        {
          "internalType": "enum ICnStakingV2.RequestState",
          "name": "_state",
          "type": "uint8"
        }
      ],
      "name": "getRequestIds",
      "outputs": [
        {
          "internalType": "uint256[]",
          "name": "ids",
          "type": "uint256[]"
        }
      ],
      "stateMutability": "view",
      "type": "function"
    },
    {
      "inputs": [
        {
          "internalType": "uint256",
          "name": "_id",
          "type": "uint256"
        }
      ],
      "name": "getRequestInfo",
      "outputs": [
        {
          "internalType": "enum ICnStakingV2.Functions",
          "name": "functionId",
          "type": "uint8"
        },
        {
          "internalType": "bytes32",
          "name": "firstArg",
          "type": "bytes32"
        },
        {
          "internalType": "bytes32",
          "name": "secondArg",
          "type": "bytes32"
        },
        {
          "internalType": "bytes32",
          "name": "thirdArg",
          "type": "bytes32"
        },
        {
          "internalType": "address",
          "name": "proposer",
          "type": "address"
        },
        {
          "internalType": "address[]",
          "name": "confirmers",
          "type": "address[]"
        },
        {
          "internalType": "enum ICnStakingV2.RequestState",
          "name": "state",
          "type": "uint8"
        }
      ],
      "stateMutability": "view",
      "type": "function"
    },
    {
      "inputs": [],
      "name": "getReviewers",
      "outputs": [
        {
          "internalType": "address[]",
          "name": "",
          "type": "address[]"
        }
      ],
      "stateMutability": "view",
      "type": "function"
    },
    {
      "inputs": [],
      "name": "getState",
      "outputs": [
        {
          "internalType": "address",
          "name": "_contractValidator",
          "type": "address"
        },
        {
          "internalType": "address",
          "name": "_nodeId",
          "type": "address"
        },
        {
          "internalType": "address",
          "name": "_rewardAddress",
          "type": "address"
        },
        {
          "internalType": "address[]",
          "name": "_adminList",
          "type": "address[]"
        },
        {
          "internalType": "uint256",
          "name": "_requirement",
          "type": "uint256"
        },
        {
          "internalType": "uint256[]",
          "name": "_unlockTime",
          "type": "uint256[]"
        },
        {
          "internalType": "uint256[]",
          "name": "_unlockAmount",
          "type": "uint256[]"
        },
        {
          "internalType": "bool",
          "name": "_allReviewed",
          "type": "bool"
        },
        {
          "internalType": "bool",
          "name": "_isInitialized",
          "type": "bool"
        }
      ],
      "stateMutability": "view",
      "type": "function"
    },
    {
      "inputs": [],
      "name": "initialLockupStaking",
      "outputs": [
        {
          "internalType": "uint256",
          "name": "",
          "type": "uint256"
        }
      ],
      "stateMutability": "view",
      "type": "function"
    },
    {
      "inputs": [
        {
          "internalType": "address",
          "name": "",
          "type": "address"
        }
      ],
      "name": "isAdmin",
      "outputs": [
        {
          "internalType": "bool",
          "name": "",
          "type": "bool"
        }
      ],
      "stateMutability": "view",
      "type": "function"
    },
    {
      "inputs": [],
      "name": "isInitialized",
      "outputs": [
        {
          "internalType": "bool",
          "name": "",
          "type": "bool"
        }
      ],
      "stateMutability": "view",
      "type": "function"
    },
    {
      "inputs": [],
      "name": "lastClearedId",
      "outputs": [
        {
          "internalType": "uint256",
          "name": "",
          "type": "uint256"
        }
      ],
      "stateMutability": "view",
      "type": "function"
    },
    {
      "inputs": [],
      "name": "lockupConditions",
      "outputs": [
        {
          "internalType": "bool",
          "name": "allReviewed",
          "type": "bool"
        },
        {
          "internalType": "uint256",
          "name": "reviewedCount",
          "type": "uint256"
        }
      ],
      "stateMutability": "view",
      "type": "function"
    },
    {
      "inputs": [],
      "name": "nodeId",
      "outputs": [
        {
          "internalType": "address",
          "name": "",
          "type": "address"
        }
      ],
      "stateMutability": "view",
      "type": "function"
    },
    {
      "inputs": [],
      "name": "pendingRewardAddress",
      "outputs": [
        {
          "internalType": "address",
          "name": "",
          "type": "address"
        }
      ],
      "stateMutability": "view",
      "type": "function"
    },
    {
      "inputs": [],
      "name": "remainingLockupStaking",
      "outputs": [
        {
          "internalType": "uint256",
          "name": "",
          "type": "uint256"
        }
      ],
      "stateMutability": "view",
      "type": "function"
    },
    {
      "inputs": [],
      "name": "requestCount",
      "outputs": [
        {
          "internalType": "uint256",
          "name": "",
          "type": "uint256"
        }
      ],
      "stateMutability": "view",
      "type": "function"
    },
    {
      "inputs": [],
      "name": "requirement",
      "outputs": [
        {
          "internalType": "uint256",
          "name": "",
          "type": "uint256"
        }
      ],
      "stateMutability": "view",
      "type": "function"
    },
    {
      "inputs": [],
      "name": "reviewInitialConditions",
      "outputs": [],
      "stateMutability": "nonpayable",
      "type": "function"
    },
    {
      "inputs": [
        {
          "internalType": "uint256",
          "name": "_id",
          "type": "uint256"
        },
        {
          "internalType": "enum ICnStakingV2.Functions",
          "name": "_functionId",
          "type": "uint8"
        },
        {
          "internalType": "bytes32",
          "name": "_firstArg",
          "type": "bytes32"
        },
        {
          "internalType": "bytes32",
          "name": "_secondArg",
          "type": "bytes32"
        },
        {
          "internalType": "bytes32",
          "name": "_thirdArg",
          "type": "bytes32"
        }
      ],
      "name": "revokeConfirmation",
      "outputs": [],
      "stateMutability": "nonpayable",
      "type": "function"
    },
    {
      "inputs": [],
      "name": "rewardAddress",
      "outputs": [
        {
          "internalType": "address",
          "name": "",
          "type": "address"
        }
      ],
      "stateMutability": "view",
      "type": "function"
    },
    {
      "inputs": [
        {
          "internalType": "uint256",
          "name": "_gcId",
          "type": "uint256"
        }
      ],
      "name": "setGCId",
      "outputs": [],
      "stateMutability": "nonpayable",
      "type": "function"
    },
    {
      "inputs": [
        {
          "internalType": "address",
          "name": "_tracker",
          "type": "address"
        }
      ],
      "name": "setStakingTracker",
      "outputs": [],
      "stateMutability": "nonpayable",
      "type": "function"
    },
    {
      "inputs": [],
      "name": "stakeKlay",
      "outputs": [],
      "stateMutability": "payable",
      "type": "function"
    },
    {
      "inputs": [],
      "name": "staking",
      "outputs": [
        {
          "internalType": "uint256",
          "name": "",
          "type": "uint256"
        }
      ],
      "stateMutability": "view",
      "type": "function"
    },
    {
      "inputs": [],
      "name": "stakingTracker",
      "outputs": [
        {
          "internalType": "address",
          "name": "",
          "type": "address"
        }
      ],
      "stateMutability": "view",
      "type": "function"
    },
    {
      "inputs": [
        {
          "internalType": "address",
          "name": "_admin",
          "type": "address"
        }
      ],
      "name": "submitAddAdmin",
      "outputs": [],
      "stateMutability": "nonpayable",
      "type": "function"
    },
    {
      "inputs": [
        {
          "internalType": "address",
          "name": "_to",
          "type": "address"
        },
        {
          "internalType": "uint256",
          "name": "_value",
          "type": "uint256"
        }
      ],
      "name": "submitApproveStakingWithdrawal",
      "outputs": [],
      "stateMutability": "nonpayable",
      "type": "function"
    },
    {
      "inputs": [
        {
          "internalType": "uint256",
          "name": "_id",
          "type": "uint256"
        }
      ],
      "name": "submitCancelApprovedStakingWithdrawal",
      "outputs": [],
      "stateMutability": "nonpayable",
      "type": "function"
    },
    {
      "inputs": [],
      "name": "submitClearRequest",
      "outputs": [],
      "stateMutability": "nonpayable",
      "type": "function"
    },
    {
      "inputs": [
        {
          "internalType": "address",
          "name": "_admin",
          "type": "address"
        }
      ],
      "name": "submitDeleteAdmin",
      "outputs": [],
      "stateMutability": "nonpayable",
      "type": "function"
    },
    {
      "inputs": [
        {
          "internalType": "uint256",
          "name": "_requirement",
          "type": "uint256"
        }
      ],
      "name": "submitUpdateRequirement",
      "outputs": [],
      "stateMutability": "nonpayable",
      "type": "function"
    },
    {
      "inputs": [
        {
          "internalType": "address",
          "name": "_addr",
          "type": "address"
        }
      ],
      "name": "submitUpdateRewardAddress",
      "outputs": [],
      "stateMutability": "nonpayable",
      "type": "function"
    },
    {
      "inputs": [
        {
          "internalType": "address",
          "name": "_tracker",
          "type": "address"
        }
      ],
      "name": "submitUpdateStakingTracker",
      "outputs": [],
      "stateMutability": "nonpayable",
      "type": "function"
    },
    {
      "inputs": [
        {
          "internalType": "address",
          "name": "_addr",
          "type": "address"
        }
      ],
      "name": "submitUpdateVoterAddress",
      "outputs": [],
      "stateMutability": "nonpayable",
      "type": "function"
    },
    {
      "inputs": [
        {
          "internalType": "address payable",
          "name": "_to",
          "type": "address"
        },
        {
          "internalType": "uint256",
          "name": "_value",
          "type": "uint256"
        }
      ],
      "name": "submitWithdrawLockupStaking",
      "outputs": [],
      "stateMutability": "nonpayable",
      "type": "function"
    },
    {
      "inputs": [],
      "name": "unstaking",
      "outputs": [
        {
          "internalType": "uint256",
          "name": "",
          "type": "uint256"
        }
      ],
      "stateMutability": "view",
      "type": "function"
    },
    {
      "inputs": [
        {
          "internalType": "uint256",
          "name": "_requirement",
          "type": "uint256"
        }
      ],
      "name": "updateRequirement",
      "outputs": [],
      "stateMutability": "nonpayable",
      "type": "function"
    },
    {
      "inputs": [
        {
          "internalType": "address",
          "name": "_addr",
          "type": "address"
        }
      ],
      "name": "updateRewardAddress",
      "outputs": [],
      "stateMutability": "nonpayable",
      "type": "function"
    },
    {
      "inputs": [
        {
          "internalType": "address",
          "name": "_tracker",
          "type": "address"
        }
      ],
      "name": "updateStakingTracker",
      "outputs": [],
      "stateMutability": "nonpayable",
      "type": "function"
    },
    {
      "inputs": [
        {
          "internalType": "address",
          "name": "_addr",
          "type": "address"
        }
      ],
      "name": "updateVoterAddress",
      "outputs": [],
      "stateMutability": "nonpayable",
      "type": "function"
    },
    {
      "inputs": [],
      "name": "voterAddress",
      "outputs": [
        {
          "internalType": "address",
          "name": "",
          "type": "address"
        }
      ],
      "stateMutability": "view",
      "type": "function"
    },
    {
      "inputs": [
        {
          "internalType": "uint256",
          "name": "_id",
          "type": "uint256"
        }
      ],
      "name": "withdrawApprovedStaking",
      "outputs": [],
      "stateMutability": "nonpayable",
      "type": "function"
    },
    {
      "inputs": [
        {
          "internalType": "address payable",
          "name": "_to",
          "type": "address"
        },
        {
          "internalType": "uint256",
          "name": "_value",
          "type": "uint256"
        }
      ],
      "name": "withdrawLockupStaking",
      "outputs": [],
      "stateMutability": "nonpayable",
      "type": "function"
    },
    {
      "inputs": [],
      "name": "withdrawalRequestCount",
      "outputs": [
        {
          "internalType": "uint256",
          "name": "",
          "type": "uint256"
        }
      ],
      "stateMutability": "view",
      "type": "function"
    },
    {
      "stateMutability": "payable",
      "type": "receive"
    }
  ],
  "bytecode": "0x608060405234801561001057600080fd5b5060405161591238038061591283398101604081905261002f91610734565b866001600160a01b03811661007d5760405162461bcd60e51b815260206004820152600f60248201526e1059191c995cdcc81a5cc81b9d5b1b608a1b60448201526064015b60405180910390fd5b866001600160a01b0381166100c65760405162461bcd60e51b815260206004820152600f60248201526e1059191c995cdcc81a5cc81b9d5b1b608a1b6044820152606401610074565b866001600160a01b03811661010f5760405162461bcd60e51b815260206004820152600f60248201526e1059191c995cdcc81a5cc81b9d5b1b608a1b6044820152606401610074565b865186603282111580156101235750818111155b801561012e57508015155b801561013957508115155b6101855760405162461bcd60e51b815260206004820152601460248201527f496e76616c696420726571756972656d656e742e0000000000000000000000006044820152606401610074565b6001600160a01b038c166000908152600360205260408120805460ff191660011790555b89518110156102c657600360008b83815181106101c8576101c8610857565b6020908102919091018101516001600160a01b031682528101919091526040016000205460ff16158015610228575060006001600160a01b03168a828151811061021457610214610857565b60200260200101516001600160a01b031614155b6102745760405162461bcd60e51b815260206004820152601e60248201527f41646472657373206973206e756c6c206f72206e6f7420756e697175652e00006044820152606401610074565b6001600360008c848151811061028c5761028c610857565b6020908102919091018101516001600160a01b03168252810191909152604001600020805460ff19169115159190911790556001016101a9565b508651158015906102d75750855115155b80156102e4575085518751145b6103305760405162461bcd60e51b815260206004820152601f60248201527f496e76616c696420756e6c6f636b2074696d6520616e6420616d6f756e742e006044820152606401610074565b4260005b87518110156104445788818151811061034f5761034f610857565b602002602001015182106103b45760405162461bcd60e51b815260206004820152602660248201527f556e6c6f636b2074696d65206973206e6f7420696e20617363656e64696e672060448201526537b93232b91760d11b6064820152608401610074565b60008882815181106103c8576103c8610857565b60200260200101511161041d5760405162461bcd60e51b815260206004820152601e60248201527f416d6f756e74206973206e6f7420706f736974697665206e756d6265722e00006044820152606401610074565b88818151811061042f5761042f610857565b60209081029190910101519150600101610334565b508c6000806101000a8154816001600160a01b0302191690836001600160a01b031602179055508b601460006101000a8154816001600160a01b0302191690836001600160a01b031602179055508a601560006101000a8154816001600160a01b0302191690836001600160a01b0316021790555089600190805190602001906104cf92919061058b565b50600289905587516104e89060079060208b01906105f0565b5086516104fc9060089060208a01906105f0565b50600e805460ff191690557fb03718e2ed5bd9937371e2b685eccb81e680ebd61609db18f411eb1539ad3aaf61055660408051808201909152601181527010db94dd185ada5b99d0dbdb9d1c9858dd607a1b602082015290565b8e8e8e8e8e8e8e6040516105719897969594939291906108e3565b60405180910390a1505050505050505050505050506109b3565b8280548282559060005260206000209081019282156105e0579160200282015b828111156105e057825182546001600160a01b0319166001600160a01b039091161782556020909201916001909101906105ab565b506105ec92915061062b565b5090565b8280548282559060005260206000209081019282156105e0579160200282015b828111156105e0578251825591602001919060010190610610565b5b808211156105ec576000815560010161062c565b80516001600160a01b038116811461065757600080fd5b919050565b634e487b7160e01b600052604160045260246000fd5b604051601f8201601f191681016001600160401b038111828210171561069a5761069a61065c565b604052919050565b60006001600160401b038211156106bb576106bb61065c565b5060051b60200190565b600082601f8301126106d657600080fd5b815160206106eb6106e6836106a2565b610672565b8083825260208201915060208460051b87010193508684111561070d57600080fd5b602086015b848110156107295780518352918301918301610712565b509695505050505050565b600080600080600080600060e0888a03121561074f57600080fd5b61075888610640565b96506020610767818a01610640565b965061077560408a01610640565b60608a01519096506001600160401b038082111561079257600080fd5b818b0191508b601f8301126107a657600080fd5b81516107b46106e6826106a2565b81815260059190911b8301840190848101908e8311156107d357600080fd5b938501935b828510156107f8576107e985610640565b825293850193908501906107d8565b60808e015160a08f0151919a509850945050508083111561081857600080fd5b6108248c848d016106c5565b945060c08b015192508083111561083a57600080fd5b50506108488a828b016106c5565b91505092959891949750929550565b634e487b7160e01b600052603260045260246000fd5b60008151808452602080850194506020840160005b838110156108a75781516001600160a01b031687529582019590820190600101610882565b509495945050505050565b60008151808452602080850194506020840160005b838110156108a7578151875295820195908201906001016108c7565b60006101008083528a518082850152600091505b80821015610919576020828d01015161012083860101526020820191506108f7565b60006101208286018101919091526001600160a01b038c1660208601529150601f01601f191683016001600160a01b038a1660408501526001600160a01b0389166060850152818482030160808501526109758282018961086d565b9150508560a084015282810360c084015261099081866108b2565b905082810360e08401526109a481856108b2565b9b9a5050505050505050505050565b614f50806109c26000396000f3fe6080604052600436106103a55760003560e01c80636d2714db116101e7578063944dd5a21161010d578063c72507e9116100a0578063e7abb98d1161006f578063e7abb98d14610b2b578063f2f2f49b14610b41578063ff4634bc14610b56578063ffa1ad7414610b7657600080fd5b8063c72507e9146103da578063c804b11514610acb578063d2569eb914610aeb578063e748357b14610b0b57600080fd5b8063b7563930116100dc578063b756393014610a55578063b756e6ff14610a6b578063c336aa3514610a8b578063c47afb3a14610aab57600080fd5b8063944dd5a2146109e157806396106ae414610a01578063992ac9fa14610a15578063aa4058b914610a3557600080fd5b8063791b5123116101855780638740568b116101545780638740568b1461097557806387cd9feb146109955780638cf57cb9146109aa5780638e6f6b77146109ca57600080fd5b8063791b5123146108ff5780637a5db0681461091f5780637b5e04811461093f578063863f5c0a1461095557600080fd5b806370480275116101c1578063704802751461083d578063725c05031461085d57806375a87643146108bd5780637818097c146108df57600080fd5b80636d2714db146107f25780636e93df0d14610808578063702b9c9b1461082857600080fd5b8063392e53cd116102cc5780635784d18b1161026a5780635df8b09a116102395780635df8b09a1461078e5780635ecd75f2146107ae578063630b1146146107d45780636a27c206146107ea57600080fd5b80635784d18b1461072457806358d65880146107445780635badbe4c146107585780635be6eacc1461076e57600080fd5b80634b8bc6f8116102a65780634b8bc6f8146106b95780634cf088d9146106d95780634f97638f146106ef578063505ebed41461070457600080fd5b8063392e53cd1461063f5780633b2d2aca146106595780634b6a94cc1461067957600080fd5b806311117fc81161034457806319e44e321161031357806319e44e32146105945780632429f8a9146105aa57806324d7806c146105df57806327e1f7df1461061f57600080fd5b806311117fc81461050a578063139d7fed1461052a578063164990f81461054a5780631865c57d1461056a57600080fd5b806306b35d311161038057806306b35d311461046a5780630b8160451461048a5780630df5975c146104bd5780630fd440ec146104dd57600080fd5b80628c477a146103e95780630670422214610426578063069135af1461044a57600080fd5b366103e457600e5460ff1615156001146103da5760405162461bcd60e51b81526004016103d19061452e565b60405180910390fd5b6103e2610b8a565b005b600080fd5b3480156103f557600080fd5b50601754610409906001600160a01b031681565b6040516001600160a01b0390911681526020015b60405180910390f35b34801561043257600080fd5b5061043c600c5481565b60405190815260200161041d565b34801561045657600080fd5b506103e261046536600461457a565b610c4d565b34801561047657600080fd5b506103e261048536600461459e565b610ccd565b34801561049657600080fd5b506104aa6104a536600461459e565b610db0565b60405161041d9796959493929190614626565b3480156104c957600080fd5b506103e26104d836600461457a565b610e79565b3480156104e957600080fd5b506104fd6104f836600461468a565b611038565b60405161041d91906146f8565b34801561051657600080fd5b5061040961052536600461459e565b611186565b34801561053657600080fd5b50601454610409906001600160a01b031681565b34801561055657600080fd5b506103e261056536600461470b565b6111b0565b34801561057657600080fd5b5061057f61147c565b60405161041d99989796959493929190614757565b3480156105a057600080fd5b5061043c60115481565b3480156105b657600080fd5b50600954600a546105c89160ff169082565b60408051921515835260208301919091520161041d565b3480156105eb57600080fd5b5061060f6105fa36600461457a565b60036020526000908152604090205460ff1681565b604051901515815260200161041d565b34801561062b57600080fd5b506103e261063a36600461457a565b6115e1565b34801561064b57600080fd5b50600e5461060f9060ff1681565b34801561066557600080fd5b506103e261067436600461470b565b611723565b34801561068557600080fd5b50604080518082018252601181527010db94dd185ada5b99d0dbdb9d1c9858dd607a1b6020820152905161041d91906147fd565b3480156106c557600080fd5b506103e26106d4366004614830565b611964565b3480156106e557600080fd5b5061043c600f5481565b3480156106fb57600080fd5b506103e2611a49565b34801561071057600080fd5b506103e261071f366004614830565b611afc565b34801561073057600080fd5b506103e261073f36600461457a565b611cab565b34801561075057600080fd5b50603261043c565b34801561076457600080fd5b5061043c60055481565b34801561077a57600080fd5b506103e261078936600461457a565b611d91565b34801561079a57600080fd5b506103e26107a9366004614830565b611f59565b3480156107ba57600080fd5b506107c3612186565b60405161041d95949392919061485c565b3480156107e057600080fd5b5061043c60105481565b6103e261230e565b3480156107fe57600080fd5b5061043c60135481565b34801561081457600080fd5b506103e261082336600461459e565b6124dc565b34801561083457600080fd5b506103e26127f1565b34801561084957600080fd5b506103e261085836600461457a565b61294a565b34801561086957600080fd5b506108ad61087836600461459e565b60009081526012602052604090208054600182015460028301546003909301546001600160a01b039092169390929160ff1690565b60405161041d949392919061489f565b3480156108c957600080fd5b506108d2612aeb565b60405161041d91906148dc565b3480156108eb57600080fd5b506103e26108fa366004614830565b612c9c565b34801561090b57600080fd5b506103e261091a36600461457a565b612dd1565b34801561092b57600080fd5b50600054610409906001600160a01b031681565b34801561094b57600080fd5b5061043c600d5481565b34801561096157600080fd5b506103e261097036600461457a565b612efd565b34801561098157600080fd5b50601654610409906001600160a01b031681565b3480156109a157600080fd5b506103e2613046565b3480156109b657600080fd5b50601554610409906001600160a01b031681565b3480156109d657600080fd5b5061043c62093a8081565b3480156109ed57600080fd5b506103e26109fc36600461457a565b6130ba565b348015610a0d57600080fd5b50601e61043c565b348015610a2157600080fd5b50601854610409906001600160a01b031681565b348015610a4157600080fd5b506103e2610a5036600461457a565b613127565b348015610a6157600080fd5b5061043c60025481565b348015610a7757600080fd5b506103e2610a8636600461457a565b6132b2565b348015610a9757600080fd5b506103e2610aa636600461457a565b61340f565b348015610ab757600080fd5b506103e2610ac636600461459e565b613504565b348015610ad757600080fd5b506103e2610ae636600461459e565b6135a7565b348015610af757600080fd5b506104fd610b063660046148ef565b6136b2565b348015610b1757600080fd5b506103e2610b2636600461459e565b6137f3565b348015610b3757600080fd5b5061043c60045481565b348015610b4d57600080fd5b50610400610409565b348015610b6257600080fd5b506103e2610b7136600461459e565b6138e0565b348015610b8257600080fd5b50600261043c565b600e5460ff161515600114610bb15760405162461bcd60e51b81526004016103d19061452e565b60003411610bf35760405162461bcd60e51b815260206004820152600f60248201526e24b73b30b634b21030b6b7bab73a1760891b60448201526064016103d1565b34600f6000828254610c059190614937565b90915550610c1390506139ae565b604080513381523460208201527f016a7abf22d0d58c184d5eb406e8e9f6007698168251cf67add43fa4d13768f6910160405180910390a1565b600e5460ff161515600114610c745760405162461bcd60e51b81526004016103d19061452e565b3360008181526003602052604090205460ff16610ca35760405162461bcd60e51b81526004016103d19061494a565b6000610cbd60086001600160a01b0385165b600080613a3b565b9050610cc881613bcf565b505050565b600e5460ff161515600114610cf45760405162461bcd60e51b81526004016103d19061452e565b3360008181526003602052604090205460ff16610d235760405162461bcd60e51b81526004016103d19061494a565b600082815260126020526040902080546001600160a01b0316610d585760405162461bcd60e51b81526004016103d190614979565b6000600382015460ff166002811115610d7357610d736145b7565b14610d905760405162461bcd60e51b81526004016103d1906149bb565b6000610d9f6007858380613a3b565b9050610daa81613bcf565b50505050565b600081815260066020818152604080842080546001820154600283015460038401546004850154978501546005860180548851818b0281018b019099528089528b9a8b9a8b9a8b9a60609a8c9a919960ff918216999298909792966001600160a01b03909616959294911692918491830182828015610e5857602002820191906000526020600020905b81546001600160a01b03168152600190910190602001808311610e3a575b50505050509150975097509750975097509750975050919395979092949650565b600e5460ff161515600114610ea05760405162461bcd60e51b81526004016103d19061452e565b3360008181526003602052604090205460ff16610ecf5760405162461bcd60e51b81526004016103d19061494a565b816001600160a01b038116610ef65760405162461bcd60e51b81526004016103d1906149e3565b610eff83613bff565b610f1b5760405162461bcd60e51b81526004016103d190614a0c565b6017546001600160a01b03161561102257601754604051635605a4e560e01b81523060048201526001600160a01b0390911690635605a4e590602401600060405180830381600087803b158015610f7157600080fd5b505af1158015610f85573d6000803e3d6000fd5b50505050601760009054906101000a90046001600160a01b03166001600160a01b031663d4377d4d6040518163ffffffff1660e01b8152600401600060405180830381865afa158015610fdc573d6000803e3d6000fd5b505050506040513d6000823e601f3d908101601f191682016040526110049190810190614aa1565b51156110225760405162461bcd60e51b81526004016103d190614b37565b6000610d9f60096001600160a01b038616610cb5565b6060838380158061104b57506005548510155b1561105557506005545b6000825b828110156110b557856004811115611073576110736145b7565b6000828152600660208190526040909120015460ff16600481111561109a5761109a6145b7565b036110ad57816110a981614b8c565b9250505b600101611059565b508067ffffffffffffffff8111156110cf576110cf614a36565b6040519080825280602002602001820160405280156110f8578160200160208202803683370190505b50935060009050825b8281101561117b5785600481111561111b5761111b6145b7565b6000828152600660208190526040909120015460ff166004811115611142576111426145b7565b03611173578085838151811061115a5761115a614ba5565b60209081029190910101528161116f81614b8c565b9250505b600101611101565b505050509392505050565b6001818154811061119657600080fd5b6000918252602090912001546001600160a01b0316905081565b8460016000828152600660208190526040909120015460ff1660048111156111da576111da6145b7565b146112275760405162461bcd60e51b815260206004820152601f60248201527f4d757374206265206174206e6f742d636f6e6669726d65642073746174652e0060448201526064016103d1565b3360008181526003602052604090205460ff166112565760405162461bcd60e51b81526004016103d19061494a565b6112608733613d33565b6112ac5760405162461bcd60e51b815260206004820152601d60248201527f4d73672e73656e64657220686173206e6f7420636f6e6669726d65642e00000060448201526064016103d1565b85600a8111156112be576112be6145b7565b60008881526006602052604090205460ff16600a8111156112e1576112e16145b7565b1480156112fe575060008781526006602052604090206001015485145b801561131a575060008781526006602052604090206002015484145b8015611336575060008781526006602052604090206003015483145b6113525760405162461bcd60e51b81526004016103d190614bbb565b600087815260066020526040902060040154336001600160a01b03909116036113ee57600087815260066020819052604091829020908101805460ff19166004179055805460018201546002830154600390930154935133948c947f01011152a3b44da915f5831c5c63c3448b616dcc166c3543f289ed79645280c9946113e19460ff90911693909290614c02565b60405180910390a3611473565b60008781526006602052604090206114099060050133613db7565b600087815260066020526040908190208054600182015460028301546003840154945133958d957fed38e5621fac2aa23736077187104abfe9c8aa1c5b4eb73015d8cfdf403fe0709561146a9560ff90911694909390929160050190614c2b565b60405180910390a35b50505050505050565b60008054601454601554600254600954600e5460018054604080516020808402820181019092528281528a998a996060998b998b998a998c998a996001600160a01b03978816999688169895909716969095939460079460089460ff908116941692889183018282801561151957602002820191906000526020600020905b81546001600160a01b031681526001909101906020018083116114fb575b505050505095508380548060200260200160405190810160405280929190818152602001828054801561156b57602002820191906000526020600020905b815481526020019060010190808311611557575b50505050509350828054806020026020016040519081016040528092919081815260200182805480156115bd57602002820191906000526020600020905b8154815260200190600101908083116115a9575b50505050509250985098509850985098509850985098509850909192939495969798565b3330146116005760405162461bcd60e51b81526004016103d190614ca5565b806001600160a01b0381166116275760405162461bcd60e51b81526004016103d1906149e3565b6001600160a01b038216600090815260036020526040902054829060ff166116615760405162461bcd60e51b81526004016103d19061494a565b6001805461166f9190614cdc565b600254603282111580156116835750818111155b801561168e57508015155b801561169957508115155b6116b55760405162461bcd60e51b81526004016103d190614cef565b6116c0600186613db7565b6001600160a01b0385166000908152600360205260409020805460ff191690556116e8611a49565b6040516001600160a01b038616907f1af6bd3d85a56e7c4a0700756fd2ca3b3b65c266e56c77652c5a346bc256522090600090a25050505050565b8460016000828152600660208190526040909120015460ff16600481111561174d5761174d6145b7565b1461179a5760405162461bcd60e51b815260206004820152601f60248201527f4d757374206265206174206e6f742d636f6e6669726d65642073746174652e0060448201526064016103d1565b3360008181526003602052604090205460ff166117c95760405162461bcd60e51b81526004016103d19061494a565b6117d38733613d33565b156118205760405162461bcd60e51b815260206004820152601d60248201527f4d73672e73656e64657220616c726561647920636f6e6669726d65642e00000060448201526064016103d1565b85600a811115611832576118326145b7565b60008881526006602052604090205460ff16600a811115611855576118556145b7565b148015611872575060008781526006602052604090206001015485145b801561188e575060008781526006602052604090206002015484145b80156118aa575060008781526006602052604090206003015483145b6118c65760405162461bcd60e51b81526004016103d190614bbb565b6000878152600660209081526040808320600501805460018101825581855292842090920180546001600160a01b03191633908117909155928a90525189917f658055f08cf63659025f616b2baf94baf8f4d2ee9c600c2ae722b4b7716cce4691611939918b918b918b918b9190614c2b565b60405180910390a3600254600088815260066020526040902060050154106114735761147387613ecb565b600e5460ff16151560011461198b5760405162461bcd60e51b81526004016103d19061452e565b3360008181526003602052604090205460ff166119ba5760405162461bcd60e51b81526004016103d19061494a565b826001600160a01b0381166119e15760405162461bcd60e51b81526004016103d1906149e3565b60006119eb612186565b945050505050600084118015611a015750808411155b611a1d5760405162461bcd60e51b81526004016103d190614d1d565b6000611a3660056001600160a01b038816876000613a3b565b9050611a4181613bcf565b505050505050565b333014611a685760405162461bcd60e51b81526004016103d190614ca5565b6004545b600554811015611aca5760016000828152600660208190526040909120015460ff166004811115611a9f57611a9f6145b7565b03611ac257600081815260066020819052604090912001805460ff191660041790555b600101611a6c565b506005546004556040517f907527d30089abd16e30f06ddbbbc18480505176262f19bc16c1fbf9262f9c6b90600090a1565b333014611b1b5760405162461bcd60e51b81526004016103d190614ca5565b816001600160a01b038116611b425760405162461bcd60e51b81526004016103d1906149e3565b6000611b4c612186565b945050505050600083118015611b625750808311155b611bae5760405162461bcd60e51b815260206004820152601a60248201527f56616c7565206973206e6f7420776974686472617761626c652e00000000000060448201526064016103d1565b82600d6000828254611bc09190614cdc565b90915550506040516000906001600160a01b0386169085908381818185875af1925050503d8060008114611c10576040519150601f19603f3d011682016040523d82523d6000602084013e611c15565b606091505b5050905080611c595760405162461bcd60e51b815260206004820152601060248201526f2a3930b739b332b9103330b4b632b21760811b60448201526064016103d1565b611c616139ae565b846001600160a01b03167f2d9d65e4fcab96e158761a8d3cc0bd7fd76951ab5574667b07190da17177747085604051611c9c91815260200190565b60405180910390a25050505050565b333014611cca5760405162461bcd60e51b81526004016103d190614ca5565b601880546001600160a01b0319166001600160a01b03838116919091179091556017541615611d515760175460405163aad8cb3f60e01b81523060048201526001600160a01b039091169063aad8cb3f90602401600060405180830381600087803b158015611d3857600080fd5b505af1158015611d4c573d6000803e3d6000fd5b505050505b6040516001600160a01b03821681527f61ee88e3c7513df1e6e214415e781030278cf98b7fbb9d6d53720ee8aeb654ee906020015b60405180910390a150565b333014611db05760405162461bcd60e51b81526004016103d190614ca5565b806001600160a01b038116611dd75760405162461bcd60e51b81526004016103d1906149e3565b611de082613bff565b611dfc5760405162461bcd60e51b81526004016103d190614a0c565b6017546001600160a01b031615611f0357601754604051635605a4e560e01b81523060048201526001600160a01b0390911690635605a4e590602401600060405180830381600087803b158015611e5257600080fd5b505af1158015611e66573d6000803e3d6000fd5b50505050601760009054906101000a90046001600160a01b03166001600160a01b031663d4377d4d6040518163ffffffff1660e01b8152600401600060405180830381865afa158015611ebd573d6000803e3d6000fd5b505050506040513d6000823e601f3d908101601f19168201604052611ee59190810190614aa1565b5115611f035760405162461bcd60e51b81526004016103d190614b37565b601780546001600160a01b0319166001600160a01b0384169081179091556040519081527fef25e066ac14a10491ae1ac89a8247282158e169968aaccbceb257d0878bdfd0906020015b60405180910390a15050565b333014611f785760405162461bcd60e51b81526004016103d190614ca5565b816001600160a01b038116611f9f5760405162461bcd60e51b81526004016103d1906149e3565b600082118015611fb15750600f548211155b611fcd5760405162461bcd60e51b81526004016103d190614d1d565b600f5482601054611fde9190614937565b111561202c5760405162461bcd60e51b815260206004820152601f60248201527f546f6f206d756368206f75747374616e64696e67207769746864726177616c0060448201526064016103d1565b60118054908190600061203e83614b8c565b9190505550600061204d601e90565b6120579042614937565b90506040518060800160405280866001600160a01b0316815260200185815260200182815260200160006002811115612092576120926145b7565b9052600083815260126020908152604091829020835181546001600160a01b0319166001600160a01b039091161781559083015160018083019190915591830151600280830191909155606084015160038301805493949193909260ff1990911691908490811115612106576121066145b7565b021790555090505083601060008282546121209190614937565b9091555061212e90506139ae565b604080518381526001600160a01b0387166020820152908101859052606081018290527fdd0988b8c11a867814c87be652f93a86d35c6a235b92977e99d5394bd8580ced906080015b60405180910390a15050505050565b600e5460609081906000908190819060ff1615156001146121b95760405162461bcd60e51b81526004016103d19061452e565b6000805b6007548110156122225760078054829081106121db576121db614ba5565b906000526020600020015442111561221a57600880548290811061220157612201614ba5565b9060005260206000200154826122179190614937565b91505b6001016121bd565b506000600d54600c546122359190614cdc565b905060006122438284614cdc565b905060076000016007600101600c54600d5484848054806020026020016040519081016040528092919081815260200182805480156122a157602002820191906000526020600020905b81548152602001906001019080831161228d575b50505050509450838054806020026020016040519081016040528092919081815260200182805480156122f357602002820191906000526020600020905b8154815260200190600101908083116122df575b50505050509350975097509750975097505050509091929394565b600e5460ff16156123315760405162461bcd60e51b81526004016103d190614d45565b60135460000361237a5760405162461bcd60e51b815260206004820152601460248201527347432049442063616e6e6f74206265207a65726f60601b60448201526064016103d1565b60095460ff1615156001146123d15760405162461bcd60e51b815260206004820152601a60248201527f526576696577696e67206973206e6f742066696e69736865642e00000000000060448201526064016103d1565b6000805b6008548110156124135760088054829081106123f3576123f3614ba5565b9060005260206000200154826124099190614937565b91506001016123d5565b5080341461245b5760405162461bcd60e51b81526020600482015260156024820152742b30b63ab2903237b2b9903737ba1036b0ba31b41760591b60448201526064016103d1565b600c819055600d819055600080546001600160a01b03168152600360209081526040808320805460ff1990811690915583546001600160a01b031916909355600e8054909316600117909255815133815234918101919091527f2b3c5e8e58d7d1e42ccd071c6f749d53f9ee506020a81fad9ff98140ccccde699101611d86565b3360008181526003602052604090205460ff1661250b5760405162461bcd60e51b81526004016103d19061494a565b600082815260126020526040902080546001600160a01b03166125405760405162461bcd60e51b81526004016103d190614979565b6000600382015460ff16600281111561255b5761255b6145b7565b146125785760405162461bcd60e51b81526004016103d1906149bb565b600f54816001015411156125ce5760405162461bcd60e51b815260206004820152601a60248201527f56616c7565206973206e6f7420776974686472617761626c652e00000000000060448201526064016103d1565b428160020154111561261a5760405162461bcd60e51b81526020600482015260156024820152742737ba103bb4ba34323930bbb0b13632903cb2ba1760591b60448201526064016103d1565b6000601e826002015461262d9190614937565b90504281116126bd5760038201805460ff1916600217905560018201546010805460009061265c908490614cdc565b9091555061266a90506139ae565b81546001830154604080518781526001600160a01b0390931660208401528201527fcc847b5f283b573ff21408ad42cb442f358bbce95269470b05097215598173df9060600160405180910390a1610daa565b60038201805460ff19166001908117909155820154600f80546000906126e4908490614cdc565b9091555050600182015460108054600090612700908490614cdc565b9091555050815460018301546040516000926001600160a01b031691908381818185875af1925050503d8060008114612755576040519150601f19603f3d011682016040523d82523d6000602084013e61275a565b606091505b505090508061279e5760405162461bcd60e51b815260206004820152601060248201526f2a3930b739b332b9103330b4b632b21760811b60448201526064016103d1565b6127a66139ae565b82546001840154604080518881526001600160a01b0390931660208401528201527f7a2d48d1df1249429730a253e5713a7d7a2024913de2fbccafdf36efdd32bf0590606001612177565b600e5460ff16156128145760405162461bcd60e51b81526004016103d190614d45565b3360008181526003602052604090205460ff166128435760405162461bcd60e51b81526004016103d19061494a565b336000908152600b602052604090205460ff16156128a35760405162461bcd60e51b815260206004820152601c60248201527f4d73672e73656e64657220616c72656164792072657669657765642e0000000060448201526064016103d1565b336000908152600b60205260408120805460ff19166001179055600a8054916128cb83614b8c565b909155505060405133907f65d287f4118b03f8cc979b433fd0b2246074200dd5da70c9daf204aaa0da1a2c90600090a26001805461290891614937565b600a5403612947576009805460ff191660011790556040517f244ff9a3d72b1dc5a4bce7f05fb615395f2a8c7ad6ea525d2bac9030f75d7a9b90600090a15b50565b3330146129695760405162461bcd60e51b81526004016103d190614ca5565b806001600160a01b0381166129905760405162461bcd60e51b81526004016103d1906149e3565b6001600160a01b038216600090815260036020526040902054829060ff16156129f35760405162461bcd60e51b815260206004820152601560248201527420b236b4b71030b63932b0b23c9032bc34b9ba399760591b60448201526064016103d1565b60018054612a0091614937565b60025460328211158015612a145750818111155b8015612a1f57508015155b8015612a2a57508115155b612a465760405162461bcd60e51b81526004016103d190614cef565b6001600160a01b0385166000818152600360205260408120805460ff191660019081179091558054808201825591527fb10e2d527612073b26eecdfd717e6a320cf44b4afac2b0732d9fcbe2b7fa0cf60180546001600160a01b0319169091179055612ab0611a49565b6040516001600160a01b038616907fad6de4452a631e641cb59902236607946ce9272b9b981f2f80e8d129cb9084ba90600090a25050505050565b600e5460609060ff1615612b115760405162461bcd60e51b81526004016103d190614d45565b600a5460009067ffffffffffffffff811115612b2f57612b2f614a36565b604051908082528060200260200182016040528015612b58578160200160208202803683370190505b50600080546001600160a01b03168152600b60205260408120549192509060ff161515600103612bcb5760005482516001600160a01b0390911690839083908110612ba557612ba5614ba5565b6001600160a01b039092166020928302919091019091015280612bc781614b8c565b9150505b60005b600154811015612c94576007600401600060018381548110612bf257612bf2614ba5565b60009182526020808320909101546001600160a01b0316835282019290925260400190205460ff161515600103612c8c5760018181548110612c3657612c36614ba5565b9060005260206000200160009054906101000a90046001600160a01b0316838381518110612c6657612c66614ba5565b6001600160a01b039092166020928302919091019091015281612c8881614b8c565b9250505b600101612bce565b509091505090565b600e5460ff161515600114612cc35760405162461bcd60e51b81526004016103d19061452e565b3360008181526003602052604090205460ff16612cf25760405162461bcd60e51b81526004016103d19061494a565b826001600160a01b038116612d195760405162461bcd60e51b81526004016103d1906149e3565b600083118015612d2b5750600f548311155b612d475760405162461bcd60e51b81526004016103d190614d1d565b600f5483601054612d589190614937565b1115612da65760405162461bcd60e51b815260206004820152601f60248201527f546f6f206d756368206f75747374616e64696e67207769746864726177616c0060448201526064016103d1565b6000612dbf60066001600160a01b038716866000613a3b565b9050612dca81613bcf565b5050505050565b600e5460ff161515600114612df85760405162461bcd60e51b81526004016103d19061452e565b3360008181526003602052604090205460ff16612e275760405162461bcd60e51b81526004016103d19061494a565b816001600160a01b038116612e4e5760405162461bcd60e51b81526004016103d1906149e3565b6001600160a01b038316600090815260036020526040902054839060ff16612e885760405162461bcd60e51b81526004016103d19061494a565b60018054612e969190614cdc565b60025460328211158015612eaa5750818111155b8015612eb557508015155b8015612ec057508115155b612edc5760405162461bcd60e51b81526004016103d190614cef565b6000612ef260026001600160a01b038916610cb5565b905061147381613bcf565b600e5460ff161515600114612f245760405162461bcd60e51b81526004016103d19061452e565b3360008181526003602052604090205460ff16612f535760405162461bcd60e51b81526004016103d19061494a565b816001600160a01b038116612f7a5760405162461bcd60e51b81526004016103d1906149e3565b6001600160a01b038316600090815260036020526040902054839060ff1615612fdd5760405162461bcd60e51b815260206004820152601560248201527420b236b4b71030b63932b0b23c9032bc34b9ba399760591b60448201526064016103d1565b60018054612fea91614937565b60025460328211158015612ffe5750818111155b801561300957508015155b801561301457508115155b6130305760405162461bcd60e51b81526004016103d190614cef565b6000612ef260016001600160a01b038916610cb5565b600e5460ff16151560011461306d5760405162461bcd60e51b81526004016103d19061452e565b3360008181526003602052604090205460ff1661309c5760405162461bcd60e51b81526004016103d19061494a565b60006130ab6004828080613a3b565b90506130b681613bcf565b5050565b3330146130d95760405162461bcd60e51b81526004016103d190614ca5565b601680546001600160a01b0319166001600160a01b0383169081179091556040519081527fbe1849831e6775a2022006aeebcc00f70d10bc4202c8187e215ad9e9911f2b0690602001611d86565b61312f6143d4565b6131895760405162461bcd60e51b815260206004820152602560248201527f556e617574686f72697a656420746f2061636365707420726577617264206164604482015264647265737360d81b60648201526084016103d1565b6016546001600160a01b038281169116146131f75760405162461bcd60e51b815260206004820152602860248201527f476976656e206164647265737320646f6573206e6f74206d61746368207468656044820152672070656e64696e6760c01b60648201526084016103d1565b61040060165460405163832a2aad60e01b81526001600160a01b03918216600482015291169063832a2aad90602401600060405180830381600087803b15801561324057600080fd5b505af1158015613254573d6000803e3d6000fd5b505060168054601580546001600160a01b0383166001600160a01b031991821681179092559091169091556040519081527fbe1849831e6775a2022006aeebcc00f70d10bc4202c8187e215ad9e9911f2b0692506020019050611d86565b600e5460ff1615156001146132d95760405162461bcd60e51b81526004016103d19061452e565b3360008181526003602052604090205460ff166133085760405162461bcd60e51b81526004016103d19061494a565b6017546001600160a01b03161580159061332a57506001600160a01b03821615155b156133f9576017546040516327a38e0160e11b81526001600160a01b0384811660048301526000921690634f471c0290602401602060405180830381865afa15801561337a573d6000803e3d6000fd5b505050506040513d601f19601f8201168201806040525081019061339e9190614d7c565b90506001600160a01b038116156133f75760405162461bcd60e51b815260206004820152601b60248201527f566f746572206164647265737320616c72656164792074616b656e000000000060448201526064016103d1565b505b6000610cbd600a6001600160a01b038516610cb5565b600e5460ff16156134325760405162461bcd60e51b81526004016103d190614d45565b3360008181526003602052604090205460ff166134615760405162461bcd60e51b81526004016103d19061494a565b816001600160a01b0381166134885760405162461bcd60e51b81526004016103d1906149e3565b61349183613bff565b6134ad5760405162461bcd60e51b81526004016103d190614a0c565b601780546001600160a01b0319166001600160a01b0385169081179091556040519081527fef25e066ac14a10491ae1ac89a8247282158e169968aaccbceb257d0878bdfd0906020015b60405180910390a1505050565b3330146135235760405162461bcd60e51b81526004016103d190614ca5565b60015481603282111580156135385750818111155b801561354357508015155b801561354e57508115155b61356a5760405162461bcd60e51b81526004016103d190614cef565b6002839055613577611a49565b6040518381527f8951393946c27b45080aad111464c16c70f3d5e7d24b114a627334441961bf5f906020016134f7565b3330146135c65760405162461bcd60e51b81526004016103d190614ca5565b600081815260126020526040902080546001600160a01b03166135fb5760405162461bcd60e51b81526004016103d190614979565b6000600382015460ff166002811115613616576136166145b7565b146136335760405162461bcd60e51b81526004016103d1906149bb565b60038101805460ff19166002179055600181015460108054600090613659908490614cdc565b9091555061366790506139ae565b80546001820154604080518581526001600160a01b0390931660208401528201527fcc847b5f283b573ff21408ad42cb442f358bbce95269470b05097215598173df90606001611f4d565b606083838015806136c557506011548510155b156136cf57506011545b6000825b8281101561372e578560028111156136ed576136ed6145b7565b60008281526012602052604090206003015460ff166002811115613713576137136145b7565b0361372657613723600183614937565b91505b6001016136d3565b508067ffffffffffffffff81111561374857613748614a36565b604051908082528060200260200182016040528015613771578160200160208202803683370190505b50935060009050825b8281101561117b57856002811115613794576137946145b7565b60008281526012602052604090206003015460ff1660028111156137ba576137ba6145b7565b036137eb57808583815181106137d2576137d2614ba5565b6020908102919091010152816137e781614b8c565b9250505b60010161377a565b600e5460ff16151560011461381a5760405162461bcd60e51b81526004016103d19061452e565b3360008181526003602052604090205460ff166138495760405162461bcd60e51b81526004016103d19061494a565b600154826032821115801561385e5750818111155b801561386957508015155b801561387457508115155b6138905760405162461bcd60e51b81526004016103d190614cef565b60025484036138d15760405162461bcd60e51b815260206004820152600d60248201526c496e76616c69642076616c756560981b60448201526064016103d1565b6000612dbf6003868380613a3b565b600e5460ff16156139035760405162461bcd60e51b81526004016103d190614d45565b3360008181526003602052604090205460ff166139325760405162461bcd60e51b81526004016103d19061494a565b816000036139795760405162461bcd60e51b815260206004820152601460248201527347432049442063616e6e6f74206265207a65726f60601b60448201526064016103d1565b60138290556040518281527f469cb2f3ce5d5e879269af625b54571651feb0ede6e83ee89b9c888648af514f90602001611f4d565b6017546040513060248201526001600160a01b039091169060440160408051601f198184030181529181526020820180516001600160e01b0316635605a4e560e01b179052516139fe9190614d99565b6000604051808303816000865af19150503d8060008114610cc8576040519150601f19603f3d011682016040523d82523d6000602084013e505050565b60058054600091819083613a4e83614b8c565b91905055506040518060e0016040528087600a811115613a7057613a706145b7565b815260208101879052604081018690526060810185905233608082015260a0016000604051908082528060200260200182016040528015613abb578160200160208202803683370190505b50815260200160019052600082815260066020526040902081518154829060ff1916600183600a811115613af157613af16145b7565b02179055506020828101516001830155604083015160028301556060830151600383015560808301516004830180546001600160a01b0319166001600160a01b0390921691909117905560a08301518051613b5292600585019201906144b4565b5060c082015160068201805460ff19166001836004811115613b7657613b766145b7565b0217905550905050336001600160a01b0316817fdd9ce6d431d4ac3e8bea81bc2d7760b97d30c4e54252d8c8c59054849b8f61b588888888604051613bbe9493929190614c02565b60405180910390a395945050505050565b600081815260066020526040902080546001820154600283015460039093015461294793859360ff169291611723565b600080826001600160a01b0316634b6a94cc6040518163ffffffff1660e01b8152600401600060405180830381865afa158015613c40573d6000803e3d6000fd5b505050506040513d6000823e601f3d908101601f19168201604052613c689190810190614db5565b90506000836001600160a01b031663ffa1ad746040518163ffffffff1660e01b8152600401602060405180830381865afa158015613caa573d6000803e3d6000fd5b505050506040513d601f19601f82011682018060405250810190613cce9190614e49565b60408051808201909152600e81526d29ba30b5b4b733aa3930b1b5b2b960911b6020918201528351908401209091507fccfe28814eb3e9d0e6cfd45eb754f27c5eb4399dac6379181362ebd8b6a865c3148015613d2b5750806001145b949350505050565b6000805b600084815260066020526040902060050154811015613dab57600084815260066020526040902060050180546001600160a01b038516919083908110613d7f57613d7f614ba5565b6000918252602090912001546001600160a01b031603613da3576001915050613db1565b600101613d37565b50600090505b92915050565b60005b8254811015610cc857816001600160a01b0316838281548110613ddf57613ddf614ba5565b6000918252602090912001546001600160a01b031603613ec3578254613e0790600190614cdc565b8114613e8c5782548390613e1d90600190614cdc565b81548110613e2d57613e2d614ba5565b9060005260206000200160009054906101000a90046001600160a01b0316838281548110613e5d57613e5d614ba5565b9060005260206000200160006101000a8154816001600160a01b0302191690836001600160a01b031602179055505b82805480613e9c57613e9c614e62565b600082815260209020810160001990810180546001600160a01b0319169055019055505050565b600101613dba565b60008181526006602052604081208054600180830154600284015460039094015460609460ff90941693919284600a811115613f0957613f096145b7565b03613f9f5760405160248101849052309060440160408051601f198184030181529181526020820180516001600160e01b0316637048027560e01b17905251613f529190614d99565b6000604051808303816000865af19150503d8060008114613f8f576040519150601f19603f3d011682016040523d82523d6000602084013e613f94565b606091505b509096509450614322565b600284600a811115613fb357613fb36145b7565b03613ffc5760405160248101849052309060440160408051601f198184030181529181526020820180516001600160e01b03166327e1f7df60e01b17905251613f529190614d99565b600384600a811115614010576140106145b7565b036140595760405160248101849052309060440160408051601f198184030181529181526020820180516001600160e01b031663623d7d9d60e11b17905251613f529190614d99565b600484600a81111561406d5761406d6145b7565b036140a75760408051600481526024810182526020810180516001600160e01b0316634f97638f60e01b17905290513091613f5291614d99565b600584600a8111156140bb576140bb6145b7565b0361410b576040516024810184905260448101839052309060640160408051601f198184030181529181526020820180516001600160e01b0316631417afb560e21b17905251613f529190614d99565b600684600a81111561411f5761411f6145b7565b0361416f576040516024810184905260448101839052309060640160408051601f198184030181529181526020820180516001600160e01b0316632efc584d60e11b17905251613f529190614d99565b600784600a811115614183576141836145b7565b036141cc5760405160248101849052309060440160408051601f198184030181529181526020820180516001600160e01b031663c804b11560e01b17905251613f529190614d99565b600884600a8111156141e0576141e06145b7565b036142295760405160248101849052309060440160408051601f198184030181529181526020820180516001600160e01b0316634a26ead160e11b17905251613f529190614d99565b600984600a81111561423d5761423d6145b7565b036142865760405160248101849052309060440160408051601f198184030181529181526020820180516001600160e01b03166316f9bab360e21b17905251613f529190614d99565b600a84600a81111561429a5761429a6145b7565b036142e35760405160248101849052309060440160408051601f198184030181529181526020820180516001600160e01b0316635784d18b60e01b17905251613f529190614d99565b60405162461bcd60e51b81526020600482015260146024820152732ab739bab83837b93a32b210333ab731ba34b7b760611b60448201526064016103d1565b851561437e5760008781526006602081905260409182902001805460ff1916600217905551339088907f48f16d9e6ab6f19798a7c7f307ecea3def480049fa0a09280e2a3fa45aaa8426906113e1908890889088908890614c02565b60008781526006602081905260409182902001805460ff1916600317905551339088907fbd3ad69fc5a8e233118506c67ebe892bef493fcf2eb9e6986f6d6c3f2adf0e8a9061146a908890889088908890614c02565b6016546000906001600160a01b031633036143ef5750600190565b60006104006001600160a01b0316631865c57d6040518163ffffffff1660e01b8152600401600060405180830381865afa158015614431573d6000803e3d6000fd5b505050506040513d6000823e601f3d908101601f191682016040526144599190810190614e78565b50905060005b81518110156144ab5781818151811061447a5761447a614ba5565b60200260200101516001600160a01b0316336001600160a01b0316036144a35760019250505090565b60010161445f565b50600091505090565b828054828255906000526020600020908101928215614509579160200282015b8281111561450957825182546001600160a01b0319166001600160a01b039091161782556020909201916001909101906144d4565b50614515929150614519565b5090565b5b80821115614515576000815560010161451a565b6020808252601c908201527f436f6e7472616374206973206e6f7420696e697469616c697a65642e00000000604082015260600190565b6001600160a01b038116811461294757600080fd5b60006020828403121561458c57600080fd5b813561459781614565565b9392505050565b6000602082840312156145b057600080fd5b5035919050565b634e487b7160e01b600052602160045260246000fd5b600b81106145dd576145dd6145b7565b9052565b60008151808452602080850194506020840160005b8381101561461b5781516001600160a01b0316875295820195908201906001016145f6565b509495945050505050565b61463081896145cd565b86602082015285604082015284606082015260018060a01b038416608082015260e060a0820152600061466660e08301856145e1565b905060058310614678576146786145b7565b8260c083015298975050505050505050565b60008060006060848603121561469f57600080fd5b83359250602084013591506040840135600581106146bc57600080fd5b809150509250925092565b60008151808452602080850194506020840160005b8381101561461b578151875295820195908201906001016146dc565b60208152600061459760208301846146c7565b600080600080600060a0868803121561472357600080fd5b853594506020860135600b811061473957600080fd5b94979496505050506040830135926060810135926080909101359150565b6001600160a01b038a811682528981166020830152881660408201526101206060820181905260009061478c8382018a6145e1565b905087608084015282810360a08401526147a681886146c7565b905082810360c08401526147ba81876146c7565b94151560e0840152505090151561010090910152979650505050505050565b60005b838110156147f45781810151838201526020016147dc565b50506000910152565b602081526000825180602084015261481c8160408501602087016147d9565b601f01601f19169190910160400192915050565b6000806040838503121561484357600080fd5b823561484e81614565565b946020939093013593505050565b60a08152600061486f60a08301886146c7565b828103602084015261488181886146c7565b60408401969096525050606081019290925260809091015292915050565b6001600160a01b0385168152602081018490526040810183905260808101600383106148cd576148cd6145b7565b82606083015295945050505050565b60208152600061459760208301846145e1565b60008060006060848603121561490457600080fd5b83359250602084013591506040840135600381106146bc57600080fd5b634e487b7160e01b600052601160045260246000fd5b80820180821115613db157613db1614921565b60208082526015908201527420b2323932b9b99034b9903737ba1030b236b4b71760591b604082015260600190565b60208082526022908201527f5769746864726177616c207265717565737420646f6573206e6f7420657869736040820152613a1760f11b606082015260800190565b6020808252600e908201526d24b73b30b634b21039ba30ba329760911b604082015260600190565b6020808252600f908201526e1059191c995cdcc81a5cc81b9d5b1b608a1b604082015260600190565b60208082526010908201526f125b9d985b1a590818dbdb9d1c9858dd60821b604082015260600190565b634e487b7160e01b600052604160045260246000fd5b604051601f8201601f1916810167ffffffffffffffff81118282101715614a7557614a75614a36565b604052919050565b600067ffffffffffffffff821115614a9757614a97614a36565b5060051b60200190565b60006020808385031215614ab457600080fd5b825167ffffffffffffffff811115614acb57600080fd5b8301601f81018513614adc57600080fd5b8051614aef614aea82614a7d565b614a4c565b81815260059190911b82018301908381019087831115614b0e57600080fd5b928401925b82841015614b2c57835182529284019290840190614b13565b979650505050505050565b60208082526035908201527f43616e6e6f742075706461746520747261636b6572207768656e2074686572656040820152741034b99030b71030b1ba34bb32903a3930b1b5b2b960591b606082015260800190565b600060018201614b9e57614b9e614921565b5060010190565b634e487b7160e01b600052603260045260246000fd5b60208082526027908201527f46756e6374696f6e20696420616e6420617267756d656e747320646f206e6f746040820152661036b0ba31b41760c91b606082015260800190565b60808101614c1082876145cd565b84602083015283604083015282606083015295945050505050565b600060a08201614c3b83896145cd565b602087602085015286604085015285606085015260a0608085015281855480845260c086019150866000526020600020935060005b81811015614c955784546001600160a01b031683526001948501949284019201614c70565b50909a9950505050505050505050565b6020808252601b908201527f4e6f742061206d756c74697369672d7472616e73616374696f6e2e0000000000604082015260600190565b81810381811115613db157613db1614921565b60208082526014908201527324b73b30b634b2103932b8bab4b932b6b2b73a1760611b604082015260600190565b6020808252600e908201526d24b73b30b634b2103b30b63ab29760911b604082015260600190565b6020808252601e908201527f436f6e747261637420686173206265656e20696e697469616c697a65642e0000604082015260600190565b600060208284031215614d8e57600080fd5b815161459781614565565b60008251614dab8184602087016147d9565b9190910192915050565b600060208284031215614dc757600080fd5b815167ffffffffffffffff80821115614ddf57600080fd5b818401915084601f830112614df357600080fd5b815181811115614e0557614e05614a36565b614e18601f8201601f1916602001614a4c565b9150808252856020828501011115614e2f57600080fd5b614e408160208401602086016147d9565b50949350505050565b600060208284031215614e5b57600080fd5b5051919050565b634e487b7160e01b600052603160045260246000fd5b60008060408385031215614e8b57600080fd5b825167ffffffffffffffff811115614ea257600080fd5b8301601f81018513614eb357600080fd5b80516020614ec3614aea83614a7d565b82815260059290921b83018101918181019088841115614ee257600080fd5b938201935b83851015614f09578451614efa81614565565b82529382019390820190614ee7565b96909101519597959650505050505056fea26469706673582212206d2438e87ae86150a8790477e11c0a1af21cb62277e8b52827f1e9de7d58456164736f6c63430008190033",
  "linkReferences": {},
  "deployedLinkReferences": {}
}