{
  "_format": "hh-sol-artifact-1",
  "contractName": "CnStakingV2",
  "sourceName": "contracts/system_contracts/consensus/CnV2/CnStakingV2.sol",
  "abi": [
    {
      "inputs": [
        {
          "internalType": "address",
          "name": "_contractValidator",
          "type": "address"
        },
        {
          "internalType": "address",
          "name": "_nodeId",
          "type": "address"
        },
        {
          "internalType": "address",
          "name": "_rewardAddress",
          "type": "address"
        },
        {
          "internalType": "address[]",
          "name": "_cnAdminlist",
          "type": "address[]"
        },
        {
          "internalType": "uint256",
          "name": "_requirement",
          "type": "uint256"
        },
        {
          "internalType": "uint256[]",
          "name": "_unlockTime",
          "type": "uint256[]"
        },
        {
          "internalType": "uint256[]",
          "name": "_unlockAmount",
          "type": "uint256[]"
        }
      ],
      "stateMutability": "nonpayable",
      "type": "constructor"
    },
    {
      "anonymous": false,
      "inputs": [
        {
          "indexed": false,
          "internalType": "address",
          "name": "rewardAddress",
          "type": "address"
        }
      ],
      "name": "AcceptRewardAddress",
      "type": "event"
    },
    {
      "anonymous": false,
      "inputs": [
        {
          "indexed": true,
          "internalType": "address",
          "name": "admin",
          "type": "address"
        }
      ],
      "name": "AddAdmin",
      "type": "event"
    },
    {
      "anonymous": false,
      "inputs": [
        {
          "indexed": false,
          "internalType": "uint256",
          "name": "approvedWithdrawalId",
          "type": "uint256"
        },
        {
          "indexed": false,
          "internalType": "address",
          "name": "to",
          "type": "address"
        },
        {
          "indexed": false,
          "internalType": "uint256",
          "name": "value",
          "type": "uint256"
        },
        {
          "indexed": false,
          "internalType": "uint256",
          "name": "withdrawableFrom",
          "type": "uint256"
        }
      ],
      "name": "ApproveStakingWithdrawal",
      "type": "event"
    },
    {
      "anonymous": false,
      "inputs": [
        {
          "indexed": false,
          "internalType": "uint256",
          "name": "approvedWithdrawalId",
          "type": "uint256"
        },
        {
          "indexed": false,
          "internalType": "address",
          "name": "to",
          "type": "address"
        },
        {
          "indexed": false,
          "internalType": "uint256",
          "name": "value",
          "type": "uint256"
        }
      ],
      "name": "CancelApprovedStakingWithdrawal",
      "type": "event"
    },
    {
      "anonymous": false,
      "inputs": [
        {
          "indexed": true,
          "internalType": "uint256",
          "name": "id",
          "type": "uint256"
        },
        {
          "indexed": true,
          "internalType": "address",
          "name": "from",
          "type": "address"
        },
        {
          "indexed": false,
          "internalType": "enum ICnStakingV2.Functions",
          "name": "functionId",
          "type": "uint8"
        },
        {
          "indexed": false,
          "internalType": "bytes32",
          "name": "firstArg",
          "type": "bytes32"
        },
        {
          "indexed": false,
          "internalType": "bytes32",
          "name": "secondArg",
          "type": "bytes32"
        },
        {
          "indexed": false,
          "internalType": "bytes32",
          "name": "thirdArg",
          "type": "bytes32"
        }
      ],
      "name": "CancelRequest",
      "type": "event"
    },
    {
      "anonymous": false,
      "inputs": [],
      "name": "ClearRequest",
      "type": "event"
    },
    {
      "anonymous": false,
      "inputs": [],
      "name": "CompleteReviewInitialConditions",
      "type": "event"
    },
    {
      "anonymous": false,
      "inputs": [
        {
          "indexed": true,
          "internalType": "uint256",
          "name": "id",
          "type": "uint256"
        },
        {
          "indexed": true,
          "internalType": "address",
          "name": "from",
          "type": "address"
        },
        {
          "indexed": false,
          "internalType": "enum ICnStakingV2.Functions",
          "name": "functionId",
          "type": "uint8"
        },
        {
          "indexed": false,
          "internalType": "bytes32",
          "name": "firstArg",
          "type": "bytes32"
        },
        {
          "indexed": false,
          "internalType": "bytes32",
          "name": "secondArg",
          "type": "bytes32"
        },
        {
          "indexed": false,
          "internalType": "bytes32",
          "name": "thirdArg",
          "type": "bytes32"
        },
        {
          "indexed": false,
          "internalType": "address[]",
          "name": "confirmers",
          "type": "address[]"
        }
      ],
      "name": "ConfirmRequest",
      "type": "event"
    },
    {
      "anonymous": false,
      "inputs": [
        {
          "indexed": true,
          "internalType": "address",
          "name": "admin",
          "type": "address"
        }
      ],
      "name": "DeleteAdmin",
      "type": "event"
    },
    {
      "anonymous": false,
      "inputs": [
        {
          "indexed": false,
          "internalType": "string",
          "name": "contractType",
          "type": "string"
        },
        {
          "indexed": false,
          "internalType": "address",
          "name": "contractValidator",
          "type": "address"
        },
        {
          "indexed": false,
          "internalType": "address",
          "name": "nodeId",
          "type": "address"
        },
        {
          "indexed": false,
          "internalType": "address",
          "name": "rewardAddress",
          "type": "address"
        },
        {
          "indexed": false,
          "internalType": "address[]",
          "name": "cnAdminList",
          "type": "address[]"
        },
        {
          "indexed": false,
          "internalType": "uint256",
          "name": "requirement",
          "type": "uint256"
        },
        {
          "indexed": false,
          "internalType": "uint256[]",
          "name": "unlockTime",
          "type": "uint256[]"
        },
        {
          "indexed": false,
          "internalType": "uint256[]",
          "name": "unlockAmount",
          "type": "uint256[]"
        }
      ],
      "name": "DeployContract",
      "type": "event"
    },
    {
      "anonymous": false,
      "inputs": [
        {
          "indexed": false,
          "internalType": "address",
          "name": "from",
          "type": "address"
        },
        {
          "indexed": false,
          "internalType": "uint256",
          "name": "value",
          "type": "uint256"
        }
      ],
      "name": "DepositLockupStakingAndInit",
      "type": "event"
    },
    {
      "anonymous": false,
      "inputs": [
        {
          "indexed": true,
          "internalType": "uint256",
          "name": "id",
          "type": "uint256"
        },
        {
          "indexed": true,
          "internalType": "address",
          "name": "from",
          "type": "address"
        },
        {
          "indexed": false,
          "internalType": "enum ICnStakingV2.Functions",
          "name": "functionId",
          "type": "uint8"
        },
        {
          "indexed": false,
          "internalType": "bytes32",
          "name": "firstArg",
          "type": "bytes32"
        },
        {
          "indexed": false,
          "internalType": "bytes32",
          "name": "secondArg",
          "type": "bytes32"
        },
        {
          "indexed": false,
          "internalType": "bytes32",
          "name": "thirdArg",
          "type": "bytes32"
        }
      ],
      "name": "ExecuteRequestFailure",
      "type": "event"
    },
    {
      "anonymous": false,
      "inputs": [
        {
          "indexed": true,
          "internalType": "uint256",
          "name": "id",
          "type": "uint256"
        },
        {
          "indexed": true,
          "internalType": "address",
          "name": "from",
          "type": "address"
        },
        {
          "indexed": false,
          "internalType": "enum ICnStakingV2.Functions",
          "name": "functionId",
          "type": "uint8"
        },
        {
          "indexed": false,
          "internalType": "bytes32",
          "name": "firstArg",
          "type": "bytes32"
        },
        {
          "indexed": false,
          "internalType": "bytes32",
          "name": "secondArg",
          "type": "bytes32"
        },
        {
          "indexed": false,
          "internalType": "bytes32",
          "name": "thirdArg",
          "type": "bytes32"
        }
      ],
      "name": "ExecuteRequestSuccess",
      "type": "event"
    },
    {
      "anonymous": false,
      "inputs": [
        {
          "indexed": true,
          "internalType": "address",
          "name": "from",
          "type": "address"
        }
      ],
      "name": "ReviewInitialConditions",
      "type": "event"
    },
    {
      "anonymous": false,
      "inputs": [
        {
          "indexed": false,
          "internalType": "address",
          "name": "cnNodeId",
          "type": "address"
        },
        {
          "indexed": false,
          "internalType": "address",
          "name": "prevRewardAddress",
          "type": "address"
        },
        {
          "indexed": false,
          "internalType": "address",
          "name": "curRewardAddress",
          "type": "address"
        }
      ],
      "name": "ReviseRewardAddress",
      "type": "event"
    },
    {
      "anonymous": false,
      "inputs": [
        {
          "indexed": true,
          "internalType": "uint256",
          "name": "id",
          "type": "uint256"
        },
        {
          "indexed": true,
          "internalType": "address",
          "name": "from",
          "type": "address"
        },
        {
          "indexed": false,
          "internalType": "enum ICnStakingV2.Functions",
          "name": "functionId",
          "type": "uint8"
        },
        {
          "indexed": false,
          "internalType": "bytes32",
          "name": "firstArg",
          "type": "bytes32"
        },
        {
          "indexed": false,
          "internalType": "bytes32",
          "name": "secondArg",
          "type": "bytes32"
        },
        {
          "indexed": false,
          "internalType": "bytes32",
          "name": "thirdArg",
          "type": "bytes32"
        },
        {
          "indexed": false,
          "internalType": "address[]",
          "name": "confirmers",
          "type": "address[]"
        }
      ],
      "name": "RevokeConfirmation",
      "type": "event"
    },
    {
      "anonymous": false,
      "inputs": [
        {
          "indexed": false,
          "internalType": "address",
          "name": "from",
          "type": "address"
        },
        {
          "indexed": false,
          "internalType": "uint256",
          "name": "value",
          "type": "uint256"
        }
      ],
      "name": "StakeKlay",
      "type": "event"
    },
    {
      "anonymous": false,
      "inputs": [
        {
          "indexed": true,
          "internalType": "uint256",
          "name": "id",
          "type": "uint256"
        },
        {
          "indexed": true,
          "internalType": "address",
          "name": "from",
          "type": "address"
        },
        {
          "indexed": false,
          "internalType": "enum ICnStakingV2.Functions",
          "name": "functionId",
          "type": "uint8"
        },
        {
          "indexed": false,
          "internalType": "bytes32",
          "name": "firstArg",
          "type": "bytes32"
        },
        {
          "indexed": false,
          "internalType": "bytes32",
          "name": "secondArg",
          "type": "bytes32"
        },
        {
          "indexed": false,
          "internalType": "bytes32",
          "name": "thirdArg",
          "type": "bytes32"
        }
      ],
      "name": "SubmitRequest",
      "type": "event"
    },
    {
      "anonymous": false,
      "inputs": [
        {
          "indexed": false,
          "internalType": "uint256",
          "name": "gcId",
          "type": "uint256"
        }
      ],
      "name": "UpdateGCId",
      "type": "event"
    },
    {
      "anonymous": false,
      "inputs": [
        {
          "indexed": false,
          "internalType": "uint256",
          "name": "requirement",
          "type": "uint256"
        }
      ],
      "name": "UpdateRequirement",
      "type": "event"
    },
    {
      "anonymous": false,
      "inputs": [
        {
          "indexed": false,
          "internalType": "address",
          "name": "rewardAddress",
          "type": "address"
        }
      ],
      "name": "UpdateRewardAddress",
      "type": "event"
    },
    {
      "anonymous": false,
      "inputs": [
        {
          "indexed": false,
          "internalType": "address",
          "name": "stakingTracker",
          "type": "address"
        }
      ],
      "name": "UpdateStakingTracker",
      "type": "event"
    },
    {
      "anonymous": false,
      "inputs": [
        {
          "indexed": false,
          "internalType": "address",
          "name": "voterAddress",
          "type": "address"
        }
      ],
      "name": "UpdateVoterAddress",
      "type": "event"
    },
    {
      "anonymous": false,
      "inputs": [
        {
          "indexed": false,
          "internalType": "uint256",
          "name": "approvedWithdrawalId",
          "type": "uint256"
        },
        {
          "indexed": false,
          "internalType": "address",
          "name": "to",
          "type": "address"
        },
        {
          "indexed": false,
          "internalType": "uint256",
          "name": "value",
          "type": "uint256"
        }
      ],
      "name": "WithdrawApprovedStaking",
      "type": "event"
    },
    {
      "anonymous": false,
      "inputs": [
        {
          "indexed": true,
          "internalType": "address",
          "name": "to",
          "type": "address"
        },
        {
          "indexed": false,
          "internalType": "uint256",
          "name": "value",
          "type": "uint256"
        }
      ],
      "name": "WithdrawLockupStaking",
      "type": "event"
    },
    {
      "inputs": [],
      "name": "ADDRESS_BOOK_ADDRESS",
      "outputs": [
        {
          "internalType": "address",
          "name": "",
          "type": "address"
        }
      ],
      "stateMutability": "view",
      "type": "function"
    },
    {
      "inputs": [],
      "name": "CONTRACT_TYPE",
      "outputs": [
        {
          "internalType": "string",
          "name": "",
          "type": "string"
        }
      ],
      "stateMutability": "view",
      "type": "function"
    },
    {
      "inputs": [],
      "name": "MAX_ADMIN",
      "outputs": [
        {
          "internalType": "uint256",
          "name": "",
          "type": "uint256"
        }
      ],
      "stateMutability": "view",
      "type": "function"
    },
    {
      "inputs": [],
      "name": "ONE_WEEK",
      "outputs": [
        {
          "internalType": "uint256",
          "name": "",
          "type": "uint256"
        }
      ],
      "stateMutability": "view",
      "type": "function"
    },
    {
      "inputs": [],
      "name": "STAKE_LOCKUP",
      "outputs": [
        {
          "internalType": "uint256",
          "name": "",
          "type": "uint256"
        }
      ],
      "stateMutability": "view",
      "type": "function"
    },
    {
      "inputs": [],
      "name": "VERSION",
      "outputs": [
        {
          "internalType": "uint256",
          "name": "",
          "type": "uint256"
        }
      ],
      "stateMutability": "view",
      "type": "function"
    },
    {
      "inputs": [
        {
          "internalType": "address",
          "name": "_addr",
          "type": "address"
        }
      ],
      "name": "acceptRewardAddress",
      "outputs": [],
      "stateMutability": "nonpayable",
      "type": "function"
    },
    {
      "inputs": [
        {
          "internalType": "address",
          "name": "_admin",
          "type": "address"
        }
      ],
      "name": "addAdmin",
      "outputs": [],
      "stateMutability": "nonpayable",
      "type": "function"
    },
    {
      "inputs": [
        {
          "internalType": "uint256",
          "name": "",
          "type": "uint256"
        }
      ],
      "name": "adminList",
      "outputs": [
        {
          "internalType": "address",
          "name": "",
          "type": "address"
        }
      ],
      "stateMutability": "view",
      "type": "function"
    },
    {
      "inputs": [
        {
          "internalType": "address",
          "name": "_to",
          "type": "address"
        },
        {
          "internalType": "uint256",
          "name": "_value",
          "type": "uint256"
        }
      ],
      "name": "approveStakingWithdrawal",
      "outputs": [],
      "stateMutability": "nonpayable",
      "type": "function"
    },
    {
      "inputs": [
        {
          "internalType": "uint256",
          "name": "_id",
          "type": "uint256"
        }
      ],
      "name": "cancelApprovedStakingWithdrawal",
      "outputs": [],
      "stateMutability": "nonpayable",
      "type": "function"
    },
    {
      "inputs": [],
      "name": "clearRequest",
      "outputs": [],
      "stateMutability": "nonpayable",
      "type": "function"
    },
    {
      "inputs": [
        {
          "internalType": "uint256",
          "name": "_id",
          "type": "uint256"
        },
        {
          "internalType": "enum ICnStakingV2.Functions",
          "name": "_functionId",
          "type": "uint8"
        },
        {
          "internalType": "bytes32",
          "name": "_firstArg",
          "type": "bytes32"
        },
        {
          "internalType": "bytes32",
          "name": "_secondArg",
          "type": "bytes32"
        },
        {
          "internalType": "bytes32",
          "name": "_thirdArg",
          "type": "bytes32"
        }
      ],
      "name": "confirmRequest",
      "outputs": [],
      "stateMutability": "nonpayable",
      "type": "function"
    },
    {
      "inputs": [],
      "name": "contractValidator",
      "outputs": [
        {
          "internalType": "address",
          "name": "",
          "type": "address"
        }
      ],
      "stateMutability": "view",
      "type": "function"
    },
    {
      "inputs": [
        {
          "internalType": "address",
          "name": "_admin",
          "type": "address"
        }
      ],
      "name": "deleteAdmin",
      "outputs": [],
      "stateMutability": "nonpayable",
      "type": "function"
    },
    {
      "inputs": [],
      "name": "depositLockupStakingAndInit",
      "outputs": [],
      "stateMutability": "payable",
      "type": "function"
    },
    {
      "inputs": [],
      "name": "gcId",
      "outputs": [
        {
          "internalType": "uint256",
          "name": "",
          "type": "uint256"
        }
      ],
      "stateMutability": "view",
      "type": "function"
    },
    {
      "inputs": [
        {
          "internalType": "uint256",
          "name": "_from",
          "type": "uint256"
        },
        {
          "internalType": "uint256",
          "name": "_to",
          "type": "uint256"
        },
        {
          "internalType": "enum ICnStakingV2.WithdrawalStakingState",
          "name": "_state",
          "type": "uint8"
        }
      ],
      "name": "getApprovedStakingWithdrawalIds",
      "outputs": [
        {
          "internalType": "uint256[]",
          "name": "ids",
          "type": "uint256[]"
        }
      ],
      "stateMutability": "view",
      "type": "function"
    },
    {
      "inputs": [
        {
          "internalType": "uint256",
          "name": "_index",
          "type": "uint256"
        }
      ],
      "name": "getApprovedStakingWithdrawalInfo",
      "outputs": [
        {
          "internalType": "address",
          "name": "to",
          "type": "address"
        },
        {
          "internalType": "uint256",
          "name": "value",
          "type": "uint256"
        },
        {
          "internalType": "uint256",
          "name": "withdrawableFrom",
          "type": "uint256"
        },
        {
          "internalType": "enum ICnStakingV2.WithdrawalStakingState",
          "name": "state",
          "type": "uint8"
        }
      ],
      "stateMutability": "view",
      "type": "function"
    },
    {
      "inputs": [],
      "name": "getLockupStakingInfo",
      "outputs": [
        {
          "internalType": "uint256[]",
          "name": "unlockTime",
          "type": "uint256[]"
        },
        {
          "internalType": "uint256[]",
          "name": "unlockAmount",
          "type": "uint256[]"
        },
        {
          "internalType": "uint256",
          "name": "initial",
          "type": "uint256"
        },
        {
          "internalType": "uint256",
          "name": "remaining",
          "type": "uint256"
        },
        {
          "internalType": "uint256",
          "name": "withdrawable",
          "type": "uint256"
        }
      ],
      "stateMutability": "view",
      "type": "function"
    },
    {
      "inputs": [
        {
          "internalType": "uint256",
          "name": "_from",
          "type": "uint256"
        },
        {
          "internalType": "uint256",
          "name": "_to",
          "type": "uint256"
        },
        {
          "internalType": "enum ICnStakingV2.RequestState",
          "name": "_state",
          "type": "uint8"
        }
      ],
      "name": "getRequestIds",
      "outputs": [
        {
          "internalType": "uint256[]",
          "name": "ids",
          "type": "uint256[]"
        }
      ],
      "stateMutability": "view",
      "type": "function"
    },
    {
      "inputs": [
        {
          "internalType": "uint256",
          "name": "_id",
          "type": "uint256"
        }
      ],
      "name": "getRequestInfo",
      "outputs": [
        {
          "internalType": "enum ICnStakingV2.Functions",
          "name": "functionId",
          "type": "uint8"
        },
        {
          "internalType": "bytes32",
          "name": "firstArg",
          "type": "bytes32"
        },
        {
          "internalType": "bytes32",
          "name": "secondArg",
          "type": "bytes32"
        },
        {
          "internalType": "bytes32",
          "name": "thirdArg",
          "type": "bytes32"
        },
        {
          "internalType": "address",
          "name": "proposer",
          "type": "address"
        },
        {
          "internalType": "address[]",
          "name": "confirmers",
          "type": "address[]"
        },
        {
          "internalType": "enum ICnStakingV2.RequestState",
          "name": "state",
          "type": "uint8"
        }
      ],
      "stateMutability": "view",
      "type": "function"
    },
    {
      "inputs": [],
      "name": "getReviewers",
      "outputs": [
        {
          "internalType": "address[]",
          "name": "",
          "type": "address[]"
        }
      ],
      "stateMutability": "view",
      "type": "function"
    },
    {
      "inputs": [],
      "name": "getState",
      "outputs": [
        {
          "internalType": "address",
          "name": "_contractValidator",
          "type": "address"
        },
        {
          "internalType": "address",
          "name": "_nodeId",
          "type": "address"
        },
        {
          "internalType": "address",
          "name": "_rewardAddress",
          "type": "address"
        },
        {
          "internalType": "address[]",
          "name": "_adminList",
          "type": "address[]"
        },
        {
          "internalType": "uint256",
          "name": "_requirement",
          "type": "uint256"
        },
        {
          "internalType": "uint256[]",
          "name": "_unlockTime",
          "type": "uint256[]"
        },
        {
          "internalType": "uint256[]",
          "name": "_unlockAmount",
          "type": "uint256[]"
        },
        {
          "internalType": "bool",
          "name": "_allReviewed",
          "type": "bool"
        },
        {
          "internalType": "bool",
          "name": "_isInitialized",
          "type": "bool"
        }
      ],
      "stateMutability": "view",
      "type": "function"
    },
    {
      "inputs": [],
      "name": "initialLockupStaking",
      "outputs": [
        {
          "internalType": "uint256",
          "name": "",
          "type": "uint256"
        }
      ],
      "stateMutability": "view",
      "type": "function"
    },
    {
      "inputs": [
        {
          "internalType": "address",
          "name": "",
          "type": "address"
        }
      ],
      "name": "isAdmin",
      "outputs": [
        {
          "internalType": "bool",
          "name": "",
          "type": "bool"
        }
      ],
      "stateMutability": "view",
      "type": "function"
    },
    {
      "inputs": [],
      "name": "isInitialized",
      "outputs": [
        {
          "internalType": "bool",
          "name": "",
          "type": "bool"
        }
      ],
      "stateMutability": "view",
      "type": "function"
    },
    {
      "inputs": [],
      "name": "lastClearedId",
      "outputs": [
        {
          "internalType": "uint256",
          "name": "",
          "type": "uint256"
        }
      ],
      "stateMutability": "view",
      "type": "function"
    },
    {
      "inputs": [],
      "name": "lockupConditions",
      "outputs": [
        {
          "internalType": "bool",
          "name": "allReviewed",
          "type": "bool"
        },
        {
          "internalType": "uint256",
          "name": "reviewedCount",
          "type": "uint256"
        }
      ],
      "stateMutability": "view",
      "type": "function"
    },
    {
      "inputs": [],
      "name": "nodeId",
      "outputs": [
        {
          "internalType": "address",
          "name": "",
          "type": "address"
        }
      ],
      "stateMutability": "view",
      "type": "function"
    },
    {
      "inputs": [],
      "name": "pendingRewardAddress",
      "outputs": [
        {
          "internalType": "address",
          "name": "",
          "type": "address"
        }
      ],
      "stateMutability": "view",
      "type": "function"
    },
    {
      "inputs": [],
      "name": "remainingLockupStaking",
      "outputs": [
        {
          "internalType": "uint256",
          "name": "",
          "type": "uint256"
        }
      ],
      "stateMutability": "view",
      "type": "function"
    },
    {
      "inputs": [],
      "name": "requestCount",
      "outputs": [
        {
          "internalType": "uint256",
          "name": "",
          "type": "uint256"
        }
      ],
      "stateMutability": "view",
      "type": "function"
    },
    {
      "inputs": [],
      "name": "requirement",
      "outputs": [
        {
          "internalType": "uint256",
          "name": "",
          "type": "uint256"
        }
      ],
      "stateMutability": "view",
      "type": "function"
    },
    {
      "inputs": [],
      "name": "reviewInitialConditions",
      "outputs": [],
      "stateMutability": "nonpayable",
      "type": "function"
    },
    {
      "inputs": [
        {
          "internalType": "uint256",
          "name": "_id",
          "type": "uint256"
        },
        {
          "internalType": "enum ICnStakingV2.Functions",
          "name": "_functionId",
          "type": "uint8"
        },
        {
          "internalType": "bytes32",
          "name": "_firstArg",
          "type": "bytes32"
        },
        {
          "internalType": "bytes32",
          "name": "_secondArg",
          "type": "bytes32"
        },
        {
          "internalType": "bytes32",
          "name": "_thirdArg",
          "type": "bytes32"
        }
      ],
      "name": "revokeConfirmation",
      "outputs": [],
      "stateMutability": "nonpayable",
      "type": "function"
    },
    {
      "inputs": [],
      "name": "rewardAddress",
      "outputs": [
        {
          "internalType": "address",
          "name": "",
          "type": "address"
        }
      ],
      "stateMutability": "view",
      "type": "function"
    },
    {
      "inputs": [
        {
          "internalType": "uint256",
          "name": "_gcId",
          "type": "uint256"
        }
      ],
      "name": "setGCId",
      "outputs": [],
      "stateMutability": "nonpayable",
      "type": "function"
    },
    {
      "inputs": [
        {
          "internalType": "address",
          "name": "_tracker",
          "type": "address"
        }
      ],
      "name": "setStakingTracker",
      "outputs": [],
      "stateMutability": "nonpayable",
      "type": "function"
    },
    {
      "inputs": [],
      "name": "stakeKlay",
      "outputs": [],
      "stateMutability": "payable",
      "type": "function"
    },
    {
      "inputs": [],
      "name": "staking",
      "outputs": [
        {
          "internalType": "uint256",
          "name": "",
          "type": "uint256"
        }
      ],
      "stateMutability": "view",
      "type": "function"
    },
    {
      "inputs": [],
      "name": "stakingTracker",
      "outputs": [
        {
          "internalType": "address",
          "name": "",
          "type": "address"
        }
      ],
      "stateMutability": "view",
      "type": "function"
    },
    {
      "inputs": [
        {
          "internalType": "address",
          "name": "_admin",
          "type": "address"
        }
      ],
      "name": "submitAddAdmin",
      "outputs": [],
      "stateMutability": "nonpayable",
      "type": "function"
    },
    {
      "inputs": [
        {
          "internalType": "address",
          "name": "_to",
          "type": "address"
        },
        {
          "internalType": "uint256",
          "name": "_value",
          "type": "uint256"
        }
      ],
      "name": "submitApproveStakingWithdrawal",
      "outputs": [],
      "stateMutability": "nonpayable",
      "type": "function"
    },
    {
      "inputs": [
        {
          "internalType": "uint256",
          "name": "_id",
          "type": "uint256"
        }
      ],
      "name": "submitCancelApprovedStakingWithdrawal",
      "outputs": [],
      "stateMutability": "nonpayable",
      "type": "function"
    },
    {
      "inputs": [],
      "name": "submitClearRequest",
      "outputs": [],
      "stateMutability": "nonpayable",
      "type": "function"
    },
    {
      "inputs": [
        {
          "internalType": "address",
          "name": "_admin",
          "type": "address"
        }
      ],
      "name": "submitDeleteAdmin",
      "outputs": [],
      "stateMutability": "nonpayable",
      "type": "function"
    },
    {
      "inputs": [
        {
          "internalType": "uint256",
          "name": "_requirement",
          "type": "uint256"
        }
      ],
      "name": "submitUpdateRequirement",
      "outputs": [],
      "stateMutability": "nonpayable",
      "type": "function"
    },
    {
      "inputs": [
        {
          "internalType": "address",
          "name": "_addr",
          "type": "address"
        }
      ],
      "name": "submitUpdateRewardAddress",
      "outputs": [],
      "stateMutability": "nonpayable",
      "type": "function"
    },
    {
      "inputs": [
        {
          "internalType": "address",
          "name": "_tracker",
          "type": "address"
        }
      ],
      "name": "submitUpdateStakingTracker",
      "outputs": [],
      "stateMutability": "nonpayable",
      "type": "function"
    },
    {
      "inputs": [
        {
          "internalType": "address",
          "name": "_addr",
          "type": "address"
        }
      ],
      "name": "submitUpdateVoterAddress",
      "outputs": [],
      "stateMutability": "nonpayable",
      "type": "function"
    },
    {
      "inputs": [
        {
          "internalType": "address payable",
          "name": "_to",
          "type": "address"
        },
        {
          "internalType": "uint256",
          "name": "_value",
          "type": "uint256"
        }
      ],
      "name": "submitWithdrawLockupStaking",
      "outputs": [],
      "stateMutability": "nonpayable",
      "type": "function"
    },
    {
      "inputs": [],
      "name": "unstaking",
      "outputs": [
        {
          "internalType": "uint256",
          "name": "",
          "type": "uint256"
        }
      ],
      "stateMutability": "view",
      "type": "function"
    },
    {
      "inputs": [
        {
          "internalType": "uint256",
          "name": "_requirement",
          "type": "uint256"
        }
      ],
      "name": "updateRequirement",
      "outputs": [],
      "stateMutability": "nonpayable",
      "type": "function"
    },
    {
      "inputs": [
        {
          "internalType": "address",
          "name": "_addr",
          "type": "address"
        }
      ],
      "name": "updateRewardAddress",
      "outputs": [],
      "stateMutability": "nonpayable",
      "type": "function"
    },
    {
      "inputs": [
        {
          "internalType": "address",
          "name": "_tracker",
          "type": "address"
        }
      ],
      "name": "updateStakingTracker",
      "outputs": [],
      "stateMutability": "nonpayable",
      "type": "function"
    },
    {
      "inputs": [
        {
          "internalType": "address",
          "name": "_addr",
          "type": "address"
        }
      ],
      "name": "updateVoterAddress",
      "outputs": [],
      "stateMutability": "nonpayable",
      "type": "function"
    },
    {
      "inputs": [],
      "name": "voterAddress",
      "outputs": [
        {
          "internalType": "address",
          "name": "",
          "type": "address"
        }
      ],
      "stateMutability": "view",
      "type": "function"
    },
    {
      "inputs": [
        {
          "internalType": "uint256",
          "name": "_id",
          "type": "uint256"
        }
      ],
      "name": "withdrawApprovedStaking",
      "outputs": [],
      "stateMutability": "nonpayable",
      "type": "function"
    },
    {
      "inputs": [
        {
          "internalType": "address payable",
          "name": "_to",
          "type": "address"
        },
        {
          "internalType": "uint256",
          "name": "_value",
          "type": "uint256"
        }
      ],
      "name": "withdrawLockupStaking",
      "outputs": [],
      "stateMutability": "nonpayable",
      "type": "function"
    },
    {
      "inputs": [],
      "name": "withdrawalRequestCount",
      "outputs": [
        {
          "internalType": "uint256",
          "name": "",
          "type": "uint256"
        }
      ],
      "stateMutability": "view",
      "type": "function"
    },
    {
      "stateMutability": "payable",
      "type": "receive"
    }
  ],
  "bytecode": "0x608060405234801561001057600080fd5b5060405161591838038061591883398101604081905261002f91610734565b866001600160a01b03811661007d5760405162461bcd60e51b815260206004820152600f60248201526e1059191c995cdcc81a5cc81b9d5b1b608a1b60448201526064015b60405180910390fd5b866001600160a01b0381166100c65760405162461bcd60e51b815260206004820152600f60248201526e1059191c995cdcc81a5cc81b9d5b1b608a1b6044820152606401610074565b866001600160a01b03811661010f5760405162461bcd60e51b815260206004820152600f60248201526e1059191c995cdcc81a5cc81b9d5b1b608a1b6044820152606401610074565b865186603282111580156101235750818111155b801561012e57508015155b801561013957508115155b6101855760405162461bcd60e51b815260206004820152601460248201527f496e76616c696420726571756972656d656e742e0000000000000000000000006044820152606401610074565b6001600160a01b038c166000908152600360205260408120805460ff191660011790555b89518110156102c657600360008b83815181106101c8576101c8610857565b6020908102919091018101516001600160a01b031682528101919091526040016000205460ff16158015610228575060006001600160a01b03168a828151811061021457610214610857565b60200260200101516001600160a01b031614155b6102745760405162461bcd60e51b815260206004820152601e60248201527f41646472657373206973206e756c6c206f72206e6f7420756e697175652e00006044820152606401610074565b6001600360008c848151811061028c5761028c610857565b6020908102919091018101516001600160a01b03168252810191909152604001600020805460ff19169115159190911790556001016101a9565b508651158015906102d75750855115155b80156102e4575085518751145b6103305760405162461bcd60e51b815260206004820152601f60248201527f496e76616c696420756e6c6f636b2074696d6520616e6420616d6f756e742e006044820152606401610074565b4260005b87518110156104445788818151811061034f5761034f610857565b602002602001015182106103b45760405162461bcd60e51b815260206004820152602660248201527f556e6c6f636b2074696d65206973206e6f7420696e20617363656e64696e672060448201526537b93232b91760d11b6064820152608401610074565b60008882815181106103c8576103c8610857565b60200260200101511161041d5760405162461bcd60e51b815260206004820152601e60248201527f416d6f756e74206973206e6f7420706f736974697665206e756d6265722e00006044820152606401610074565b88818151811061042f5761042f610857565b60209081029190910101519150600101610334565b508c6000806101000a8154816001600160a01b0302191690836001600160a01b031602179055508b601460006101000a8154816001600160a01b0302191690836001600160a01b031602179055508a601560006101000a8154816001600160a01b0302191690836001600160a01b0316021790555089600190805190602001906104cf92919061058b565b50600289905587516104e89060079060208b01906105f0565b5086516104fc9060089060208a01906105f0565b50600e805460ff191690557fb03718e2ed5bd9937371e2b685eccb81e680ebd61609db18f411eb1539ad3aaf61055660408051808201909152601181527010db94dd185ada5b99d0dbdb9d1c9858dd607a1b602082015290565b8e8e8e8e8e8e8e6040516105719897969594939291906108e3565b60405180910390a1505050505050505050505050506109b3565b8280548282559060005260206000209081019282156105e0579160200282015b828111156105e057825182546001600160a01b0319166001600160a01b039091161782556020909201916001909101906105ab565b506105ec92915061062b565b5090565b8280548282559060005260206000209081019282156105e0579160200282015b828111156105e0578251825591602001919060010190610610565b5b808211156105ec576000815560010161062c565b80516001600160a01b038116811461065757600080fd5b919050565b634e487b7160e01b600052604160045260246000fd5b604051601f8201601f191681016001600160401b038111828210171561069a5761069a61065c565b604052919050565b60006001600160401b038211156106bb576106bb61065c565b5060051b60200190565b600082601f8301126106d657600080fd5b815160206106eb6106e6836106a2565b610672565b8083825260208201915060208460051b87010193508684111561070d57600080fd5b602086015b848110156107295780518352918301918301610712565b509695505050505050565b600080600080600080600060e0888a03121561074f57600080fd5b61075888610640565b96506020610767818a01610640565b965061077560408a01610640565b60608a01519096506001600160401b038082111561079257600080fd5b818b0191508b601f8301126107a657600080fd5b81516107b46106e6826106a2565b81815260059190911b8301840190848101908e8311156107d357600080fd5b938501935b828510156107f8576107e985610640565b825293850193908501906107d8565b60808e015160a08f0151919a509850945050508083111561081857600080fd5b6108248c848d016106c5565b945060c08b015192508083111561083a57600080fd5b50506108488a828b016106c5565b91505092959891949750929550565b634e487b7160e01b600052603260045260246000fd5b60008151808452602080850194506020840160005b838110156108a75781516001600160a01b031687529582019590820190600101610882565b509495945050505050565b60008151808452602080850194506020840160005b838110156108a7578151875295820195908201906001016108c7565b60006101008083528a518082850152600091505b80821015610919576020828d01015161012083860101526020820191506108f7565b60006101208286018101919091526001600160a01b038c1660208601529150601f01601f191683016001600160a01b038a1660408501526001600160a01b0389166060850152818482030160808501526109758282018961086d565b9150508560a084015282810360c084015261099081866108b2565b905082810360e08401526109a481856108b2565b9b9a5050505050505050505050565b614f56806109c26000396000f3fe6080604052600436106103a55760003560e01c80636d2714db116101e7578063944dd5a21161010d578063c72507e9116100a0578063e7abb98d1161006f578063e7abb98d14610b2d578063f2f2f49b14610b43578063ff4634bc14610b58578063ffa1ad7414610b7857600080fd5b8063c72507e9146103da578063c804b11514610acd578063d2569eb914610aed578063e748357b14610b0d57600080fd5b8063b7563930116100dc578063b756393014610a57578063b756e6ff14610a6d578063c336aa3514610a8d578063c47afb3a14610aad57600080fd5b8063944dd5a2146109e157806396106ae414610a01578063992ac9fa14610a17578063aa4058b914610a3757600080fd5b8063791b5123116101855780638740568b116101545780638740568b1461097557806387cd9feb146109955780638cf57cb9146109aa5780638e6f6b77146109ca57600080fd5b8063791b5123146108ff5780637a5db0681461091f5780637b5e04811461093f578063863f5c0a1461095557600080fd5b806370480275116101c1578063704802751461083d578063725c05031461085d57806375a87643146108bd5780637818097c146108df57600080fd5b80636d2714db146107f25780636e93df0d14610808578063702b9c9b1461082857600080fd5b8063392e53cd116102cc5780635784d18b1161026a5780635df8b09a116102395780635df8b09a1461078e5780635ecd75f2146107ae578063630b1146146107d45780636a27c206146107ea57600080fd5b80635784d18b1461072457806358d65880146107445780635badbe4c146107585780635be6eacc1461076e57600080fd5b80634b8bc6f8116102a65780634b8bc6f8146106b95780634cf088d9146106d95780634f97638f146106ef578063505ebed41461070457600080fd5b8063392e53cd1461063f5780633b2d2aca146106595780634b6a94cc1461067957600080fd5b806311117fc81161034457806319e44e321161031357806319e44e32146105945780632429f8a9146105aa57806324d7806c146105df57806327e1f7df1461061f57600080fd5b806311117fc81461050a578063139d7fed1461052a578063164990f81461054a5780631865c57d1461056a57600080fd5b806306b35d311161038057806306b35d311461046a5780630b8160451461048a5780630df5975c146104bd5780630fd440ec146104dd57600080fd5b80628c477a146103e95780630670422214610426578063069135af1461044a57600080fd5b366103e457600e5460ff1615156001146103da5760405162461bcd60e51b81526004016103d190614534565b60405180910390fd5b6103e2610b8c565b005b600080fd5b3480156103f557600080fd5b50601754610409906001600160a01b031681565b6040516001600160a01b0390911681526020015b60405180910390f35b34801561043257600080fd5b5061043c600c5481565b60405190815260200161041d565b34801561045657600080fd5b506103e2610465366004614580565b610c4f565b34801561047657600080fd5b506103e26104853660046145a4565b610ccf565b34801561049657600080fd5b506104aa6104a53660046145a4565b610db2565b60405161041d979695949392919061462c565b3480156104c957600080fd5b506103e26104d8366004614580565b610e7b565b3480156104e957600080fd5b506104fd6104f8366004614690565b61103a565b60405161041d91906146fe565b34801561051657600080fd5b506104096105253660046145a4565b611188565b34801561053657600080fd5b50601454610409906001600160a01b031681565b34801561055657600080fd5b506103e2610565366004614711565b6111b2565b34801561057657600080fd5b5061057f61147e565b60405161041d9998979695949392919061475d565b3480156105a057600080fd5b5061043c60115481565b3480156105b657600080fd5b50600954600a546105c89160ff169082565b60408051921515835260208301919091520161041d565b3480156105eb57600080fd5b5061060f6105fa366004614580565b60036020526000908152604090205460ff1681565b604051901515815260200161041d565b34801561062b57600080fd5b506103e261063a366004614580565b6115e3565b34801561064b57600080fd5b50600e5461060f9060ff1681565b34801561066557600080fd5b506103e2610674366004614711565b611725565b34801561068557600080fd5b50604080518082018252601181527010db94dd185ada5b99d0dbdb9d1c9858dd607a1b6020820152905161041d9190614803565b3480156106c557600080fd5b506103e26106d4366004614836565b611966565b3480156106e557600080fd5b5061043c600f5481565b3480156106fb57600080fd5b506103e2611a4b565b34801561071057600080fd5b506103e261071f366004614836565b611afe565b34801561073057600080fd5b506103e261073f366004614580565b611cad565b34801561075057600080fd5b50603261043c565b34801561076457600080fd5b5061043c60055481565b34801561077a57600080fd5b506103e2610789366004614580565b611d93565b34801561079a57600080fd5b506103e26107a9366004614836565b611f5b565b3480156107ba57600080fd5b506107c361218a565b60405161041d959493929190614862565b3480156107e057600080fd5b5061043c60105481565b6103e2612312565b3480156107fe57600080fd5b5061043c60135481565b34801561081457600080fd5b506103e26108233660046145a4565b6124e0565b34801561083457600080fd5b506103e26127f7565b34801561084957600080fd5b506103e2610858366004614580565b612950565b34801561086957600080fd5b506108ad6108783660046145a4565b60009081526012602052604090208054600182015460028301546003909301546001600160a01b039092169390929160ff1690565b60405161041d94939291906148a5565b3480156108c957600080fd5b506108d2612af1565b60405161041d91906148e2565b3480156108eb57600080fd5b506103e26108fa366004614836565b612ca2565b34801561090b57600080fd5b506103e261091a366004614580565b612dd7565b34801561092b57600080fd5b50600054610409906001600160a01b031681565b34801561094b57600080fd5b5061043c600d5481565b34801561096157600080fd5b506103e2610970366004614580565b612f03565b34801561098157600080fd5b50601654610409906001600160a01b031681565b3480156109a157600080fd5b506103e261304c565b3480156109b657600080fd5b50601554610409906001600160a01b031681565b3480156109d657600080fd5b5061043c62093a8081565b3480156109ed57600080fd5b506103e26109fc366004614580565b6130c0565b348015610a0d57600080fd5b5062093a8061043c565b348015610a2357600080fd5b50601854610409906001600160a01b031681565b348015610a4357600080fd5b506103e2610a52366004614580565b61312d565b348015610a6357600080fd5b5061043c60025481565b348015610a7957600080fd5b506103e2610a88366004614580565b6132b8565b348015610a9957600080fd5b506103e2610aa8366004614580565b613415565b348015610ab957600080fd5b506103e2610ac83660046145a4565b61350a565b348015610ad957600080fd5b506103e2610ae83660046145a4565b6135ad565b348015610af957600080fd5b506104fd610b083660046148f5565b6136b8565b348015610b1957600080fd5b506103e2610b283660046145a4565b6137f9565b348015610b3957600080fd5b5061043c60045481565b348015610b4f57600080fd5b50610400610409565b348015610b6457600080fd5b506103e2610b733660046145a4565b6138e6565b348015610b8457600080fd5b50600261043c565b600e5460ff161515600114610bb35760405162461bcd60e51b81526004016103d190614534565b60003411610bf55760405162461bcd60e51b815260206004820152600f60248201526e24b73b30b634b21030b6b7bab73a1760891b60448201526064016103d1565b34600f6000828254610c07919061493d565b90915550610c1590506139b4565b604080513381523460208201527f016a7abf22d0d58c184d5eb406e8e9f6007698168251cf67add43fa4d13768f6910160405180910390a1565b600e5460ff161515600114610c765760405162461bcd60e51b81526004016103d190614534565b3360008181526003602052604090205460ff16610ca55760405162461bcd60e51b81526004016103d190614950565b6000610cbf60086001600160a01b0385165b600080613a41565b9050610cca81613bd5565b505050565b600e5460ff161515600114610cf65760405162461bcd60e51b81526004016103d190614534565b3360008181526003602052604090205460ff16610d255760405162461bcd60e51b81526004016103d190614950565b600082815260126020526040902080546001600160a01b0316610d5a5760405162461bcd60e51b81526004016103d19061497f565b6000600382015460ff166002811115610d7557610d756145bd565b14610d925760405162461bcd60e51b81526004016103d1906149c1565b6000610da16007858380613a41565b9050610dac81613bd5565b50505050565b600081815260066020818152604080842080546001820154600283015460038401546004850154978501546005860180548851818b0281018b019099528089528b9a8b9a8b9a8b9a60609a8c9a919960ff918216999298909792966001600160a01b03909616959294911692918491830182828015610e5a57602002820191906000526020600020905b81546001600160a01b03168152600190910190602001808311610e3c575b50505050509150975097509750975097509750975050919395979092949650565b600e5460ff161515600114610ea25760405162461bcd60e51b81526004016103d190614534565b3360008181526003602052604090205460ff16610ed15760405162461bcd60e51b81526004016103d190614950565b816001600160a01b038116610ef85760405162461bcd60e51b81526004016103d1906149e9565b610f0183613c05565b610f1d5760405162461bcd60e51b81526004016103d190614a12565b6017546001600160a01b03161561102457601754604051635605a4e560e01b81523060048201526001600160a01b0390911690635605a4e590602401600060405180830381600087803b158015610f7357600080fd5b505af1158015610f87573d6000803e3d6000fd5b50505050601760009054906101000a90046001600160a01b03166001600160a01b031663d4377d4d6040518163ffffffff1660e01b8152600401600060405180830381865afa158015610fde573d6000803e3d6000fd5b505050506040513d6000823e601f3d908101601f191682016040526110069190810190614aa7565b51156110245760405162461bcd60e51b81526004016103d190614b3d565b6000610da160096001600160a01b038616610cb7565b6060838380158061104d57506005548510155b1561105757506005545b6000825b828110156110b757856004811115611075576110756145bd565b6000828152600660208190526040909120015460ff16600481111561109c5761109c6145bd565b036110af57816110ab81614b92565b9250505b60010161105b565b508067ffffffffffffffff8111156110d1576110d1614a3c565b6040519080825280602002602001820160405280156110fa578160200160208202803683370190505b50935060009050825b8281101561117d5785600481111561111d5761111d6145bd565b6000828152600660208190526040909120015460ff166004811115611144576111446145bd565b03611175578085838151811061115c5761115c614bab565b60209081029190910101528161117181614b92565b9250505b600101611103565b505050509392505050565b6001818154811061119857600080fd5b6000918252602090912001546001600160a01b0316905081565b8460016000828152600660208190526040909120015460ff1660048111156111dc576111dc6145bd565b146112295760405162461bcd60e51b815260206004820152601f60248201527f4d757374206265206174206e6f742d636f6e6669726d65642073746174652e0060448201526064016103d1565b3360008181526003602052604090205460ff166112585760405162461bcd60e51b81526004016103d190614950565b6112628733613d39565b6112ae5760405162461bcd60e51b815260206004820152601d60248201527f4d73672e73656e64657220686173206e6f7420636f6e6669726d65642e00000060448201526064016103d1565b85600a8111156112c0576112c06145bd565b60008881526006602052604090205460ff16600a8111156112e3576112e36145bd565b148015611300575060008781526006602052604090206001015485145b801561131c575060008781526006602052604090206002015484145b8015611338575060008781526006602052604090206003015483145b6113545760405162461bcd60e51b81526004016103d190614bc1565b600087815260066020526040902060040154336001600160a01b03909116036113f057600087815260066020819052604091829020908101805460ff19166004179055805460018201546002830154600390930154935133948c947f01011152a3b44da915f5831c5c63c3448b616dcc166c3543f289ed79645280c9946113e39460ff90911693909290614c08565b60405180910390a3611475565b600087815260066020526040902061140b9060050133613dbd565b600087815260066020526040908190208054600182015460028301546003840154945133958d957fed38e5621fac2aa23736077187104abfe9c8aa1c5b4eb73015d8cfdf403fe0709561146c9560ff90911694909390929160050190614c31565b60405180910390a35b50505050505050565b60008054601454601554600254600954600e5460018054604080516020808402820181019092528281528a998a996060998b998b998a998c998a996001600160a01b03978816999688169895909716969095939460079460089460ff908116941692889183018282801561151b57602002820191906000526020600020905b81546001600160a01b031681526001909101906020018083116114fd575b505050505095508380548060200260200160405190810160405280929190818152602001828054801561156d57602002820191906000526020600020905b815481526020019060010190808311611559575b50505050509350828054806020026020016040519081016040528092919081815260200182805480156115bf57602002820191906000526020600020905b8154815260200190600101908083116115ab575b50505050509250985098509850985098509850985098509850909192939495969798565b3330146116025760405162461bcd60e51b81526004016103d190614cab565b806001600160a01b0381166116295760405162461bcd60e51b81526004016103d1906149e9565b6001600160a01b038216600090815260036020526040902054829060ff166116635760405162461bcd60e51b81526004016103d190614950565b600180546116719190614ce2565b600254603282111580156116855750818111155b801561169057508015155b801561169b57508115155b6116b75760405162461bcd60e51b81526004016103d190614cf5565b6116c2600186613dbd565b6001600160a01b0385166000908152600360205260409020805460ff191690556116ea611a4b565b6040516001600160a01b038616907f1af6bd3d85a56e7c4a0700756fd2ca3b3b65c266e56c77652c5a346bc256522090600090a25050505050565b8460016000828152600660208190526040909120015460ff16600481111561174f5761174f6145bd565b1461179c5760405162461bcd60e51b815260206004820152601f60248201527f4d757374206265206174206e6f742d636f6e6669726d65642073746174652e0060448201526064016103d1565b3360008181526003602052604090205460ff166117cb5760405162461bcd60e51b81526004016103d190614950565b6117d58733613d39565b156118225760405162461bcd60e51b815260206004820152601d60248201527f4d73672e73656e64657220616c726561647920636f6e6669726d65642e00000060448201526064016103d1565b85600a811115611834576118346145bd565b60008881526006602052604090205460ff16600a811115611857576118576145bd565b148015611874575060008781526006602052604090206001015485145b8015611890575060008781526006602052604090206002015484145b80156118ac575060008781526006602052604090206003015483145b6118c85760405162461bcd60e51b81526004016103d190614bc1565b6000878152600660209081526040808320600501805460018101825581855292842090920180546001600160a01b03191633908117909155928a90525189917f658055f08cf63659025f616b2baf94baf8f4d2ee9c600c2ae722b4b7716cce469161193b918b918b918b918b9190614c31565b60405180910390a3600254600088815260066020526040902060050154106114755761147587613ed1565b600e5460ff16151560011461198d5760405162461bcd60e51b81526004016103d190614534565b3360008181526003602052604090205460ff166119bc5760405162461bcd60e51b81526004016103d190614950565b826001600160a01b0381166119e35760405162461bcd60e51b81526004016103d1906149e9565b60006119ed61218a565b945050505050600084118015611a035750808411155b611a1f5760405162461bcd60e51b81526004016103d190614d23565b6000611a3860056001600160a01b038816876000613a41565b9050611a4381613bd5565b505050505050565b333014611a6a5760405162461bcd60e51b81526004016103d190614cab565b6004545b600554811015611acc5760016000828152600660208190526040909120015460ff166004811115611aa157611aa16145bd565b03611ac457600081815260066020819052604090912001805460ff191660041790555b600101611a6e565b506005546004556040517f907527d30089abd16e30f06ddbbbc18480505176262f19bc16c1fbf9262f9c6b90600090a1565b333014611b1d5760405162461bcd60e51b81526004016103d190614cab565b816001600160a01b038116611b445760405162461bcd60e51b81526004016103d1906149e9565b6000611b4e61218a565b945050505050600083118015611b645750808311155b611bb05760405162461bcd60e51b815260206004820152601a60248201527f56616c7565206973206e6f7420776974686472617761626c652e00000000000060448201526064016103d1565b82600d6000828254611bc29190614ce2565b90915550506040516000906001600160a01b0386169085908381818185875af1925050503d8060008114611c12576040519150601f19603f3d011682016040523d82523d6000602084013e611c17565b606091505b5050905080611c5b5760405162461bcd60e51b815260206004820152601060248201526f2a3930b739b332b9103330b4b632b21760811b60448201526064016103d1565b611c636139b4565b846001600160a01b03167f2d9d65e4fcab96e158761a8d3cc0bd7fd76951ab5574667b07190da17177747085604051611c9e91815260200190565b60405180910390a25050505050565b333014611ccc5760405162461bcd60e51b81526004016103d190614cab565b601880546001600160a01b0319166001600160a01b03838116919091179091556017541615611d535760175460405163aad8cb3f60e01b81523060048201526001600160a01b039091169063aad8cb3f90602401600060405180830381600087803b158015611d3a57600080fd5b505af1158015611d4e573d6000803e3d6000fd5b505050505b6040516001600160a01b03821681527f61ee88e3c7513df1e6e214415e781030278cf98b7fbb9d6d53720ee8aeb654ee906020015b60405180910390a150565b333014611db25760405162461bcd60e51b81526004016103d190614cab565b806001600160a01b038116611dd95760405162461bcd60e51b81526004016103d1906149e9565b611de282613c05565b611dfe5760405162461bcd60e51b81526004016103d190614a12565b6017546001600160a01b031615611f0557601754604051635605a4e560e01b81523060048201526001600160a01b0390911690635605a4e590602401600060405180830381600087803b158015611e5457600080fd5b505af1158015611e68573d6000803e3d6000fd5b50505050601760009054906101000a90046001600160a01b03166001600160a01b031663d4377d4d6040518163ffffffff1660e01b8152600401600060405180830381865afa158015611ebf573d6000803e3d6000fd5b505050506040513d6000823e601f3d908101601f19168201604052611ee79190810190614aa7565b5115611f055760405162461bcd60e51b81526004016103d190614b3d565b601780546001600160a01b0319166001600160a01b0384169081179091556040519081527fef25e066ac14a10491ae1ac89a8247282158e169968aaccbceb257d0878bdfd0906020015b60405180910390a15050565b333014611f7a5760405162461bcd60e51b81526004016103d190614cab565b816001600160a01b038116611fa15760405162461bcd60e51b81526004016103d1906149e9565b600082118015611fb35750600f548211155b611fcf5760405162461bcd60e51b81526004016103d190614d23565b600f5482601054611fe0919061493d565b111561202e5760405162461bcd60e51b815260206004820152601f60248201527f546f6f206d756368206f75747374616e64696e67207769746864726177616c0060448201526064016103d1565b60118054908190600061204083614b92565b9190505550600061205162093a8090565b61205b904261493d565b90506040518060800160405280866001600160a01b0316815260200185815260200182815260200160006002811115612096576120966145bd565b9052600083815260126020908152604091829020835181546001600160a01b0319166001600160a01b039091161781559083015160018083019190915591830151600280830191909155606084015160038301805493949193909260ff199091169190849081111561210a5761210a6145bd565b02179055509050508360106000828254612124919061493d565b9091555061213290506139b4565b604080518381526001600160a01b0387166020820152908101859052606081018290527fdd0988b8c11a867814c87be652f93a86d35c6a235b92977e99d5394bd8580ced906080015b60405180910390a15050505050565b600e5460609081906000908190819060ff1615156001146121bd5760405162461bcd60e51b81526004016103d190614534565b6000805b6007548110156122265760078054829081106121df576121df614bab565b906000526020600020015442111561221e57600880548290811061220557612205614bab565b90600052602060002001548261221b919061493d565b91505b6001016121c1565b506000600d54600c546122399190614ce2565b905060006122478284614ce2565b905060076000016007600101600c54600d5484848054806020026020016040519081016040528092919081815260200182805480156122a557602002820191906000526020600020905b815481526020019060010190808311612291575b50505050509450838054806020026020016040519081016040528092919081815260200182805480156122f757602002820191906000526020600020905b8154815260200190600101908083116122e3575b50505050509350975097509750975097505050509091929394565b600e5460ff16156123355760405162461bcd60e51b81526004016103d190614d4b565b60135460000361237e5760405162461bcd60e51b815260206004820152601460248201527347432049442063616e6e6f74206265207a65726f60601b60448201526064016103d1565b60095460ff1615156001146123d55760405162461bcd60e51b815260206004820152601a60248201527f526576696577696e67206973206e6f742066696e69736865642e00000000000060448201526064016103d1565b6000805b6008548110156124175760088054829081106123f7576123f7614bab565b90600052602060002001548261240d919061493d565b91506001016123d9565b5080341461245f5760405162461bcd60e51b81526020600482015260156024820152742b30b63ab2903237b2b9903737ba1036b0ba31b41760591b60448201526064016103d1565b600c819055600d819055600080546001600160a01b03168152600360209081526040808320805460ff1990811690915583546001600160a01b031916909355600e8054909316600117909255815133815234918101919091527f2b3c5e8e58d7d1e42ccd071c6f749d53f9ee506020a81fad9ff98140ccccde699101611d88565b3360008181526003602052604090205460ff1661250f5760405162461bcd60e51b81526004016103d190614950565b600082815260126020526040902080546001600160a01b03166125445760405162461bcd60e51b81526004016103d19061497f565b6000600382015460ff16600281111561255f5761255f6145bd565b1461257c5760405162461bcd60e51b81526004016103d1906149c1565b600f54816001015411156125d25760405162461bcd60e51b815260206004820152601a60248201527f56616c7565206973206e6f7420776974686472617761626c652e00000000000060448201526064016103d1565b428160020154111561261e5760405162461bcd60e51b81526020600482015260156024820152742737ba103bb4ba34323930bbb0b13632903cb2ba1760591b60448201526064016103d1565b600062093a808260020154612633919061493d565b90504281116126c35760038201805460ff19166002179055600182015460108054600090612662908490614ce2565b9091555061267090506139b4565b81546001830154604080518781526001600160a01b0390931660208401528201527fcc847b5f283b573ff21408ad42cb442f358bbce95269470b05097215598173df9060600160405180910390a1610dac565b60038201805460ff19166001908117909155820154600f80546000906126ea908490614ce2565b9091555050600182015460108054600090612706908490614ce2565b9091555050815460018301546040516000926001600160a01b031691908381818185875af1925050503d806000811461275b576040519150601f19603f3d011682016040523d82523d6000602084013e612760565b606091505b50509050806127a45760405162461bcd60e51b815260206004820152601060248201526f2a3930b739b332b9103330b4b632b21760811b60448201526064016103d1565b6127ac6139b4565b82546001840154604080518881526001600160a01b0390931660208401528201527f7a2d48d1df1249429730a253e5713a7d7a2024913de2fbccafdf36efdd32bf059060600161217b565b600e5460ff161561281a5760405162461bcd60e51b81526004016103d190614d4b565b3360008181526003602052604090205460ff166128495760405162461bcd60e51b81526004016103d190614950565b336000908152600b602052604090205460ff16156128a95760405162461bcd60e51b815260206004820152601c60248201527f4d73672e73656e64657220616c72656164792072657669657765642e0000000060448201526064016103d1565b336000908152600b60205260408120805460ff19166001179055600a8054916128d183614b92565b909155505060405133907f65d287f4118b03f8cc979b433fd0b2246074200dd5da70c9daf204aaa0da1a2c90600090a26001805461290e9161493d565b600a540361294d576009805460ff191660011790556040517f244ff9a3d72b1dc5a4bce7f05fb615395f2a8c7ad6ea525d2bac9030f75d7a9b90600090a15b50565b33301461296f5760405162461bcd60e51b81526004016103d190614cab565b806001600160a01b0381166129965760405162461bcd60e51b81526004016103d1906149e9565b6001600160a01b038216600090815260036020526040902054829060ff16156129f95760405162461bcd60e51b815260206004820152601560248201527420b236b4b71030b63932b0b23c9032bc34b9ba399760591b60448201526064016103d1565b60018054612a069161493d565b60025460328211158015612a1a5750818111155b8015612a2557508015155b8015612a3057508115155b612a4c5760405162461bcd60e51b81526004016103d190614cf5565b6001600160a01b0385166000818152600360205260408120805460ff191660019081179091558054808201825591527fb10e2d527612073b26eecdfd717e6a320cf44b4afac2b0732d9fcbe2b7fa0cf60180546001600160a01b0319169091179055612ab6611a4b565b6040516001600160a01b038616907fad6de4452a631e641cb59902236607946ce9272b9b981f2f80e8d129cb9084ba90600090a25050505050565b600e5460609060ff1615612b175760405162461bcd60e51b81526004016103d190614d4b565b600a5460009067ffffffffffffffff811115612b3557612b35614a3c565b604051908082528060200260200182016040528015612b5e578160200160208202803683370190505b50600080546001600160a01b03168152600b60205260408120549192509060ff161515600103612bd15760005482516001600160a01b0390911690839083908110612bab57612bab614bab565b6001600160a01b039092166020928302919091019091015280612bcd81614b92565b9150505b60005b600154811015612c9a576007600401600060018381548110612bf857612bf8614bab565b60009182526020808320909101546001600160a01b0316835282019290925260400190205460ff161515600103612c925760018181548110612c3c57612c3c614bab565b9060005260206000200160009054906101000a90046001600160a01b0316838381518110612c6c57612c6c614bab565b6001600160a01b039092166020928302919091019091015281612c8e81614b92565b9250505b600101612bd4565b509091505090565b600e5460ff161515600114612cc95760405162461bcd60e51b81526004016103d190614534565b3360008181526003602052604090205460ff16612cf85760405162461bcd60e51b81526004016103d190614950565b826001600160a01b038116612d1f5760405162461bcd60e51b81526004016103d1906149e9565b600083118015612d315750600f548311155b612d4d5760405162461bcd60e51b81526004016103d190614d23565b600f5483601054612d5e919061493d565b1115612dac5760405162461bcd60e51b815260206004820152601f60248201527f546f6f206d756368206f75747374616e64696e67207769746864726177616c0060448201526064016103d1565b6000612dc560066001600160a01b038716866000613a41565b9050612dd081613bd5565b5050505050565b600e5460ff161515600114612dfe5760405162461bcd60e51b81526004016103d190614534565b3360008181526003602052604090205460ff16612e2d5760405162461bcd60e51b81526004016103d190614950565b816001600160a01b038116612e545760405162461bcd60e51b81526004016103d1906149e9565b6001600160a01b038316600090815260036020526040902054839060ff16612e8e5760405162461bcd60e51b81526004016103d190614950565b60018054612e9c9190614ce2565b60025460328211158015612eb05750818111155b8015612ebb57508015155b8015612ec657508115155b612ee25760405162461bcd60e51b81526004016103d190614cf5565b6000612ef860026001600160a01b038916610cb7565b905061147581613bd5565b600e5460ff161515600114612f2a5760405162461bcd60e51b81526004016103d190614534565b3360008181526003602052604090205460ff16612f595760405162461bcd60e51b81526004016103d190614950565b816001600160a01b038116612f805760405162461bcd60e51b81526004016103d1906149e9565b6001600160a01b038316600090815260036020526040902054839060ff1615612fe35760405162461bcd60e51b815260206004820152601560248201527420b236b4b71030b63932b0b23c9032bc34b9ba399760591b60448201526064016103d1565b60018054612ff09161493d565b600254603282111580156130045750818111155b801561300f57508015155b801561301a57508115155b6130365760405162461bcd60e51b81526004016103d190614cf5565b6000612ef860016001600160a01b038916610cb7565b600e5460ff1615156001146130735760405162461bcd60e51b81526004016103d190614534565b3360008181526003602052604090205460ff166130a25760405162461bcd60e51b81526004016103d190614950565b60006130b16004828080613a41565b90506130bc81613bd5565b5050565b3330146130df5760405162461bcd60e51b81526004016103d190614cab565b601680546001600160a01b0319166001600160a01b0383169081179091556040519081527fbe1849831e6775a2022006aeebcc00f70d10bc4202c8187e215ad9e9911f2b0690602001611d88565b6131356143da565b61318f5760405162461bcd60e51b815260206004820152602560248201527f556e617574686f72697a656420746f2061636365707420726577617264206164604482015264647265737360d81b60648201526084016103d1565b6016546001600160a01b038281169116146131fd5760405162461bcd60e51b815260206004820152602860248201527f476976656e206164647265737320646f6573206e6f74206d61746368207468656044820152672070656e64696e6760c01b60648201526084016103d1565b61040060165460405163832a2aad60e01b81526001600160a01b03918216600482015291169063832a2aad90602401600060405180830381600087803b15801561324657600080fd5b505af115801561325a573d6000803e3d6000fd5b505060168054601580546001600160a01b0383166001600160a01b031991821681179092559091169091556040519081527fbe1849831e6775a2022006aeebcc00f70d10bc4202c8187e215ad9e9911f2b0692506020019050611d88565b600e5460ff1615156001146132df5760405162461bcd60e51b81526004016103d190614534565b3360008181526003602052604090205460ff1661330e5760405162461bcd60e51b81526004016103d190614950565b6017546001600160a01b03161580159061333057506001600160a01b03821615155b156133ff576017546040516327a38e0160e11b81526001600160a01b0384811660048301526000921690634f471c0290602401602060405180830381865afa158015613380573d6000803e3d6000fd5b505050506040513d601f19601f820116820180604052508101906133a49190614d82565b90506001600160a01b038116156133fd5760405162461bcd60e51b815260206004820152601b60248201527f566f746572206164647265737320616c72656164792074616b656e000000000060448201526064016103d1565b505b6000610cbf600a6001600160a01b038516610cb7565b600e5460ff16156134385760405162461bcd60e51b81526004016103d190614d4b565b3360008181526003602052604090205460ff166134675760405162461bcd60e51b81526004016103d190614950565b816001600160a01b03811661348e5760405162461bcd60e51b81526004016103d1906149e9565b61349783613c05565b6134b35760405162461bcd60e51b81526004016103d190614a12565b601780546001600160a01b0319166001600160a01b0385169081179091556040519081527fef25e066ac14a10491ae1ac89a8247282158e169968aaccbceb257d0878bdfd0906020015b60405180910390a1505050565b3330146135295760405162461bcd60e51b81526004016103d190614cab565b600154816032821115801561353e5750818111155b801561354957508015155b801561355457508115155b6135705760405162461bcd60e51b81526004016103d190614cf5565b600283905561357d611a4b565b6040518381527f8951393946c27b45080aad111464c16c70f3d5e7d24b114a627334441961bf5f906020016134fd565b3330146135cc5760405162461bcd60e51b81526004016103d190614cab565b600081815260126020526040902080546001600160a01b03166136015760405162461bcd60e51b81526004016103d19061497f565b6000600382015460ff16600281111561361c5761361c6145bd565b146136395760405162461bcd60e51b81526004016103d1906149c1565b60038101805460ff1916600217905560018101546010805460009061365f908490614ce2565b9091555061366d90506139b4565b80546001820154604080518581526001600160a01b0390931660208401528201527fcc847b5f283b573ff21408ad42cb442f358bbce95269470b05097215598173df90606001611f4f565b606083838015806136cb57506011548510155b156136d557506011545b6000825b82811015613734578560028111156136f3576136f36145bd565b60008281526012602052604090206003015460ff166002811115613719576137196145bd565b0361372c5761372960018361493d565b91505b6001016136d9565b508067ffffffffffffffff81111561374e5761374e614a3c565b604051908082528060200260200182016040528015613777578160200160208202803683370190505b50935060009050825b8281101561117d5785600281111561379a5761379a6145bd565b60008281526012602052604090206003015460ff1660028111156137c0576137c06145bd565b036137f157808583815181106137d8576137d8614bab565b6020908102919091010152816137ed81614b92565b9250505b600101613780565b600e5460ff1615156001146138205760405162461bcd60e51b81526004016103d190614534565b3360008181526003602052604090205460ff1661384f5760405162461bcd60e51b81526004016103d190614950565b60015482603282111580156138645750818111155b801561386f57508015155b801561387a57508115155b6138965760405162461bcd60e51b81526004016103d190614cf5565b60025484036138d75760405162461bcd60e51b815260206004820152600d60248201526c496e76616c69642076616c756560981b60448201526064016103d1565b6000612dc56003868380613a41565b600e5460ff16156139095760405162461bcd60e51b81526004016103d190614d4b565b3360008181526003602052604090205460ff166139385760405162461bcd60e51b81526004016103d190614950565b8160000361397f5760405162461bcd60e51b815260206004820152601460248201527347432049442063616e6e6f74206265207a65726f60601b60448201526064016103d1565b60138290556040518281527f469cb2f3ce5d5e879269af625b54571651feb0ede6e83ee89b9c888648af514f90602001611f4f565b6017546040513060248201526001600160a01b039091169060440160408051601f198184030181529181526020820180516001600160e01b0316635605a4e560e01b17905251613a049190614d9f565b6000604051808303816000865af19150503d8060008114610cca576040519150601f19603f3d011682016040523d82523d6000602084013e505050565b60058054600091819083613a5483614b92565b91905055506040518060e0016040528087600a811115613a7657613a766145bd565b815260208101879052604081018690526060810185905233608082015260a0016000604051908082528060200260200182016040528015613ac1578160200160208202803683370190505b50815260200160019052600082815260066020526040902081518154829060ff1916600183600a811115613af757613af76145bd565b02179055506020828101516001830155604083015160028301556060830151600383015560808301516004830180546001600160a01b0319166001600160a01b0390921691909117905560a08301518051613b5892600585019201906144ba565b5060c082015160068201805460ff19166001836004811115613b7c57613b7c6145bd565b0217905550905050336001600160a01b0316817fdd9ce6d431d4ac3e8bea81bc2d7760b97d30c4e54252d8c8c59054849b8f61b588888888604051613bc49493929190614c08565b60405180910390a395945050505050565b600081815260066020526040902080546001820154600283015460039093015461294d93859360ff169291611725565b600080826001600160a01b0316634b6a94cc6040518163ffffffff1660e01b8152600401600060405180830381865afa158015613c46573d6000803e3d6000fd5b505050506040513d6000823e601f3d908101601f19168201604052613c6e9190810190614dbb565b90506000836001600160a01b031663ffa1ad746040518163ffffffff1660e01b8152600401602060405180830381865afa158015613cb0573d6000803e3d6000fd5b505050506040513d601f19601f82011682018060405250810190613cd49190614e4f565b60408051808201909152600e81526d29ba30b5b4b733aa3930b1b5b2b960911b6020918201528351908401209091507fccfe28814eb3e9d0e6cfd45eb754f27c5eb4399dac6379181362ebd8b6a865c3148015613d315750806001145b949350505050565b6000805b600084815260066020526040902060050154811015613db157600084815260066020526040902060050180546001600160a01b038516919083908110613d8557613d85614bab565b6000918252602090912001546001600160a01b031603613da9576001915050613db7565b600101613d3d565b50600090505b92915050565b60005b8254811015610cca57816001600160a01b0316838281548110613de557613de5614bab565b6000918252602090912001546001600160a01b031603613ec9578254613e0d90600190614ce2565b8114613e925782548390613e2390600190614ce2565b81548110613e3357613e33614bab565b9060005260206000200160009054906101000a90046001600160a01b0316838281548110613e6357613e63614bab565b9060005260206000200160006101000a8154816001600160a01b0302191690836001600160a01b031602179055505b82805480613ea257613ea2614e68565b600082815260209020810160001990810180546001600160a01b0319169055019055505050565b600101613dc0565b60008181526006602052604081208054600180830154600284015460039094015460609460ff90941693919284600a811115613f0f57613f0f6145bd565b03613fa55760405160248101849052309060440160408051601f198184030181529181526020820180516001600160e01b0316637048027560e01b17905251613f589190614d9f565b6000604051808303816000865af19150503d8060008114613f95576040519150601f19603f3d011682016040523d82523d6000602084013e613f9a565b606091505b509096509450614328565b600284600a811115613fb957613fb96145bd565b036140025760405160248101849052309060440160408051601f198184030181529181526020820180516001600160e01b03166327e1f7df60e01b17905251613f589190614d9f565b600384600a811115614016576140166145bd565b0361405f5760405160248101849052309060440160408051601f198184030181529181526020820180516001600160e01b031663623d7d9d60e11b17905251613f589190614d9f565b600484600a811115614073576140736145bd565b036140ad5760408051600481526024810182526020810180516001600160e01b0316634f97638f60e01b17905290513091613f5891614d9f565b600584600a8111156140c1576140c16145bd565b03614111576040516024810184905260448101839052309060640160408051601f198184030181529181526020820180516001600160e01b0316631417afb560e21b17905251613f589190614d9f565b600684600a811115614125576141256145bd565b03614175576040516024810184905260448101839052309060640160408051601f198184030181529181526020820180516001600160e01b0316632efc584d60e11b17905251613f589190614d9f565b600784600a811115614189576141896145bd565b036141d25760405160248101849052309060440160408051601f198184030181529181526020820180516001600160e01b031663c804b11560e01b17905251613f589190614d9f565b600884600a8111156141e6576141e66145bd565b0361422f5760405160248101849052309060440160408051601f198184030181529181526020820180516001600160e01b0316634a26ead160e11b17905251613f589190614d9f565b600984600a811115614243576142436145bd565b0361428c5760405160248101849052309060440160408051601f198184030181529181526020820180516001600160e01b03166316f9bab360e21b17905251613f589190614d9f565b600a84600a8111156142a0576142a06145bd565b036142e95760405160248101849052309060440160408051601f198184030181529181526020820180516001600160e01b0316635784d18b60e01b17905251613f589190614d9f565b60405162461bcd60e51b81526020600482015260146024820152732ab739bab83837b93a32b210333ab731ba34b7b760611b60448201526064016103d1565b85156143845760008781526006602081905260409182902001805460ff1916600217905551339088907f48f16d9e6ab6f19798a7c7f307ecea3def480049fa0a09280e2a3fa45aaa8426906113e3908890889088908890614c08565b60008781526006602081905260409182902001805460ff1916600317905551339088907fbd3ad69fc5a8e233118506c67ebe892bef493fcf2eb9e6986f6d6c3f2adf0e8a9061146c908890889088908890614c08565b6016546000906001600160a01b031633036143f55750600190565b60006104006001600160a01b0316631865c57d6040518163ffffffff1660e01b8152600401600060405180830381865afa158015614437573d6000803e3d6000fd5b505050506040513d6000823e601f3d908101601f1916820160405261445f9190810190614e7e565b50905060005b81518110156144b15781818151811061448057614480614bab565b60200260200101516001600160a01b0316336001600160a01b0316036144a95760019250505090565b600101614465565b50600091505090565b82805482825590600052602060002090810192821561450f579160200282015b8281111561450f57825182546001600160a01b0319166001600160a01b039091161782556020909201916001909101906144da565b5061451b92915061451f565b5090565b5b8082111561451b5760008155600101614520565b6020808252601c908201527f436f6e7472616374206973206e6f7420696e697469616c697a65642e00000000604082015260600190565b6001600160a01b038116811461294d57600080fd5b60006020828403121561459257600080fd5b813561459d8161456b565b9392505050565b6000602082840312156145b657600080fd5b5035919050565b634e487b7160e01b600052602160045260246000fd5b600b81106145e3576145e36145bd565b9052565b60008151808452602080850194506020840160005b838110156146215781516001600160a01b0316875295820195908201906001016145fc565b509495945050505050565b61463681896145d3565b86602082015285604082015284606082015260018060a01b038416608082015260e060a0820152600061466c60e08301856145e7565b90506005831061467e5761467e6145bd565b8260c083015298975050505050505050565b6000806000606084860312156146a557600080fd5b83359250602084013591506040840135600581106146c257600080fd5b809150509250925092565b60008151808452602080850194506020840160005b83811015614621578151875295820195908201906001016146e2565b60208152600061459d60208301846146cd565b600080600080600060a0868803121561472957600080fd5b853594506020860135600b811061473f57600080fd5b94979496505050506040830135926060810135926080909101359150565b6001600160a01b038a81168252898116602083015288166040820152610120606082018190526000906147928382018a6145e7565b905087608084015282810360a08401526147ac81886146cd565b905082810360c08401526147c081876146cd565b94151560e0840152505090151561010090910152979650505050505050565b60005b838110156147fa5781810151838201526020016147e2565b50506000910152565b60208152600082518060208401526148228160408501602087016147df565b601f01601f19169190910160400192915050565b6000806040838503121561484957600080fd5b82356148548161456b565b946020939093013593505050565b60a08152600061487560a08301886146cd565b828103602084015261488781886146cd565b60408401969096525050606081019290925260809091015292915050565b6001600160a01b0385168152602081018490526040810183905260808101600383106148d3576148d36145bd565b82606083015295945050505050565b60208152600061459d60208301846145e7565b60008060006060848603121561490a57600080fd5b83359250602084013591506040840135600381106146c257600080fd5b634e487b7160e01b600052601160045260246000fd5b80820180821115613db757613db7614927565b60208082526015908201527420b2323932b9b99034b9903737ba1030b236b4b71760591b604082015260600190565b60208082526022908201527f5769746864726177616c207265717565737420646f6573206e6f7420657869736040820152613a1760f11b606082015260800190565b6020808252600e908201526d24b73b30b634b21039ba30ba329760911b604082015260600190565b6020808252600f908201526e1059191c995cdcc81a5cc81b9d5b1b608a1b604082015260600190565b60208082526010908201526f125b9d985b1a590818dbdb9d1c9858dd60821b604082015260600190565b634e487b7160e01b600052604160045260246000fd5b604051601f8201601f1916810167ffffffffffffffff81118282101715614a7b57614a7b614a3c565b604052919050565b600067ffffffffffffffff821115614a9d57614a9d614a3c565b5060051b60200190565b60006020808385031215614aba57600080fd5b825167ffffffffffffffff811115614ad157600080fd5b8301601f81018513614ae257600080fd5b8051614af5614af082614a83565b614a52565b81815260059190911b82018301908381019087831115614b1457600080fd5b928401925b82841015614b3257835182529284019290840190614b19565b979650505050505050565b60208082526035908201527f43616e6e6f742075706461746520747261636b6572207768656e2074686572656040820152741034b99030b71030b1ba34bb32903a3930b1b5b2b960591b606082015260800190565b600060018201614ba457614ba4614927565b5060010190565b634e487b7160e01b600052603260045260246000fd5b60208082526027908201527f46756e6374696f6e20696420616e6420617267756d656e747320646f206e6f746040820152661036b0ba31b41760c91b606082015260800190565b60808101614c1682876145d3565b84602083015283604083015282606083015295945050505050565b600060a08201614c4183896145d3565b602087602085015286604085015285606085015260a0608085015281855480845260c086019150866000526020600020935060005b81811015614c9b5784546001600160a01b031683526001948501949284019201614c76565b50909a9950505050505050505050565b6020808252601b908201527f4e6f742061206d756c74697369672d7472616e73616374696f6e2e0000000000604082015260600190565b81810381811115613db757613db7614927565b60208082526014908201527324b73b30b634b2103932b8bab4b932b6b2b73a1760611b604082015260600190565b6020808252600e908201526d24b73b30b634b2103b30b63ab29760911b604082015260600190565b6020808252601e908201527f436f6e747261637420686173206265656e20696e697469616c697a65642e0000604082015260600190565b600060208284031215614d9457600080fd5b815161459d8161456b565b60008251614db18184602087016147df565b9190910192915050565b600060208284031215614dcd57600080fd5b815167ffffffffffffffff80821115614de557600080fd5b818401915084601f830112614df957600080fd5b815181811115614e0b57614e0b614a3c565b614e1e601f8201601f1916602001614a52565b9150808252856020828501011115614e3557600080fd5b614e468160208401602086016147df565b50949350505050565b600060208284031215614e6157600080fd5b5051919050565b634e487b7160e01b600052603160045260246000fd5b60008060408385031215614e9157600080fd5b825167ffffffffffffffff811115614ea857600080fd5b8301601f81018513614eb957600080fd5b80516020614ec9614af083614a83565b82815260059290921b83018101918181019088841115614ee857600080fd5b938201935b83851015614f0f578451614f008161456b565b82529382019390820190614eed565b96909101519597959650505050505056fea26469706673582212204dd126397d9aa147173935c9437278229d6ed096c0d39f87a7f72baf5536718d64736f6c63430008190033",
  "linkReferences": {},
  "deployedLinkReferences": {}
}