{
  "_format": "hh-sol-artifact-1",
  "contractName": "CnStakingV3MultiSig",
  "sourceName": "contracts/system_contracts/consensus/CnV3/CnStakingV3MultiSig.sol",
  "abi": [
    {
      "inputs": [
        {
          "internalType": "address",
          "name": "_contractValidator",
          "type": "address"
        },
        {
          "internalType": "address",
          "name": "_nodeId",
          "type": "address"
        },
        {
          "internalType": "address",
          "name": "_rewardAddress",
          "type": "address"
        },
        {
          "internalType": "address[]",
          "name": "_cnAdminlist",
          "type": "address[]"
        },
        {
          "internalType": "uint256",
          "name": "_requirement",
          "type": "uint256"
        },
        {
          "internalType": "uint256[]",
          "name": "_unlockTime",
          "type": "uint256[]"
        },
        {
          "internalType": "uint256[]",
          "name": "_unlockAmount",
          "type": "uint256[]"
        }
      ],
      "stateMutability": "nonpayable",
      "type": "constructor"
    },
    {
      "inputs": [],
      "name": "AccessControlBadConfirmation",
      "type": "error"
    },
    {
      "inputs": [
        {
          "internalType": "address",
          "name": "account",
          "type": "address"
        },
        {
          "internalType": "bytes32",
          "name": "neededRole",
          "type": "bytes32"
        }
      ],
      "name": "AccessControlUnauthorizedAccount",
      "type": "error"
    },
    {
      "anonymous": false,
      "inputs": [
        {
          "indexed": true,
          "internalType": "address",
          "name": "rewardAddress",
          "type": "address"
        }
      ],
      "name": "AcceptRewardAddress",
      "type": "event"
    },
    {
      "anonymous": false,
      "inputs": [
        {
          "indexed": true,
          "internalType": "address",
          "name": "admin",
          "type": "address"
        }
      ],
      "name": "AddAdmin",
      "type": "event"
    },
    {
      "anonymous": false,
      "inputs": [
        {
          "indexed": true,
          "internalType": "uint256",
          "name": "approvedWithdrawalId",
          "type": "uint256"
        },
        {
          "indexed": true,
          "internalType": "address",
          "name": "to",
          "type": "address"
        },
        {
          "indexed": false,
          "internalType": "uint256",
          "name": "value",
          "type": "uint256"
        },
        {
          "indexed": false,
          "internalType": "uint256",
          "name": "withdrawableFrom",
          "type": "uint256"
        }
      ],
      "name": "ApproveStakingWithdrawal",
      "type": "event"
    },
    {
      "anonymous": false,
      "inputs": [
        {
          "indexed": true,
          "internalType": "uint256",
          "name": "approvedWithdrawalId",
          "type": "uint256"
        },
        {
          "indexed": true,
          "internalType": "address",
          "name": "to",
          "type": "address"
        },
        {
          "indexed": false,
          "internalType": "uint256",
          "name": "value",
          "type": "uint256"
        }
      ],
      "name": "CancelApprovedStakingWithdrawal",
      "type": "event"
    },
    {
      "anonymous": false,
      "inputs": [
        {
          "indexed": true,
          "internalType": "uint256",
          "name": "id",
          "type": "uint256"
        },
        {
          "indexed": true,
          "internalType": "address",
          "name": "from",
          "type": "address"
        },
        {
          "indexed": false,
          "internalType": "enum ICnStakingV3MultiSig.Functions",
          "name": "functionId",
          "type": "uint8"
        },
        {
          "indexed": false,
          "internalType": "bytes32",
          "name": "firstArg",
          "type": "bytes32"
        },
        {
          "indexed": false,
          "internalType": "bytes32",
          "name": "secondArg",
          "type": "bytes32"
        },
        {
          "indexed": false,
          "internalType": "bytes32",
          "name": "thirdArg",
          "type": "bytes32"
        }
      ],
      "name": "CancelRequest",
      "type": "event"
    },
    {
      "anonymous": false,
      "inputs": [],
      "name": "ClearRequest",
      "type": "event"
    },
    {
      "anonymous": false,
      "inputs": [],
      "name": "CompleteReviewInitialConditions",
      "type": "event"
    },
    {
      "anonymous": false,
      "inputs": [
        {
          "indexed": true,
          "internalType": "uint256",
          "name": "id",
          "type": "uint256"
        },
        {
          "indexed": true,
          "internalType": "address",
          "name": "from",
          "type": "address"
        },
        {
          "indexed": false,
          "internalType": "enum ICnStakingV3MultiSig.Functions",
          "name": "functionId",
          "type": "uint8"
        },
        {
          "indexed": false,
          "internalType": "bytes32",
          "name": "firstArg",
          "type": "bytes32"
        },
        {
          "indexed": false,
          "internalType": "bytes32",
          "name": "secondArg",
          "type": "bytes32"
        },
        {
          "indexed": false,
          "internalType": "bytes32",
          "name": "thirdArg",
          "type": "bytes32"
        },
        {
          "indexed": false,
          "internalType": "address[]",
          "name": "confirmers",
          "type": "address[]"
        }
      ],
      "name": "ConfirmRequest",
      "type": "event"
    },
    {
      "anonymous": false,
      "inputs": [
        {
          "indexed": true,
          "internalType": "address",
          "name": "from",
          "type": "address"
        },
        {
          "indexed": false,
          "internalType": "uint256",
          "name": "value",
          "type": "uint256"
        }
      ],
      "name": "DelegateKaia",
      "type": "event"
    },
    {
      "anonymous": false,
      "inputs": [
        {
          "indexed": true,
          "internalType": "address",
          "name": "admin",
          "type": "address"
        }
      ],
      "name": "DeleteAdmin",
      "type": "event"
    },
    {
      "anonymous": false,
      "inputs": [
        {
          "indexed": false,
          "internalType": "string",
          "name": "contractType",
          "type": "string"
        },
        {
          "indexed": false,
          "internalType": "address",
          "name": "nodeId",
          "type": "address"
        },
        {
          "indexed": false,
          "internalType": "address",
          "name": "rewardAddress",
          "type": "address"
        },
        {
          "indexed": false,
          "internalType": "uint256[]",
          "name": "unlockTime",
          "type": "uint256[]"
        },
        {
          "indexed": false,
          "internalType": "uint256[]",
          "name": "unlockAmount",
          "type": "uint256[]"
        }
      ],
      "name": "DeployCnStakingV3",
      "type": "event"
    },
    {
      "anonymous": false,
      "inputs": [
        {
          "indexed": false,
          "internalType": "string",
          "name": "contractType",
          "type": "string"
        },
        {
          "indexed": false,
          "internalType": "address",
          "name": "contractValidator",
          "type": "address"
        },
        {
          "indexed": false,
          "internalType": "address[]",
          "name": "cnAdminList",
          "type": "address[]"
        },
        {
          "indexed": false,
          "internalType": "uint256",
          "name": "requirement",
          "type": "uint256"
        }
      ],
      "name": "DeployCnStakingV3MultiSig",
      "type": "event"
    },
    {
      "anonymous": false,
      "inputs": [
        {
          "indexed": true,
          "internalType": "address",
          "name": "from",
          "type": "address"
        },
        {
          "indexed": false,
          "internalType": "uint256",
          "name": "value",
          "type": "uint256"
        }
      ],
      "name": "DepositLockupStakingAndInit",
      "type": "event"
    },
    {
      "anonymous": false,
      "inputs": [
        {
          "indexed": true,
          "internalType": "uint256",
          "name": "id",
          "type": "uint256"
        },
        {
          "indexed": true,
          "internalType": "address",
          "name": "from",
          "type": "address"
        },
        {
          "indexed": false,
          "internalType": "enum ICnStakingV3MultiSig.Functions",
          "name": "functionId",
          "type": "uint8"
        },
        {
          "indexed": false,
          "internalType": "bytes32",
          "name": "firstArg",
          "type": "bytes32"
        },
        {
          "indexed": false,
          "internalType": "bytes32",
          "name": "secondArg",
          "type": "bytes32"
        },
        {
          "indexed": false,
          "internalType": "bytes32",
          "name": "thirdArg",
          "type": "bytes32"
        }
      ],
      "name": "ExecuteRequestFailure",
      "type": "event"
    },
    {
      "anonymous": false,
      "inputs": [
        {
          "indexed": true,
          "internalType": "uint256",
          "name": "id",
          "type": "uint256"
        },
        {
          "indexed": true,
          "internalType": "address",
          "name": "from",
          "type": "address"
        },
        {
          "indexed": false,
          "internalType": "enum ICnStakingV3MultiSig.Functions",
          "name": "functionId",
          "type": "uint8"
        },
        {
          "indexed": false,
          "internalType": "bytes32",
          "name": "firstArg",
          "type": "bytes32"
        },
        {
          "indexed": false,
          "internalType": "bytes32",
          "name": "secondArg",
          "type": "bytes32"
        },
        {
          "indexed": false,
          "internalType": "bytes32",
          "name": "thirdArg",
          "type": "bytes32"
        }
      ],
      "name": "ExecuteRequestSuccess",
      "type": "event"
    },
    {
      "anonymous": false,
      "inputs": [
        {
          "indexed": true,
          "internalType": "address",
          "name": "user",
          "type": "address"
        },
        {
          "indexed": true,
          "internalType": "address",
          "name": "prevCnStakingV3",
          "type": "address"
        },
        {
          "indexed": true,
          "internalType": "address",
          "name": "targetCnStakingV3",
          "type": "address"
        },
        {
          "indexed": false,
          "internalType": "uint256",
          "name": "value",
          "type": "uint256"
        }
      ],
      "name": "HandleRedelegation",
      "type": "event"
    },
    {
      "anonymous": false,
      "inputs": [
        {
          "indexed": true,
          "internalType": "address",
          "name": "user",
          "type": "address"
        },
        {
          "indexed": true,
          "internalType": "address",
          "name": "targetCnStakingV3",
          "type": "address"
        },
        {
          "indexed": false,
          "internalType": "uint256",
          "name": "value",
          "type": "uint256"
        }
      ],
      "name": "Redelegation",
      "type": "event"
    },
    {
      "anonymous": false,
      "inputs": [
        {
          "indexed": true,
          "internalType": "address",
          "name": "from",
          "type": "address"
        }
      ],
      "name": "ReviewInitialConditions",
      "type": "event"
    },
    {
      "anonymous": false,
      "inputs": [
        {
          "indexed": true,
          "internalType": "uint256",
          "name": "id",
          "type": "uint256"
        },
        {
          "indexed": true,
          "internalType": "address",
          "name": "from",
          "type": "address"
        },
        {
          "indexed": false,
          "internalType": "enum ICnStakingV3MultiSig.Functions",
          "name": "functionId",
          "type": "uint8"
        },
        {
          "indexed": false,
          "internalType": "bytes32",
          "name": "firstArg",
          "type": "bytes32"
        },
        {
          "indexed": false,
          "internalType": "bytes32",
          "name": "secondArg",
          "type": "bytes32"
        },
        {
          "indexed": false,
          "internalType": "bytes32",
          "name": "thirdArg",
          "type": "bytes32"
        },
        {
          "indexed": false,
          "internalType": "address[]",
          "name": "confirmers",
          "type": "address[]"
        }
      ],
      "name": "RevokeConfirmation",
      "type": "event"
    },
    {
      "anonymous": false,
      "inputs": [
        {
          "indexed": true,
          "internalType": "bytes32",
          "name": "role",
          "type": "bytes32"
        },
        {
          "indexed": true,
          "internalType": "bytes32",
          "name": "previousAdminRole",
          "type": "bytes32"
        },
        {
          "indexed": true,
          "internalType": "bytes32",
          "name": "newAdminRole",
          "type": "bytes32"
        }
      ],
      "name": "RoleAdminChanged",
      "type": "event"
    },
    {
      "anonymous": false,
      "inputs": [
        {
          "indexed": true,
          "internalType": "bytes32",
          "name": "role",
          "type": "bytes32"
        },
        {
          "indexed": true,
          "internalType": "address",
          "name": "account",
          "type": "address"
        },
        {
          "indexed": true,
          "internalType": "address",
          "name": "sender",
          "type": "address"
        }
      ],
      "name": "RoleGranted",
      "type": "event"
    },
    {
      "anonymous": false,
      "inputs": [
        {
          "indexed": true,
          "internalType": "bytes32",
          "name": "role",
          "type": "bytes32"
        },
        {
          "indexed": true,
          "internalType": "address",
          "name": "account",
          "type": "address"
        },
        {
          "indexed": true,
          "internalType": "address",
          "name": "sender",
          "type": "address"
        }
      ],
      "name": "RoleRevoked",
      "type": "event"
    },
    {
      "anonymous": false,
      "inputs": [
        {
          "indexed": true,
          "internalType": "address",
          "name": "from",
          "type": "address"
        },
        {
          "indexed": false,
          "internalType": "address",
          "name": "publicDelegation",
          "type": "address"
        },
        {
          "indexed": false,
          "internalType": "address",
          "name": "rewardAddress",
          "type": "address"
        }
      ],
      "name": "SetPublicDelegation",
      "type": "event"
    },
    {
      "anonymous": false,
      "inputs": [
        {
          "indexed": true,
          "internalType": "uint256",
          "name": "id",
          "type": "uint256"
        },
        {
          "indexed": true,
          "internalType": "address",
          "name": "from",
          "type": "address"
        },
        {
          "indexed": false,
          "internalType": "enum ICnStakingV3MultiSig.Functions",
          "name": "functionId",
          "type": "uint8"
        },
        {
          "indexed": false,
          "internalType": "bytes32",
          "name": "firstArg",
          "type": "bytes32"
        },
        {
          "indexed": false,
          "internalType": "bytes32",
          "name": "secondArg",
          "type": "bytes32"
        },
        {
          "indexed": false,
          "internalType": "bytes32",
          "name": "thirdArg",
          "type": "bytes32"
        }
      ],
      "name": "SubmitRequest",
      "type": "event"
    },
    {
      "anonymous": false,
      "inputs": [
        {
          "indexed": false,
          "internalType": "bool",
          "name": "isRedelegationEnabled",
          "type": "bool"
        }
      ],
      "name": "ToggleRedelegation",
      "type": "event"
    },
    {
      "anonymous": false,
      "inputs": [
        {
          "indexed": true,
          "internalType": "uint256",
          "name": "gcId",
          "type": "uint256"
        }
      ],
      "name": "UpdateGCId",
      "type": "event"
    },
    {
      "anonymous": false,
      "inputs": [
        {
          "indexed": false,
          "internalType": "uint256",
          "name": "requirement",
          "type": "uint256"
        }
      ],
      "name": "UpdateRequirement",
      "type": "event"
    },
    {
      "anonymous": false,
      "inputs": [
        {
          "indexed": true,
          "internalType": "address",
          "name": "rewardAddress",
          "type": "address"
        }
      ],
      "name": "UpdateRewardAddress",
      "type": "event"
    },
    {
      "anonymous": false,
      "inputs": [
        {
          "indexed": true,
          "internalType": "address",
          "name": "stakingTracker",
          "type": "address"
        }
      ],
      "name": "UpdateStakingTracker",
      "type": "event"
    },
    {
      "anonymous": false,
      "inputs": [
        {
          "indexed": true,
          "internalType": "address",
          "name": "voterAddress",
          "type": "address"
        }
      ],
      "name": "UpdateVoterAddress",
      "type": "event"
    },
    {
      "anonymous": false,
      "inputs": [
        {
          "indexed": true,
          "internalType": "uint256",
          "name": "approvedWithdrawalId",
          "type": "uint256"
        },
        {
          "indexed": true,
          "internalType": "address",
          "name": "to",
          "type": "address"
        },
        {
          "indexed": false,
          "internalType": "uint256",
          "name": "value",
          "type": "uint256"
        }
      ],
      "name": "WithdrawApprovedStaking",
      "type": "event"
    },
    {
      "anonymous": false,
      "inputs": [
        {
          "indexed": true,
          "internalType": "address",
          "name": "to",
          "type": "address"
        },
        {
          "indexed": false,
          "internalType": "uint256",
          "name": "value",
          "type": "uint256"
        }
      ],
      "name": "WithdrawLockupStaking",
      "type": "event"
    },
    {
      "inputs": [],
      "name": "ADDRESS_BOOK_ADDRESS",
      "outputs": [
        {
          "internalType": "address",
          "name": "",
          "type": "address"
        }
      ],
      "stateMutability": "view",
      "type": "function"
    },
    {
      "inputs": [],
      "name": "ADMIN_ROLE",
      "outputs": [
        {
          "internalType": "bytes32",
          "name": "",
          "type": "bytes32"
        }
      ],
      "stateMutability": "view",
      "type": "function"
    },
    {
      "inputs": [],
      "name": "CONTRACT_TYPE",
      "outputs": [
        {
          "internalType": "string",
          "name": "",
          "type": "string"
        }
      ],
      "stateMutability": "view",
      "type": "function"
    },
    {
      "inputs": [],
      "name": "DEFAULT_ADMIN_ROLE",
      "outputs": [
        {
          "internalType": "bytes32",
          "name": "",
          "type": "bytes32"
        }
      ],
      "stateMutability": "view",
      "type": "function"
    },
    {
      "inputs": [],
      "name": "MAX_ADMIN",
      "outputs": [
        {
          "internalType": "uint256",
          "name": "",
          "type": "uint256"
        }
      ],
      "stateMutability": "view",
      "type": "function"
    },
    {
      "inputs": [],
      "name": "ONE_WEEK",
      "outputs": [
        {
          "internalType": "uint256",
          "name": "",
          "type": "uint256"
        }
      ],
      "stateMutability": "view",
      "type": "function"
    },
    {
      "inputs": [],
      "name": "OPERATOR_ROLE",
      "outputs": [
        {
          "internalType": "bytes32",
          "name": "",
          "type": "bytes32"
        }
      ],
      "stateMutability": "view",
      "type": "function"
    },
    {
      "inputs": [],
      "name": "STAKER_ROLE",
      "outputs": [
        {
          "internalType": "bytes32",
          "name": "",
          "type": "bytes32"
        }
      ],
      "stateMutability": "view",
      "type": "function"
    },
    {
      "inputs": [],
      "name": "STAKE_LOCKUP",
      "outputs": [
        {
          "internalType": "uint256",
          "name": "",
          "type": "uint256"
        }
      ],
      "stateMutability": "view",
      "type": "function"
    },
    {
      "inputs": [],
      "name": "UNSTAKING_APPROVER_ROLE",
      "outputs": [
        {
          "internalType": "bytes32",
          "name": "",
          "type": "bytes32"
        }
      ],
      "stateMutability": "view",
      "type": "function"
    },
    {
      "inputs": [],
      "name": "UNSTAKING_CLAIMER_ROLE",
      "outputs": [
        {
          "internalType": "bytes32",
          "name": "",
          "type": "bytes32"
        }
      ],
      "stateMutability": "view",
      "type": "function"
    },
    {
      "inputs": [],
      "name": "VERSION",
      "outputs": [
        {
          "internalType": "uint256",
          "name": "",
          "type": "uint256"
        }
      ],
      "stateMutability": "view",
      "type": "function"
    },
    {
      "inputs": [
        {
          "internalType": "address",
          "name": "_addr",
          "type": "address"
        }
      ],
      "name": "acceptRewardAddress",
      "outputs": [],
      "stateMutability": "nonpayable",
      "type": "function"
    },
    {
      "inputs": [
        {
          "internalType": "address",
          "name": "_admin",
          "type": "address"
        }
      ],
      "name": "addAdmin",
      "outputs": [],
      "stateMutability": "nonpayable",
      "type": "function"
    },
    {
      "inputs": [
        {
          "internalType": "uint256",
          "name": "_pos",
          "type": "uint256"
        }
      ],
      "name": "adminList",
      "outputs": [
        {
          "internalType": "address",
          "name": "",
          "type": "address"
        }
      ],
      "stateMutability": "view",
      "type": "function"
    },
    {
      "inputs": [
        {
          "internalType": "address",
          "name": "_to",
          "type": "address"
        },
        {
          "internalType": "uint256",
          "name": "_value",
          "type": "uint256"
        }
      ],
      "name": "approveStakingWithdrawal",
      "outputs": [
        {
          "internalType": "uint256",
          "name": "id",
          "type": "uint256"
        }
      ],
      "stateMutability": "nonpayable",
      "type": "function"
    },
    {
      "inputs": [
        {
          "internalType": "uint256",
          "name": "_id",
          "type": "uint256"
        }
      ],
      "name": "cancelApprovedStakingWithdrawal",
      "outputs": [],
      "stateMutability": "nonpayable",
      "type": "function"
    },
    {
      "inputs": [],
      "name": "clearRequest",
      "outputs": [],
      "stateMutability": "nonpayable",
      "type": "function"
    },
    {
      "inputs": [
        {
          "internalType": "uint256",
          "name": "_id",
          "type": "uint256"
        },
        {
          "internalType": "enum ICnStakingV3MultiSig.Functions",
          "name": "_functionId",
          "type": "uint8"
        },
        {
          "internalType": "bytes32",
          "name": "_firstArg",
          "type": "bytes32"
        },
        {
          "internalType": "bytes32",
          "name": "_secondArg",
          "type": "bytes32"
        },
        {
          "internalType": "bytes32",
          "name": "_thirdArg",
          "type": "bytes32"
        }
      ],
      "name": "confirmRequest",
      "outputs": [],
      "stateMutability": "nonpayable",
      "type": "function"
    },
    {
      "inputs": [],
      "name": "contractValidator",
      "outputs": [
        {
          "internalType": "address",
          "name": "",
          "type": "address"
        }
      ],
      "stateMutability": "view",
      "type": "function"
    },
    {
      "inputs": [],
      "name": "delegate",
      "outputs": [],
      "stateMutability": "payable",
      "type": "function"
    },
    {
      "inputs": [
        {
          "internalType": "address",
          "name": "_admin",
          "type": "address"
        }
      ],
      "name": "deleteAdmin",
      "outputs": [],
      "stateMutability": "nonpayable",
      "type": "function"
    },
    {
      "inputs": [],
      "name": "depositLockupStakingAndInit",
      "outputs": [],
      "stateMutability": "payable",
      "type": "function"
    },
    {
      "inputs": [],
      "name": "gcId",
      "outputs": [
        {
          "internalType": "uint256",
          "name": "",
          "type": "uint256"
        }
      ],
      "stateMutability": "view",
      "type": "function"
    },
    {
      "inputs": [
        {
          "internalType": "uint256",
          "name": "_from",
          "type": "uint256"
        },
        {
          "internalType": "uint256",
          "name": "_to",
          "type": "uint256"
        },
        {
          "internalType": "enum ICnStakingV3.WithdrawalStakingState",
          "name": "_state",
          "type": "uint8"
        }
      ],
      "name": "getApprovedStakingWithdrawalIds",
      "outputs": [
        {
          "internalType": "uint256[]",
          "name": "ids",
          "type": "uint256[]"
        }
      ],
      "stateMutability": "view",
      "type": "function"
    },
    {
      "inputs": [
        {
          "internalType": "uint256",
          "name": "_index",
          "type": "uint256"
        }
      ],
      "name": "getApprovedStakingWithdrawalInfo",
      "outputs": [
        {
          "internalType": "address",
          "name": "to",
          "type": "address"
        },
        {
          "internalType": "uint256",
          "name": "value",
          "type": "uint256"
        },
        {
          "internalType": "uint256",
          "name": "withdrawableFrom",
          "type": "uint256"
        },
        {
          "internalType": "enum ICnStakingV3.WithdrawalStakingState",
          "name": "state",
          "type": "uint8"
        }
      ],
      "stateMutability": "view",
      "type": "function"
    },
    {
      "inputs": [],
      "name": "getLockupStakingInfo",
      "outputs": [
        {
          "internalType": "uint256[]",
          "name": "unlockTime",
          "type": "uint256[]"
        },
        {
          "internalType": "uint256[]",
          "name": "unlockAmount",
          "type": "uint256[]"
        },
        {
          "internalType": "uint256",
          "name": "initial",
          "type": "uint256"
        },
        {
          "internalType": "uint256",
          "name": "remaining",
          "type": "uint256"
        },
        {
          "internalType": "uint256",
          "name": "withdrawable",
          "type": "uint256"
        }
      ],
      "stateMutability": "view",
      "type": "function"
    },
    {
      "inputs": [
        {
          "internalType": "uint256",
          "name": "_from",
          "type": "uint256"
        },
        {
          "internalType": "uint256",
          "name": "_to",
          "type": "uint256"
        },
        {
          "internalType": "enum ICnStakingV3MultiSig.RequestState",
          "name": "_state",
          "type": "uint8"
        }
      ],
      "name": "getRequestIds",
      "outputs": [
        {
          "internalType": "uint256[]",
          "name": "ids",
          "type": "uint256[]"
        }
      ],
      "stateMutability": "view",
      "type": "function"
    },
    {
      "inputs": [
        {
          "internalType": "uint256",
          "name": "_id",
          "type": "uint256"
        }
      ],
      "name": "getRequestInfo",
      "outputs": [
        {
          "internalType": "enum ICnStakingV3MultiSig.Functions",
          "name": "functionId",
          "type": "uint8"
        },
        {
          "internalType": "bytes32",
          "name": "firstArg",
          "type": "bytes32"
        },
        {
          "internalType": "bytes32",
          "name": "secondArg",
          "type": "bytes32"
        },
        {
          "internalType": "bytes32",
          "name": "thirdArg",
          "type": "bytes32"
        },
        {
          "internalType": "address",
          "name": "proposer",
          "type": "address"
        },
        {
          "internalType": "address[]",
          "name": "confirmers",
          "type": "address[]"
        },
        {
          "internalType": "enum ICnStakingV3MultiSig.RequestState",
          "name": "state",
          "type": "uint8"
        }
      ],
      "stateMutability": "view",
      "type": "function"
    },
    {
      "inputs": [
        {
          "internalType": "uint256",
          "name": "_id",
          "type": "uint256"
        }
      ],
      "name": "getRequestState",
      "outputs": [
        {
          "internalType": "enum ICnStakingV3MultiSig.RequestState",
          "name": "",
          "type": "uint8"
        }
      ],
      "stateMutability": "view",
      "type": "function"
    },
    {
      "inputs": [],
      "name": "getReviewers",
      "outputs": [
        {
          "internalType": "address[]",
          "name": "",
          "type": "address[]"
        }
      ],
      "stateMutability": "view",
      "type": "function"
    },
    {
      "inputs": [
        {
          "internalType": "bytes32",
          "name": "role",
          "type": "bytes32"
        }
      ],
      "name": "getRoleAdmin",
      "outputs": [
        {
          "internalType": "bytes32",
          "name": "",
          "type": "bytes32"
        }
      ],
      "stateMutability": "view",
      "type": "function"
    },
    {
      "inputs": [
        {
          "internalType": "bytes32",
          "name": "role",
          "type": "bytes32"
        },
        {
          "internalType": "uint256",
          "name": "index",
          "type": "uint256"
        }
      ],
      "name": "getRoleMember",
      "outputs": [
        {
          "internalType": "address",
          "name": "",
          "type": "address"
        }
      ],
      "stateMutability": "view",
      "type": "function"
    },
    {
      "inputs": [
        {
          "internalType": "bytes32",
          "name": "role",
          "type": "bytes32"
        }
      ],
      "name": "getRoleMemberCount",
      "outputs": [
        {
          "internalType": "uint256",
          "name": "",
          "type": "uint256"
        }
      ],
      "stateMutability": "view",
      "type": "function"
    },
    {
      "inputs": [],
      "name": "getState",
      "outputs": [
        {
          "internalType": "address",
          "name": "_contractValidator",
          "type": "address"
        },
        {
          "internalType": "address",
          "name": "_nodeId",
          "type": "address"
        },
        {
          "internalType": "address",
          "name": "_rewardAddress",
          "type": "address"
        },
        {
          "internalType": "address[]",
          "name": "_adminListArr",
          "type": "address[]"
        },
        {
          "internalType": "uint256",
          "name": "_requirement",
          "type": "uint256"
        },
        {
          "internalType": "uint256[]",
          "name": "_unlockTime",
          "type": "uint256[]"
        },
        {
          "internalType": "uint256[]",
          "name": "_unlockAmount",
          "type": "uint256[]"
        },
        {
          "internalType": "bool",
          "name": "_allReviewed",
          "type": "bool"
        },
        {
          "internalType": "bool",
          "name": "_isInitialized",
          "type": "bool"
        }
      ],
      "stateMutability": "view",
      "type": "function"
    },
    {
      "inputs": [
        {
          "internalType": "bytes32",
          "name": "role",
          "type": "bytes32"
        },
        {
          "internalType": "address",
          "name": "account",
          "type": "address"
        }
      ],
      "name": "grantRole",
      "outputs": [],
      "stateMutability": "nonpayable",
      "type": "function"
    },
    {
      "inputs": [
        {
          "internalType": "address",
          "name": "_user",
          "type": "address"
        }
      ],
      "name": "handleRedelegation",
      "outputs": [],
      "stateMutability": "payable",
      "type": "function"
    },
    {
      "inputs": [
        {
          "internalType": "bytes32",
          "name": "role",
          "type": "bytes32"
        },
        {
          "internalType": "address",
          "name": "account",
          "type": "address"
        }
      ],
      "name": "hasRole",
      "outputs": [
        {
          "internalType": "bool",
          "name": "",
          "type": "bool"
        }
      ],
      "stateMutability": "view",
      "type": "function"
    },
    {
      "inputs": [],
      "name": "initialLockupStaking",
      "outputs": [
        {
          "internalType": "uint256",
          "name": "",
          "type": "uint256"
        }
      ],
      "stateMutability": "view",
      "type": "function"
    },
    {
      "inputs": [
        {
          "internalType": "address",
          "name": "_admin",
          "type": "address"
        }
      ],
      "name": "isAdmin",
      "outputs": [
        {
          "internalType": "bool",
          "name": "",
          "type": "bool"
        }
      ],
      "stateMutability": "view",
      "type": "function"
    },
    {
      "inputs": [],
      "name": "isInitialized",
      "outputs": [
        {
          "internalType": "bool",
          "name": "",
          "type": "bool"
        }
      ],
      "stateMutability": "view",
      "type": "function"
    },
    {
      "inputs": [],
      "name": "isPublicDelegationEnabled",
      "outputs": [
        {
          "internalType": "bool",
          "name": "",
          "type": "bool"
        }
      ],
      "stateMutability": "view",
      "type": "function"
    },
    {
      "inputs": [],
      "name": "isRedelegationEnabled",
      "outputs": [
        {
          "internalType": "bool",
          "name": "",
          "type": "bool"
        }
      ],
      "stateMutability": "view",
      "type": "function"
    },
    {
      "inputs": [],
      "name": "lastClearedId",
      "outputs": [
        {
          "internalType": "uint256",
          "name": "",
          "type": "uint256"
        }
      ],
      "stateMutability": "view",
      "type": "function"
    },
    {
      "inputs": [
        {
          "internalType": "address",
          "name": "",
          "type": "address"
        }
      ],
      "name": "lastRedelegation",
      "outputs": [
        {
          "internalType": "uint256",
          "name": "",
          "type": "uint256"
        }
      ],
      "stateMutability": "view",
      "type": "function"
    },
    {
      "inputs": [],
      "name": "lockupConditions",
      "outputs": [
        {
          "internalType": "bool",
          "name": "allReviewed",
          "type": "bool"
        },
        {
          "internalType": "uint256",
          "name": "reviewedCount",
          "type": "uint256"
        }
      ],
      "stateMutability": "view",
      "type": "function"
    },
    {
      "inputs": [],
      "name": "nodeId",
      "outputs": [
        {
          "internalType": "address",
          "name": "",
          "type": "address"
        }
      ],
      "stateMutability": "view",
      "type": "function"
    },
    {
      "inputs": [],
      "name": "pendingRewardAddress",
      "outputs": [
        {
          "internalType": "address",
          "name": "",
          "type": "address"
        }
      ],
      "stateMutability": "view",
      "type": "function"
    },
    {
      "inputs": [],
      "name": "publicDelegation",
      "outputs": [
        {
          "internalType": "address",
          "name": "",
          "type": "address"
        }
      ],
      "stateMutability": "view",
      "type": "function"
    },
    {
      "inputs": [
        {
          "internalType": "address",
          "name": "_user",
          "type": "address"
        },
        {
          "internalType": "address",
          "name": "_targetCnV3",
          "type": "address"
        },
        {
          "internalType": "uint256",
          "name": "_value",
          "type": "uint256"
        }
      ],
      "name": "redelegate",
      "outputs": [],
      "stateMutability": "nonpayable",
      "type": "function"
    },
    {
      "inputs": [],
      "name": "remainingLockupStaking",
      "outputs": [
        {
          "internalType": "uint256",
          "name": "",
          "type": "uint256"
        }
      ],
      "stateMutability": "view",
      "type": "function"
    },
    {
      "inputs": [
        {
          "internalType": "bytes32",
          "name": "role",
          "type": "bytes32"
        },
        {
          "internalType": "address",
          "name": "callerConfirmation",
          "type": "address"
        }
      ],
      "name": "renounceRole",
      "outputs": [],
      "stateMutability": "nonpayable",
      "type": "function"
    },
    {
      "inputs": [],
      "name": "requestCount",
      "outputs": [
        {
          "internalType": "uint256",
          "name": "",
          "type": "uint256"
        }
      ],
      "stateMutability": "view",
      "type": "function"
    },
    {
      "inputs": [],
      "name": "requirement",
      "outputs": [
        {
          "internalType": "uint256",
          "name": "",
          "type": "uint256"
        }
      ],
      "stateMutability": "view",
      "type": "function"
    },
    {
      "inputs": [],
      "name": "reviewInitialConditions",
      "outputs": [],
      "stateMutability": "nonpayable",
      "type": "function"
    },
    {
      "inputs": [
        {
          "internalType": "uint256",
          "name": "_id",
          "type": "uint256"
        },
        {
          "internalType": "enum ICnStakingV3MultiSig.Functions",
          "name": "_functionId",
          "type": "uint8"
        },
        {
          "internalType": "bytes32",
          "name": "_firstArg",
          "type": "bytes32"
        },
        {
          "internalType": "bytes32",
          "name": "_secondArg",
          "type": "bytes32"
        },
        {
          "internalType": "bytes32",
          "name": "_thirdArg",
          "type": "bytes32"
        }
      ],
      "name": "revokeConfirmation",
      "outputs": [],
      "stateMutability": "nonpayable",
      "type": "function"
    },
    {
      "inputs": [
        {
          "internalType": "bytes32",
          "name": "role",
          "type": "bytes32"
        },
        {
          "internalType": "address",
          "name": "account",
          "type": "address"
        }
      ],
      "name": "revokeRole",
      "outputs": [],
      "stateMutability": "nonpayable",
      "type": "function"
    },
    {
      "inputs": [],
      "name": "rewardAddress",
      "outputs": [
        {
          "internalType": "address",
          "name": "",
          "type": "address"
        }
      ],
      "stateMutability": "view",
      "type": "function"
    },
    {
      "inputs": [
        {
          "internalType": "uint256",
          "name": "_gcId",
          "type": "uint256"
        }
      ],
      "name": "setGCId",
      "outputs": [],
      "stateMutability": "nonpayable",
      "type": "function"
    },
    {
      "inputs": [
        {
          "internalType": "address",
          "name": "_pdFactory",
          "type": "address"
        },
        {
          "internalType": "bytes",
          "name": "_pdArgs",
          "type": "bytes"
        }
      ],
      "name": "setPublicDelegation",
      "outputs": [],
      "stateMutability": "nonpayable",
      "type": "function"
    },
    {
      "inputs": [
        {
          "internalType": "address",
          "name": "_tracker",
          "type": "address"
        }
      ],
      "name": "setStakingTracker",
      "outputs": [],
      "stateMutability": "nonpayable",
      "type": "function"
    },
    {
      "inputs": [],
      "name": "staking",
      "outputs": [
        {
          "internalType": "uint256",
          "name": "",
          "type": "uint256"
        }
      ],
      "stateMutability": "view",
      "type": "function"
    },
    {
      "inputs": [],
      "name": "stakingTracker",
      "outputs": [
        {
          "internalType": "address",
          "name": "",
          "type": "address"
        }
      ],
      "stateMutability": "view",
      "type": "function"
    },
    {
      "inputs": [
        {
          "internalType": "address",
          "name": "_admin",
          "type": "address"
        }
      ],
      "name": "submitAddAdmin",
      "outputs": [],
      "stateMutability": "nonpayable",
      "type": "function"
    },
    {
      "inputs": [
        {
          "internalType": "address",
          "name": "_to",
          "type": "address"
        },
        {
          "internalType": "uint256",
          "name": "_value",
          "type": "uint256"
        }
      ],
      "name": "submitApproveStakingWithdrawal",
      "outputs": [],
      "stateMutability": "nonpayable",
      "type": "function"
    },
    {
      "inputs": [
        {
          "internalType": "uint256",
          "name": "_id",
          "type": "uint256"
        }
      ],
      "name": "submitCancelApprovedStakingWithdrawal",
      "outputs": [],
      "stateMutability": "nonpayable",
      "type": "function"
    },
    {
      "inputs": [],
      "name": "submitClearRequest",
      "outputs": [],
      "stateMutability": "nonpayable",
      "type": "function"
    },
    {
      "inputs": [
        {
          "internalType": "address",
          "name": "_admin",
          "type": "address"
        }
      ],
      "name": "submitDeleteAdmin",
      "outputs": [],
      "stateMutability": "nonpayable",
      "type": "function"
    },
    {
      "inputs": [],
      "name": "submitToggleRedelegation",
      "outputs": [],
      "stateMutability": "nonpayable",
      "type": "function"
    },
    {
      "inputs": [
        {
          "internalType": "uint256",
          "name": "_requirement",
          "type": "uint256"
        }
      ],
      "name": "submitUpdateRequirement",
      "outputs": [],
      "stateMutability": "nonpayable",
      "type": "function"
    },
    {
      "inputs": [
        {
          "internalType": "address",
          "name": "_addr",
          "type": "address"
        }
      ],
      "name": "submitUpdateRewardAddress",
      "outputs": [],
      "stateMutability": "nonpayable",
      "type": "function"
    },
    {
      "inputs": [
        {
          "internalType": "address",
          "name": "_tracker",
          "type": "address"
        }
      ],
      "name": "submitUpdateStakingTracker",
      "outputs": [],
      "stateMutability": "nonpayable",
      "type": "function"
    },
    {
      "inputs": [
        {
          "internalType": "address",
          "name": "_addr",
          "type": "address"
        }
      ],
      "name": "submitUpdateVoterAddress",
      "outputs": [],
      "stateMutability": "nonpayable",
      "type": "function"
    },
    {
      "inputs": [
        {
          "internalType": "address payable",
          "name": "_to",
          "type": "address"
        },
        {
          "internalType": "uint256",
          "name": "_value",
          "type": "uint256"
        }
      ],
      "name": "submitWithdrawLockupStaking",
      "outputs": [],
      "stateMutability": "nonpayable",
      "type": "function"
    },
    {
      "inputs": [
        {
          "internalType": "bytes4",
          "name": "interfaceId",
          "type": "bytes4"
        }
      ],
      "name": "supportsInterface",
      "outputs": [
        {
          "internalType": "bool",
          "name": "",
          "type": "bool"
        }
      ],
      "stateMutability": "view",
      "type": "function"
    },
    {
      "inputs": [],
      "name": "toggleRedelegation",
      "outputs": [],
      "stateMutability": "nonpayable",
      "type": "function"
    },
    {
      "inputs": [],
      "name": "unstaking",
      "outputs": [
        {
          "internalType": "uint256",
          "name": "",
          "type": "uint256"
        }
      ],
      "stateMutability": "view",
      "type": "function"
    },
    {
      "inputs": [
        {
          "internalType": "uint256",
          "name": "_requirement",
          "type": "uint256"
        }
      ],
      "name": "updateRequirement",
      "outputs": [],
      "stateMutability": "nonpayable",
      "type": "function"
    },
    {
      "inputs": [
        {
          "internalType": "address",
          "name": "_addr",
          "type": "address"
        }
      ],
      "name": "updateRewardAddress",
      "outputs": [],
      "stateMutability": "nonpayable",
      "type": "function"
    },
    {
      "inputs": [
        {
          "internalType": "address",
          "name": "_tracker",
          "type": "address"
        }
      ],
      "name": "updateStakingTracker",
      "outputs": [],
      "stateMutability": "nonpayable",
      "type": "function"
    },
    {
      "inputs": [
        {
          "internalType": "address",
          "name": "_addr",
          "type": "address"
        }
      ],
      "name": "updateVoterAddress",
      "outputs": [],
      "stateMutability": "nonpayable",
      "type": "function"
    },
    {
      "inputs": [],
      "name": "voterAddress",
      "outputs": [
        {
          "internalType": "address",
          "name": "",
          "type": "address"
        }
      ],
      "stateMutability": "view",
      "type": "function"
    },
    {
      "inputs": [
        {
          "internalType": "uint256",
          "name": "_id",
          "type": "uint256"
        }
      ],
      "name": "withdrawApprovedStaking",
      "outputs": [],
      "stateMutability": "nonpayable",
      "type": "function"
    },
    {
      "inputs": [
        {
          "internalType": "address payable",
          "name": "_to",
          "type": "address"
        },
        {
          "internalType": "uint256",
          "name": "_value",
          "type": "uint256"
        }
      ],
      "name": "withdrawLockupStaking",
      "outputs": [],
      "stateMutability": "nonpayable",
      "type": "function"
    },
    {
      "inputs": [],
      "name": "withdrawalRequestCount",
      "outputs": [
        {
          "internalType": "uint256",
          "name": "",
          "type": "uint256"
        }
      ],
      "stateMutability": "view",
      "type": "function"
    },
    {
      "inputs": [
        {
          "internalType": "uint256",
          "name": "",
          "type": "uint256"
        }
      ],
      "name": "withdrawalRequestMap",
      "outputs": [
        {
          "internalType": "address",
          "name": "to",
          "type": "address"
        },
        {
          "internalType": "uint256",
          "name": "value",
          "type": "uint256"
        },
        {
          "internalType": "uint256",
          "name": "withdrawableFrom",
          "type": "uint256"
        },
        {
          "internalType": "enum ICnStakingV3.WithdrawalStakingState",
          "name": "state",
          "type": "uint8"
        }
      ],
      "stateMutability": "view",
      "type": "function"
    },
    {
      "stateMutability": "payable",
      "type": "receive"
    }
  ],
  "bytecode": "0x60c060405234801561001057600080fd5b50604051616a42380380616a4283398101604081905261002f91610c34565b30868684848361003e8161050a565b610049848484610556565b6100737f97667070c54ef182b0f5858b034beac1b6f3089aa2d3188bb1e8929f4fa9b92987610736565b5061008c600080516020616a2283398151915287610736565b506001600160a01b0384161560a05282516100ae90600b906020860190610ae0565b5081516100c290600c906020850190610ae0565b506001600160a01b03858116608052600980546001600160a01b031916918616919091179055604080518082018252601181527010db94dd185ada5b99d0dbdb9d1c9858dd607a1b602082015290517f8ceb5a03da525381440f64ae9f54fa4cb32a6299f0521f5261edd8839a0f326591610144918890889088908890610dd9565b60405180910390a1505050505050866101628161050a60201b60201c565b84518461016f828261076e565b600060208190527fada5013122d395ba3c54772283fb069b10426056ef8ca54750cb9bb552a59e7d805463ffffffff199081166370480275179091557fabbb5caa7dda850e60932de0934eb1f9d0f59695050f761dc64e443e5030a569805482166327e1f7df1790557f101e368776582e57ab3d116ffe2517c0a585cd5b23174b01e275c2d8329c3d838054821663c47afb3a1790557f52d75039926638d3c558b2bdefb945d5be8dae29dedd1c313212a4d472d9fde580548216634f97638f1790557f2b232c97452f0950c94e2539fdc7e69d21166113cf7a9bcb99b220a3fe5d720a8054821663505ebed41790557f62103cf3131c85df57aad364d21cba02556d3092d6cb54c298c2e7726a7870bd80548216635df8b09a1790557f870253054e3d98b71abec8fff9ebf8a15d167f15909091a800d4acaab9266d2b8054821663c804b1151790557f5b8b9143058ba3a137192c563ca6541845e62f0a2f9a667aac4db2fa3c334e3c8054821663944dd5a21790557f324fdf7bfe7bd2828491073f0b7868a9a19ee3eff384c2805040be3e426447f580548216635be6eacc1790557f3e9abaca0aad9ede81f4474766c846d8539f70688e1c8f521bbe1597874e3dc480548216635784d18b179055600b9091527f9115655cbcdb654012cf1b2f7e5dbf11c9ef14e152a19d5f8ea75a329092d5a6805490911663d75859ec17905561038b600080516020616a22833981519152306107e5565b506103a4600080516020616a228339815191528b610736565b5060005b87518110156104785760006001600160a01b03168882815181106103ce576103ce610e35565b60200260200101516001600160a01b03161415801561041f575061041f600080516020616a2283398151915289838151811061040c5761040c610e35565b602002602001015161073660201b60201c565b6104705760405162461bcd60e51b815260206004820152601e60248201527f41646472657373206973206e756c6c206f72206e6f7420756e697175652e000060448201526064015b60405180910390fd5b6001016103a8565b50600180546001600160a01b0319166001600160a01b038c161790556002869055604080518082018252601181527010db94dd185ada5b99d0dbdb9d1c9858dd607a1b602082015290517f66f82b55f642c6d1ad96892e17a269b2f7f5e3ec3d46acf2a9d239b43fe035e3916104f3918d908b908b90610e4b565b60405180910390a150505050505050505050610ef9565b6001600160a01b0381166105535760405162461bcd60e51b815260206004820152601060248201526f20b2323932b9b99034b990373ab6361760811b6044820152606401610467565b50565b6001600160a01b0383166105c357815115801561057257508051155b6105be5760405162461bcd60e51b815260206004820152601860248201527f496e697469616c206c6f636b75702064697361626c65642e00000000000000006044820152606401610467565b505050565b80518251146106145760405162461bcd60e51b815260206004820152601b60248201527f496e76616c696420696e697469616c20636f6e646974696f6e732e00000000006044820152606401610467565b8151156105be574260005b825181101561072f5783818151811061063a5761063a610e35565b6020026020010151821061069f5760405162461bcd60e51b815260206004820152602660248201527f556e6c6f636b2074696d65206973206e6f7420696e20617363656e64696e672060448201526537b93232b91760d11b6064820152608401610467565b60008382815181106106b3576106b3610e35565b6020026020010151116107085760405162461bcd60e51b815260206004820152601e60248201527f416d6f756e74206973206e6f7420706f736974697665206e756d6265722e00006044820152606401610467565b83818151811061071a5761071a610e35565b6020908102919091010151915060010161061f565b5050505050565b6000806107438484610812565b90508015610765576000848152601a6020526040902061076390846108a6565b505b90505b92915050565b6032821115801561077f5750818111155b801561078a57508015155b801561079557508115155b6107e15760405162461bcd60e51b815260206004820152601460248201527f496e76616c696420726571756972656d656e742e0000000000000000000000006044820152606401610467565b5050565b6000806107f284846108bb565b90508015610765576000848152601a602052604090206107639084610928565b600061081e838361093d565b61089e5760008381526019602090815260408083206001600160a01b03861684529091529020805460ff191660011790556108563390565b6001600160a01b0316826001600160a01b0316847f2f8788117e7eff1d82e926ec794901d17c78024a50270940304540a733656f0d60405160405180910390a4506001610768565b506000610768565b6000610765836001600160a01b0384166109a6565b60006108c7838361093d565b1561089e5760008381526019602090815260408083206001600160a01b0386168085529252808320805460ff1916905551339286917ff6391f5c32d9c69d2a47ea670b442974b53935d1edc7fd64eb21e047a839171b9190a4506001610768565b6000610765836001600160a01b0384166109ed565b600060a05115801561096e57507fb9e206fa2af7ee1331b72ce58b6d938ac810ce9b5cdb65d35ab723fd67badf9e83145b1561097b57506001610768565b60008381526019602090815260408083206001600160a01b038616845290915290205460ff16610765565b600081815260018301602052604081205461089e57508154600181810184556000848152602080822090930184905584548482528286019093526040902091909155610768565b60008181526001830160205260408120548015610ad6576000610a11600183610ec2565b8554909150600090610a2590600190610ec2565b9050808214610a8a576000866000018281548110610a4557610a45610e35565b9060005260206000200154905080876000018481548110610a6857610a68610e35565b6000918252602080832090910192909255918252600188019052604090208390555b8554869080610a9b57610a9b610ee3565b600190038181906000526020600020016000905590558560010160008681526020019081526020016000206000905560019350505050610768565b6000915050610768565b828054828255906000526020600020908101928215610b1b579160200282015b82811115610b1b578251825591602001919060010190610b00565b50610b27929150610b2b565b5090565b5b80821115610b275760008155600101610b2c565b80516001600160a01b0381168114610b5757600080fd5b919050565b634e487b7160e01b600052604160045260246000fd5b604051601f8201601f191681016001600160401b0381118282101715610b9a57610b9a610b5c565b604052919050565b60006001600160401b03821115610bbb57610bbb610b5c565b5060051b60200190565b600082601f830112610bd657600080fd5b81516020610beb610be683610ba2565b610b72565b8083825260208201915060208460051b870101935086841115610c0d57600080fd5b602086015b84811015610c295780518352918301918301610c12565b509695505050505050565b600080600080600080600060e0888a031215610c4f57600080fd5b610c5888610b40565b96506020610c67818a01610b40565b9650610c7560408a01610b40565b60608a01519096506001600160401b0380821115610c9257600080fd5b818b0191508b601f830112610ca657600080fd5b8151610cb4610be682610ba2565b81815260059190911b8301840190848101908e831115610cd357600080fd5b938501935b82851015610cf857610ce985610b40565b82529385019390850190610cd8565b60808e015160a08f0151919a5098509450505080831115610d1857600080fd5b610d248c848d01610bc5565b945060c08b0151925080831115610d3a57600080fd5b5050610d488a828b01610bc5565b91505092959891949750929550565b6000815180845260005b81811015610d7d57602081850181015186830182015201610d61565b506000602082860101526020601f19601f83011685010191505092915050565b60008151808452602080850194506020840160005b83811015610dce57815187529582019590820190600101610db2565b509495945050505050565b60a081526000610dec60a0830188610d57565b6001600160a01b038781166020850152861660408401528281036060840152610e158186610d9d565b90508281036080840152610e298185610d9d565b98975050505050505050565b634e487b7160e01b600052603260045260246000fd5b608081526000610e5e6080830187610d57565b6001600160a01b03868116602085810191909152848303604086015286518084528782019391929183019060005b81811015610eaa578551841683529484019491840191600101610e8c565b50508094505050505082606083015295945050505050565b8181038181111561076857634e487b7160e01b600052601160045260246000fd5b634e487b7160e01b600052603160045260246000fd5b60805160a051615aa2610f8060003960008181610e2001528181611155015281816111de0152818161194c01528181611a1101528181611be401528181612d8f01528181612f4f0152818161318b0152818161321601528181613a93015281816144e70152818161450f0152614ca701526000818161069601526117b30152615aa26000f3fe6080604052600436106104b85760003560e01c8063702b9c9b1161026b578063a006e90c1161014f578063d2569eb9116100c1578063e7abb98d11610085578063e7abb98d14610f5f578063ed979dd614610f75578063f2f2f49b14610fa2578063f5b541a614610fb8578063ff4634bc14610fda578063ffa1ad7414610ffa57600080fd5b8063d2569eb914610eca578063d547741f14610eea578063d75859ec14610f0a578063e1a12d3514610f1f578063e748357b14610f3f57600080fd5b8063bfc7e94811610113578063bfc7e94814610e0e578063c336aa3514610e42578063c47afb3a14610e62578063c804b11514610e82578063c89e436114610ea2578063ca15c87314610eaa57600080fd5b8063a006e90c14610d90578063a217fddf14610da3578063aa4058b914610db8578063b756393014610dd8578063b756e6ff14610dee57600080fd5b8063863f5c0a116101e85780639010d07c116101ac5780639010d07c14610cd957806391d1485414610cf9578063944dd5a214610d1957806396106ae414610d39578063992ac9fa14610d4e5780639c394c5d14610d6e57600080fd5b8063863f5c0a14610c4d5780638740568b14610c6d57806387cd9feb14610c8d5780638cf57cb914610ca25780638e6f6b7714610cc257600080fd5b80637818097c1161022f5780637818097c14610bbd578063791b512314610bdd5780637a5db06814610bfd5780637a66c96b14610c1d5780637b5e048114610c3757600080fd5b8063702b9c9b14610af45780637048027514610b09578063725c050314610b2957806375a8764314610b7957806375b238fc14610b9b57600080fd5b80632f2ff15d1161039d5780635784d18b1161030f5780635ecd75f2116102d35780635ecd75f214610a5a578063630b114614610a805780636a27c20614610a965780636bd8f80414610a9e5780636d2714db14610abe5780636e93df0d14610ad457600080fd5b80635784d18b146109cf57806358d65880146109ef5780635badbe4c14610a045780635be6eacc14610a1a5780635df8b09a14610a3a57600080fd5b80633b2d2aca116103615780633b2d2aca146108fa5780634b6a94cc1461091a5780634b8bc6f8146109645780634cf088d9146109845780634f97638f1461099a578063505ebed4146109af57600080fd5b80632f2ff15d146108695780632f890b1d1461088957806336568abe1461089e5780633780b3ed146108be578063392e53cd146108e057600080fd5b8063139d7fed116104365780632429f8a9116103fa5780632429f8a914610745578063248a9ca31461077a57806324d7806c146107aa57806327e1f7df146107ca578063284fbedc146107ea5780632e5dc0f71461084957600080fd5b8063139d7fed1461068457806314d3ce10146106b8578063164990f8146106e55780631865c57d1461070557806319e44e321461072f57600080fd5b80630b8160451161047d5780630b816045146105c25780630c07d842146105f55780630df5975c146106175780630fd440ec1461063757806311117fc81461066457600080fd5b80628c477a146104ec57806301ffc9a71461052e578063067042221461055e578063069135af1461058257806306b35d31146105a257600080fd5b366104e7576104c561100f565b6000805160206159ed8339815191526104dd81611068565b6104e5611075565b005b600080fd5b3480156104f857600080fd5b506017546105119061010090046001600160a01b031681565b6040516001600160a01b0390911681526020015b60405180910390f35b34801561053a57600080fd5b5061054e610549366004614ddd565b6110fe565b6040519015158152602001610525565b34801561056a57600080fd5b5061057460105481565b604051908152602001610525565b34801561058e57600080fd5b506104e561059d366004614e1c565b611129565b3480156105ae57600080fd5b506104e56105bd366004614e39565b6111bc565b3480156105ce57600080fd5b506105e26105dd366004614e39565b611296565b6040516105259796959493929190614ed1565b34801561060157600080fd5b50610574600080516020615a2d83398151915281565b34801561062357600080fd5b506104e5610632366004614e1c565b61130f565b34801561064357600080fd5b50610657610652366004614f2c565b611495565b6040516105259190614f9a565b34801561067057600080fd5b5061051161067f366004614e39565b61157c565b34801561069057600080fd5b506105117f000000000000000000000000000000000000000000000000000000000000000081565b3480156106c457600080fd5b506105746106d3366004614e1c565b60086020526000908152604090205481565b3480156106f157600080fd5b506104e5610700366004614fad565b611596565b34801561071157600080fd5b5061071a61178b565b60405161052599989796959493929190614ff9565b34801561073b57600080fd5b5061057460155481565b34801561075157600080fd5b50600d54600e546107639160ff169082565b604080519215158352602083019190915201610525565b34801561078657600080fd5b50610574610795366004614e39565b60009081526019602052604090206001015490565b3480156107b657600080fd5b5061054e6107c5366004614e1c565b6118b4565b3480156107d657600080fd5b506104e56107e5366004614e1c565b6118ce565b3480156107f657600080fd5b50610839610805366004614e39565b60166020526000908152604090208054600182015460028301546003909301546001600160a01b0390921692909160ff1684565b604051610525949392919061507b565b34801561085557600080fd5b506104e5610864366004615127565b6119e5565b34801561087557600080fd5b506104e56108843660046151ba565b611b9d565b34801561089557600080fd5b506104e5611bc2565b3480156108aa57600080fd5b506104e56108b93660046151ba565b611c3d565b3480156108ca57600080fd5b506105746000805160206159ed83398151915281565b3480156108ec57600080fd5b5060125461054e9060ff1681565b34801561090657600080fd5b506104e5610915366004614fad565b611c70565b34801561092657600080fd5b506109576040518060400160405280601181526020017010db94dd185ada5b99d0dbdb9d1c9858dd607a1b81525081565b604051610525919061523a565b34801561097057600080fd5b506104e561097f36600461524d565b611de0565b34801561099057600080fd5b5061057460135481565b3480156109a657600080fd5b506104e5611e72565b3480156109bb57600080fd5b506104e56109ca36600461524d565b611ebc565b3480156109db57600080fd5b506104e56109ea366004614e1c565b61203a565b3480156109fb57600080fd5b50610574603281565b348015610a1057600080fd5b5061057460045481565b348015610a2657600080fd5b506104e5610a35366004614e1c565b6121e1565b348015610a4657600080fd5b50610574610a5536600461524d565b61238c565b348015610a6657600080fd5b50610a6f6124ec565b604051610525959493929190615279565b348015610a8c57600080fd5b5061057460145481565b6104e561262f565b348015610aaa57600080fd5b506104e5610ab93660046152bc565b612675565b348015610aca57600080fd5b5061057460065481565b348015610ae057600080fd5b506104e5610aef366004614e39565b612922565b348015610b0057600080fd5b506104e5612be4565b348015610b1557600080fd5b506104e5610b24366004614e1c565b612d12565b348015610b3557600080fd5b50610839610b44366004614e39565b60009081526016602052604090208054600182015460028301546003909301546001600160a01b039092169390929160ff1690565b348015610b8557600080fd5b50610b8e612e28565b60405161052591906152fd565b348015610ba757600080fd5b50610574600080516020615a0d83398151915281565b348015610bc957600080fd5b506104e5610bd836600461524d565b612f23565b348015610be957600080fd5b506104e5610bf8366004614e1c565b612ff1565b348015610c0957600080fd5b50600154610511906001600160a01b031681565b348015610c2957600080fd5b5060175461054e9060ff1681565b348015610c4357600080fd5b5061057460115481565b348015610c5957600080fd5b506104e5610c68366004614e1c565b613095565b348015610c7957600080fd5b50600a54610511906001600160a01b031681565b348015610c9957600080fd5b506104e5613139565b348015610cae57600080fd5b50600954610511906001600160a01b031681565b348015610cce57600080fd5b5061057462093a8081565b348015610ce557600080fd5b50610511610cf4366004615310565b613168565b348015610d0557600080fd5b5061054e610d143660046151ba565b613187565b348015610d2557600080fd5b506104e5610d34366004614e1c565b6131fc565b348015610d4557600080fd5b50610574600181565b348015610d5a57600080fd5b50601854610511906001600160a01b031681565b348015610d7a57600080fd5b50610574600080516020615a4d83398151915281565b6104e5610d9e366004614e1c565b61329d565b348015610daf57600080fd5b50610574600081565b348015610dc457600080fd5b506104e5610dd3366004614e1c565b6134c3565b348015610de457600080fd5b5061057460025481565b348015610dfa57600080fd5b506104e5610e09366004614e1c565b61364b565b348015610e1a57600080fd5b5061054e7f000000000000000000000000000000000000000000000000000000000000000081565b348015610e4e57600080fd5b506104e5610e5d366004614e1c565b613765565b348015610e6e57600080fd5b506104e5610e7d366004614e39565b6137b5565b348015610e8e57600080fd5b506104e5610e9d366004614e39565b613835565b6104e561392d565b348015610eb657600080fd5b50610574610ec5366004614e39565b613955565b348015610ed657600080fd5b50610657610ee5366004615332565b61396c565b348015610ef657600080fd5b506104e5610f053660046151ba565b613a54565b348015610f1657600080fd5b506104e5613a79565b348015610f2b57600080fd5b50600754610511906001600160a01b031681565b348015610f4b57600080fd5b506104e5610f5a366004614e39565b613b1c565b348015610f6b57600080fd5b5061057460035481565b348015610f8157600080fd5b50610f95610f90366004614e39565b613b8e565b6040516105259190615364565b348015610fae57600080fd5b5061051161040081565b348015610fc457600080fd5b506105746000805160206159cd83398151915281565b348015610fe657600080fd5b506104e5610ff5366004614e39565b613bff565b34801561100657600080fd5b50610574600381565b60125460ff166110665760405162461bcd60e51b815260206004820152601c60248201527f436f6e7472616374206973206e6f7420696e697469616c697a65642e0000000060448201526064015b60405180910390fd5b565b6110728133613c9b565b50565b600034116110b75760405162461bcd60e51b815260206004820152600f60248201526e24b73b30b634b21030b6b7bab73a1760891b604482015260640161105d565b60138054340190556110c7613cd4565b60405134815233907f8ecbcbd560048c1f474847748189e8c43f1fdee737fbd34523b04b5a9bbdffaa9060200160405180910390a2565b60006001600160e01b03198216635a05180f60e01b1480611123575061112382613dbd565b92915050565b61113161100f565b600080516020615a0d83398151915261114981611068565b8161115381613df2565b7f0000000000000000000000000000000000000000000000000000000000000000156111915760405162461bcd60e51b815260040161105d90615372565b60006111ab60086001600160a01b0386165b600080613e3b565b90506111b681613f02565b50505050565b6111c461100f565b600080516020615a0d8339815191526111dc81611068565b7f00000000000000000000000000000000000000000000000000000000000000001561121a5760405162461bcd60e51b815260040161105d90615372565b600082815260166020526040902080546001600160a01b031661124f5760405162461bcd60e51b815260040161105d906153a9565b6000600382015460ff16600281111561126a5761126a614e52565b146112875760405162461bcd60e51b815260040161105d906153eb565b60006111ab6007858380613e3b565b600081815260056020819052604082208054600182015460028301546003840154600485015487968796879687966060968896939560ff909316949193909290916001600160a01b03909116906112ee908701613f32565b6112f78f613b8e565b959f949e50929c50909a509850965090945092505050565b61131761100f565b600080516020615a0d83398151915261132f81611068565b6113436001600160a01b0383166001613f3f565b61135f5760405162461bcd60e51b815260040161105d90615413565b60175461010090046001600160a01b03161561146f57601754604051635605a4e560e01b81523060048201526101009091046001600160a01b031690635605a4e590602401600060405180830381600087803b1580156113be57600080fd5b505af11580156113d2573d6000803e3d6000fd5b50505050601760019054906101000a90046001600160a01b03166001600160a01b031663d4377d4d6040518163ffffffff1660e01b8152600401600060405180830381865afa158015611429573d6000803e3d6000fd5b505050506040513d6000823e601f3d908101601f19168201604052611451919081019061546e565b511561146f5760405162461bcd60e51b815260040161105d906154ff565b600061148560096001600160a01b0385166111a3565b905061149081613f02565b505050565b606060008315806114a857506004548410155b6114b257836114b6565b6004545b90506114c2858261556b565b67ffffffffffffffff8111156114da576114da6150b8565b604051908082528060200260200182016040528015611503578160200160208202803683370190505b5091506000855b828110156115715784600481111561152457611524614e52565b61152d82613b8e565b600481111561153e5761153e614e52565b03611569578084838060010194508151811061155c5761155c61557e565b6020026020010181815250505b60010161150a565b508252509392505050565b6000611123600080516020615a0d83398151915283613168565b846115a081614079565b600080516020615a0d8339815191526115b881611068565b6115c287336140e2565b61160e5760405162461bcd60e51b815260206004820152601d60248201527f4d73672e73656e64657220686173206e6f7420636f6e6669726d65642e000000604482015260640161105d565b600087815260056020526040902086600b81111561162e5761162e614e52565b815460ff16600b81111561164457611644614e52565b1480156116545750858160010154145b80156116635750848160020154145b80156116725750838160030154145b61168e5760405162461bcd60e51b815260040161105d90615594565b6004810154336001600160a01b039091160361170d5760078101805460ff19166004179055805460018201546002830154600384015460405133948d947f01011152a3b44da915f5831c5c63c3448b616dcc166c3543f289ed79645280c9946117009460ff90931693919290916155db565b60405180910390a3611781565b61171a60058201336140fd565b50805460018201546002830154600384015433938c937fed38e5621fac2aa23736077187104abfe9c8aa1c5b4eb73015d8cfdf403fe0709360ff9092169290919061176760058901613f32565b604051611778959493929190615604565b60405180910390a35b5050505050505050565b60015460095460009182918291606091839183918291849182916001600160a01b03908116917f000000000000000000000000000000000000000000000000000000000000000091166117dc614112565b600254600d54601254600b8054604080516020808402820181019092528281529294600c9460ff91821694911692909186919083018282801561183e57602002820191906000526020600020905b81548152602001906001019080831161182a575b505050505093508280548060200260200160405190810160405280929190818152602001828054801561189057602002820191906000526020600020905b81548152602001906001019080831161187c575b50505050509250985098509850985098509850985098509850909192939495969798565b6000611123600080516020615a0d83398151915283613187565b6000805160206159cd8339815191526118e681611068565b60016118ff600080516020615a0d833981519152613955565b611909919061556b565b60025461191682826141ce565b61192e600080516020615a0d83398151915285614238565b61194a5760405162461bcd60e51b815260040161105d90615636565b7f00000000000000000000000000000000000000000000000000000000000000006119a357611987600080516020615a4d83398151915285614238565b6119a35760405162461bcd60e51b815260040161105d90615636565b6119ab611e72565b6040516001600160a01b038516907f1af6bd3d85a56e7c4a0700756fd2ca3b3b65c266e56c77652c5a346bc256522090600090a250505050565b6119ed61426d565b816119f781613df2565b600080516020615a0d833981519152611a0f81611068565b7f0000000000000000000000000000000000000000000000000000000000000000611a4c5760405162461bcd60e51b815260040161105d90615665565b6000835111611a8d5760405162461bcd60e51b815260206004820152600d60248201526c24b73b30b634b21030b933b99760991b604482015260640161105d565b600083806020019051810190611aa391906156e9565b604051631e1e087360e21b81529091506001600160a01b0386169063787821cc90611ad290849060040161579c565b6020604051808303816000875af1158015611af1573d6000803e3d6000fd5b505050506040513d601f19601f82011682018060405250810190611b1591906157e1565b600780546001600160a01b03929092166001600160a01b0319928316811790915560098054909216179055611b473390565b600754600954604080516001600160a01b039384168152918316602083015292909116917f669ea85a3c8fdb578f28c81d130bb3cf68e5f3845d178688ae84abdba59c9030910160405180910390a25050505050565b600082815260196020526040902060010154611bb881611068565b6111b683836142c0565b611bca61100f565b600080516020615a0d833981519152611be281611068565b7f0000000000000000000000000000000000000000000000000000000000000000611c1f5760405162461bcd60e51b815260040161105d90615665565b6000611c2e600b828080613e3b565b9050611c3981613f02565b5050565b6001600160a01b0381163314611c665760405163334bd91960e11b815260040160405180910390fd5b6114908282614238565b84611c7a81614079565b600080516020615a0d833981519152611c9281611068565b611c9c87336140e2565b15611ce95760405162461bcd60e51b815260206004820152601d60248201527f4d73672e73656e64657220616c726561647920636f6e6669726d65642e000000604482015260640161105d565b600087815260056020526040902086600b811115611d0957611d09614e52565b815460ff16600b811115611d1f57611d1f614e52565b148015611d2f5750858160010154145b8015611d3e5750848160020154145b8015611d4d5750838160030154145b611d695760405162461bcd60e51b815260040161105d90615594565b611d7660058201336142e9565b5033887f658055f08cf63659025f616b2baf94baf8f4d2ee9c600c2ae722b4b7716cce4689898989611daa60058901613f32565b604051611dbb959493929190615604565b60405180910390a3600254611dd2826005016142fe565b106117815761178188614308565b611de861100f565b600080516020615a0d833981519152611e0081611068565b82611e0a81613df2565b6000611e146124ec565b945050505050600084118015611e2a5750808411155b611e465760405162461bcd60e51b815260040161105d906157fe565b6000611e5f60056001600160a01b038816876000613e3b565b9050611e6a81613f02565b505050505050565b6000805160206159cd833981519152611e8a81611068565b6004546003556040517f907527d30089abd16e30f06ddbbbc18480505176262f19bc16c1fbf9262f9c6b90600090a150565b6000805160206159cd833981519152611ed481611068565b82611ede81613df2565b6000611ee86124ec565b945050505050600084118015611efe5750808411155b611f4a5760405162461bcd60e51b815260206004820152601a60248201527f56616c7565206973206e6f7420776974686472617761626c652e000000000000604482015260640161105d565b6011805485900390556040516000906001600160a01b0387169086908381818185875af1925050503d8060008114611f9e576040519150601f19603f3d011682016040523d82523d6000602084013e611fa3565b606091505b5050905080611fe75760405162461bcd60e51b815260206004820152601060248201526f2a3930b739b332b9103330b4b632b21760811b604482015260640161105d565b611fef613cd4565b856001600160a01b03167f2d9d65e4fcab96e158761a8d3cc0bd7fd76951ab5574667b07190da1717774708660405161202a91815260200190565b60405180910390a2505050505050565b6000805160206159cd83398151915261205281611068565b601880546001600160a01b0319166001600160a01b0384811691909117909155601754610100900416156121a9576001600160a01b03821615612147576017546040516327a38e0160e11b81526001600160a01b03848116600483015261010090920490911690634f471c0290602401602060405180830381865afa1580156120df573d6000803e3d6000fd5b505050506040513d601f19601f820116820180604052508101906121039190615826565b156121475760405162461bcd60e51b81526020600482015260146024820152732b37ba32b91030b63932b0b23c903a30b5b2b71760611b604482015260640161105d565b60175460405163aad8cb3f60e01b81523060048201526101009091046001600160a01b03169063aad8cb3f90602401600060405180830381600087803b15801561219057600080fd5b505af11580156121a4573d6000803e3d6000fd5b505050505b6040516001600160a01b038316907f61ee88e3c7513df1e6e214415e781030278cf98b7fbb9d6d53720ee8aeb654ee90600090a25050565b6000805160206159cd8339815191526121f981611068565b61220d6001600160a01b0383166001613f3f565b6122295760405162461bcd60e51b815260040161105d90615413565b60175461010090046001600160a01b03161561233957601754604051635605a4e560e01b81523060048201526101009091046001600160a01b031690635605a4e590602401600060405180830381600087803b15801561228857600080fd5b505af115801561229c573d6000803e3d6000fd5b50505050601760019054906101000a90046001600160a01b03166001600160a01b031663d4377d4d6040518163ffffffff1660e01b8152600401600060405180830381865afa1580156122f3573d6000803e3d6000fd5b505050506040513d6000823e601f3d908101601f1916820160405261231b919081019061546e565b51156123395760405162461bcd60e51b815260040161105d906154ff565b60178054610100600160a81b0319166101006001600160a01b038516908102919091179091556040517fef25e066ac14a10491ae1ac89a8247282158e169968aaccbceb257d0878bdfd090600090a25050565b60008261239881613df2565b600080516020615a2d8339815191526123b081611068565b6000841180156123cf5750601354846014546123cc919061583f565b11155b6123eb5760405162461bcd60e51b815260040161105d906157fe565b601580546001808201909255604080516080810182526001600160a01b03898116825260208083018a8152428701848601818152600060608701818152898252601690955296909620855181546001600160a01b031916951694909417845590518388015593516002808401919091559051600383018054969a509496939592949093909260ff191691849081111561248657612486614e52565b02179055505060148054870190555061249d613cd4565b60408051868152602081018390526001600160a01b0388169186917fdd0988b8c11a867814c87be652f93a86d35c6a235b92977e99d5394bd8580ced910160405180910390a350505092915050565b60608060008060006124fc61100f565b6000805b600b5481101561256757600b80548290811061251e5761251e61557e565b906000526020600020015442111561255457600c8054829081106125445761254461557e565b9060005260206000200154820191505b6011546010540382039250600101612500565b50600b600001600b60010160105460115485848054806020026020016040519081016040528092919081815260200182805480156125c457602002820191906000526020600020905b8154815260200190600101908083116125b0575b505050505094508380548060200260200160405190810160405280929190818152602001828054801561261657602002820191906000526020600020905b815481526020019060010190808311612602575b5050505050935095509550955095509550509091929394565b61263761426d565b60015461265c90600080516020615a0d833981519152906001600160a01b0316614238565b50600180546001600160a01b03191690556110666144b6565b61267d61100f565b8261268781613df2565b60175460ff1680156126ac57506007546001600160a01b0316336001600160a01b0316145b6126f15760405162461bcd60e51b81526020600482015260166024820152752932b232b632b3b0ba34b7b7103234b9b0b13632b21760511b604482015260640161105d565b306001600160a01b038416036127415760405162461bcd60e51b81526020600482015260156024820152742a30b933b2ba1031b0b713ba1031329039b2b6331760591b604482015260640161105d565b6127556001600160a01b03841660036146da565b6127985760405162461bcd60e51b815260206004820152601460248201527324b73b30b634b21021b729ba30b5b4b733ab199760611b604482015260640161105d565b6000821180156127b75750601354826014546127b4919061583f565b11155b6127d35760405162461bcd60e51b815260040161105d906157fe565b6001600160a01b038416600090815260086020526040902054158061281d57506001600160a01b038416600090815260086020526040902054429061281a9060019061583f565b11155b6128615760405162461bcd60e51b815260206004820152601560248201527421b0b713ba103932b232b632b3b0ba32903cb2ba1760591b604482015260640161105d565b601380548390039055604051632801ba4360e21b81526001600160a01b03858116600483015284169063a006e90c9084906024016000604051808303818588803b1580156128ae57600080fd5b505af11580156128c2573d6000803e3d6000fd5b50505050506128cf613cd4565b826001600160a01b0316846001600160a01b03167f4830c21a6eb4b2b3af6c4d24cfbd78ce437d5b690aac56ceec54df1d4d24e1a08460405161291491815260200190565b60405180910390a350505050565b600080516020615a4d83398151915261293a81611068565b600082815260166020526040902080546001600160a01b031661296f5760405162461bcd60e51b815260040161105d906153a9565b6000600382015460ff16600281111561298a5761298a614e52565b146129a75760405162461bcd60e51b815260040161105d906153eb565b601354816001015411156129fd5760405162461bcd60e51b815260206004820152601a60248201527f56616c7565206973206e6f7420776974686472617761626c652e000000000000604482015260640161105d565b4281600201541115612a495760405162461bcd60e51b81526020600482015260156024820152742737ba103bb4ba34323930bbb0b13632903cb2ba1760591b604482015260640161105d565b6002810154600101428111612acb5760038201805460ff19166002179055600182015460148054919091039055612a7e613cd4565b815460018301546040519081526001600160a01b039091169085907fcc847b5f283b573ff21408ad42cb442f358bbce95269470b05097215598173df9060200160405180910390a36111b6565b60038201805460ff191660019081179091558201805460138054919091039055805460148054919091039055825490546040516000926001600160a01b031691908381818185875af1925050503d8060008114612b44576040519150601f19603f3d011682016040523d82523d6000602084013e612b49565b606091505b5050905080612b8d5760405162461bcd60e51b815260206004820152601060248201526f2a3930b739b332b9103330b4b632b21760811b604482015260640161105d565b612b95613cd4565b825460018401546040519081526001600160a01b039091169086907f7a2d48d1df1249429730a253e5713a7d7a2024913de2fbccafdf36efdd32bf059060200160405180910390a35050505050565b612bec61426d565b600080516020615a0d833981519152612c0481611068565b336000818152600f602052604090205460ff1615612c645760405162461bcd60e51b815260206004820152601c60248201527f4d73672e73656e64657220616c72656164792072657669657765642e00000000604482015260640161105d565b6001600160a01b0381166000818152600f6020526040808220805460ff19166001908117909155600e80549091019055517f65d287f4118b03f8cc979b433fd0b2246074200dd5da70c9daf204aaa0da1a2c9190a2612cd0600080516020615a0d833981519152613955565b600e5403611c3957600d805460ff191660011790556040517f244ff9a3d72b1dc5a4bce7f05fb615395f2a8c7ad6ea525d2bac9030f75d7a9b90600090a15050565b6000805160206159cd833981519152612d2a81611068565b612d41600080516020615a0d833981519152613955565b612d4c90600161583f565b600254612d5982826141ce565b612d71600080516020615a0d833981519152856142c0565b612d8d5760405162461bcd60e51b815260040161105d90615852565b7f0000000000000000000000000000000000000000000000000000000000000000612de657612dca600080516020615a4d833981519152856142c0565b612de65760405162461bcd60e51b815260040161105d90615852565b612dee611e72565b6040516001600160a01b038516907fad6de4452a631e641cb59902236607946ce9272b9b981f2f80e8d129cb9084ba90600090a250505050565b6060612e3261426d565b600e5460009067ffffffffffffffff811115612e5057612e506150b8565b604051908082528060200260200182016040528015612e79578160200160208202803683370190505b5090506000805b612e97600080516020615a0d833981519152613955565b811015612f1b576000612eb8600080516020615a0d83398151915283613168565b6001600160a01b0381166000908152600f602052604090205490915060ff161515600103612f125780848481518110612ef357612ef361557e565b6001600160a01b03909216602092830291909101909101526001909201915b50600101612e80565b509091505090565b612f2b61100f565b600080516020615a0d833981519152612f4381611068565b82612f4d81613df2565b7f000000000000000000000000000000000000000000000000000000000000000015612f8b5760405162461bcd60e51b815260040161105d90615372565b600083118015612faa575060135483601454612fa7919061583f565b11155b612fc65760405162461bcd60e51b815260040161105d906157fe565b6000612fdf60066001600160a01b038716866000613e3b565b9050612fea81613f02565b5050505050565b612ff961100f565b600080516020615a0d83398151915261301181611068565b8161301b81613df2565b6001613034600080516020615a0d833981519152613955565b61303e919061556b565b60025461304b82826141ce565b613063600080516020615a0d83398151915286613187565b61307f5760405162461bcd60e51b815260040161105d90615636565b6000611e5f60026001600160a01b0388166111a3565b61309d61100f565b600080516020615a0d8339815191526130b581611068565b816130bf81613df2565b6130d6600080516020615a0d833981519152613955565b6130e190600161583f565b6002546130ee82826141ce565b613106600080516020615a0d83398151915286613187565b156131235760405162461bcd60e51b815260040161105d90615852565b6000611e5f60016001600160a01b0388166111a3565b61314161100f565b600080516020615a0d83398151915261315981611068565b6000611c2e6004828080613e3b565b6000828152601a6020526040812061318090836148fa565b9392505050565b60007f00000000000000000000000000000000000000000000000000000000000000001580156131c457506000805160206159ed83398151915283145b156131d157506001611123565b60008381526019602090815260408083206001600160a01b038616845290915290205460ff16613180565b6000805160206159cd83398151915261321481611068565b7f0000000000000000000000000000000000000000000000000000000000000000156132525760405162461bcd60e51b815260040161105d90615372565b600a80546001600160a01b0319166001600160a01b0384169081179091556040517fbe1849831e6775a2022006aeebcc00f70d10bc4202c8187e215ad9e9911f2b0690600090a25050565b6132a561100f565b806132af81613df2565b60175460ff166132fa5760405162461bcd60e51b81526020600482015260166024820152752932b232b632b3b0ba34b7b7103234b9b0b13632b21760511b604482015260640161105d565b6133053360036146da565b6133485760405162461bcd60e51b815260206004820152601460248201527324b73b30b634b21021b729ba30b5b4b733ab199760611b604482015260640161105d565b6001600160a01b038083166000908152600860209081526040808320429055600754815163228cb73360e01b81529151941693849263228cb73392600480820193918290030181865afa1580156133a3573d6000803e3d6000fd5b505050506040513d601f19601f820116820180604052508101906133c79190615826565b6040516325fb490360e11b81526001600160a01b0386811660048301524792909201925090831690634bf692069034906024016000604051808303818588803b15801561341357600080fd5b505af1158015613427573d6000803e3d6000fd5b505050505047811461346f5760405162461bcd60e51b815260206004820152601160248201527024b73b30b634b21039ba30b5b2a337b91760791b604482015260640161105d565b30336001600160a01b0316856001600160a01b03167fcbbd772ac9792b90fb77aa3194b0279ec4dbea1880ecc3674ecd2f4bf39b0c90346040516134b591815260200190565b60405180910390a450505050565b6134cb614906565b6135265760405162461bcd60e51b815260206004820152602660248201527f556e617574686f72697a656420746f2061636365707420726577617264206164604482015265323932b9b99760d11b606482015260840161105d565b600a546001600160a01b038281169116146135955760405162461bcd60e51b815260206004820152602960248201527f476976656e206164647265737320646f6573206e6f74206d6174636820746865604482015268103832b73234b7339760b91b606482015260840161105d565b600a5460405163832a2aad60e01b81526001600160a01b0390911660048201526104009063832a2aad90602401600060405180830381600087803b1580156135dc57600080fd5b505af11580156135f0573d6000803e3d6000fd5b5050600a8054600980546001600160a01b0383166001600160a01b031991821681179092559091169091556040519092507f36e0b58f785f850d6622cb742fa1e0750728da3c75816916830b50b747efb6b69150600090a250565b61365361100f565b600080516020615a0d83398151915261366b81611068565b60175461010090046001600160a01b03161580159061369257506001600160a01b03821615155b1561374f576017546040516327a38e0160e11b81526001600160a01b03848116600483015261010090920490911690634f471c0290602401602060405180830381865afa1580156136e7573d6000803e3d6000fd5b505050506040513d601f19601f8201168201806040525081019061370b9190615826565b1561374f5760405162461bcd60e51b81526020600482015260146024820152732b37ba32b91030b63932b0b23c903a30b5b2b71760611b604482015260640161105d565b6000611485600a6001600160a01b0385166111a3565b61376d61426d565b600080516020615a0d83398151915261378581611068565b6137996001600160a01b0383166001613f3f565b6123395760405162461bcd60e51b815260040161105d90615413565b6000805160206159cd8339815191526137cd81611068565b6137e4600080516020615a0d833981519152613955565b826137ef82826141ce565b60028490556137fc611e72565b6040518481527f8951393946c27b45080aad111464c16c70f3d5e7d24b114a627334441961bf5f9060200160405180910390a150505050565b600080516020615a2d83398151915261384d81611068565b600082815260166020526040902080546001600160a01b03166138825760405162461bcd60e51b815260040161105d906153a9565b6000600382015460ff16600281111561389d5761389d614e52565b146138ba5760405162461bcd60e51b815260040161105d906153eb565b60038101805460ff191660021790556001810154601480549190910390556138e0613cd4565b805460018201546040519081526001600160a01b039091169084907fcc847b5f283b573ff21408ad42cb442f358bbce95269470b05097215598173df9060200160405180910390a3505050565b61393561100f565b6000805160206159ed83398151915261394d81611068565b611072611075565b6000818152601a60205260408120611123906142fe565b6060600083158061397f57506015548410155b613989578361398d565b6015545b9050613999858261556b565b67ffffffffffffffff8111156139b1576139b16150b8565b6040519080825280602002602001820160405280156139da578160200160208202803683370190505b5091506000855b82811015611571578460028111156139fb576139fb614e52565b60008281526016602052604090206003015460ff166002811115613a2157613a21614e52565b03613a4c5780848380600101945081518110613a3f57613a3f61557e565b6020026020010181815250505b6001016139e1565b600082815260196020526040902060010154613a6f81611068565b6111b68383614238565b6000805160206159cd833981519152613a9181611068565b7f0000000000000000000000000000000000000000000000000000000000000000613ace5760405162461bcd60e51b815260040161105d90615665565b6017805460ff8082161560ff1990921682179092556040519116151581527f02efa9113845c402ffbbc237400eeba75de99c23f054459573f88caa5a9418989060200160405180910390a150565b613b2461100f565b600080516020615a0d833981519152613b3c81611068565b613b53600080516020615a0d833981519152613955565b82613b5e82826141ce565b6002548403613b7f5760405162461bcd60e51b815260040161105d906157fe565b6000612fdf6003868380613e3b565b60006004548210613ba157506000919050565b600160008381526005602052604090206007015460ff166004811115613bc957613bc9614e52565b14613be7575060009081526005602052604090206007015460ff1690565b6003548210613bf7576001611123565b600492915050565b613c0761426d565b600080516020615a0d833981519152613c1f81611068565b81600003613c675760405162461bcd60e51b815260206004820152601560248201527423a19024a21031b0b73737ba103132903d32b9379760591b604482015260640161105d565b600682905560405182907f469cb2f3ce5d5e879269af625b54571651feb0ede6e83ee89b9c888648af514f90600090a25050565b613ca58282613187565b611c395760405163e2517d3f60e01b81526001600160a01b03821660048201526024810183905260440161105d565b60175460405130602482015260009161010090046001600160a01b03169060440160408051601f198184030181529181526020820180516001600160e01b0316635605a4e560e01b17905251613d2a9190615881565b6000604051808303816000865af19150503d8060008114613d67576040519150601f19603f3d011682016040523d82523d6000602084013e613d6c565b606091505b50509050806110725760405162461bcd60e51b815260206004820152601b60248201527f5374616b696e67547261636b65722063616c6c206661696c65642e0000000000604482015260640161105d565b60006001600160e01b03198216637965db0b60e01b148061112357506301ffc9a760e01b6001600160e01b0319831614611123565b6001600160a01b0381166110725760405162461bcd60e51b815260206004820152601060248201526f20b2323932b9b99034b990373ab6361760811b604482015260640161105d565b60048054600180820190925560008181526005602052604081208054919390918891839160ff19169083600b811115613e7657613e76614e52565b0217905550600181810187905560028201869055600382018590556004820180546001600160a01b0319163390811790915560078301805460ff191690921790915560405183907fdd9ce6d431d4ac3e8bea81bc2d7760b97d30c4e54252d8c8c59054849b8f61b590613ef0908b908b908b908b906155db565b60405180910390a35095945050505050565b600081815260056020526040902080546001820154600283015460039093015461107293859360ff169291611c70565b60606000613180836149ec565b6000826001600160a01b03163b600003613f5b57506000611123565b6000839050806001600160a01b0316634b6a94cc6040518163ffffffff1660e01b8152600401600060405180830381865afa158015613f9e573d6000803e3d6000fd5b505050506040513d6000823e601f3d908101601f19168201604052613fc6919081019061589d565b805190602001207fccfe28814eb3e9d0e6cfd45eb754f27c5eb4399dac6379181362ebd8b6a865c314613ffd576000915050611123565b82816001600160a01b031663ffa1ad746040518163ffffffff1660e01b8152600401602060405180830381865afa15801561403c573d6000803e3d6000fd5b505050506040513d601f19601f820116820180604052508101906140609190615826565b1461406f576000915050611123565b5060019392505050565b600161408482613b8e565b600481111561409557614095614e52565b146110725760405162461bcd60e51b815260206004820152601f60248201527f4d757374206265206174206e6f742d636f6e6669726d65642073746174652e00604482015260640161105d565b60008281526005602081905260408220613180910183614a48565b6000613180836001600160a01b038416614a6a565b6060600061412d600080516020615a0d833981519152613955565b90508067ffffffffffffffff811115614148576141486150b8565b604051908082528060200260200182016040528015614171578160200160208202803683370190505b50915060005b818110156141c957614197600080516020615a0d83398151915282613168565b8382815181106141a9576141a961557e565b6001600160a01b0390921660209283029190910190910152600101614177565b505090565b603282111580156141df5750818111155b80156141ea57508015155b80156141f557508115155b611c395760405162461bcd60e51b815260206004820152601460248201527324b73b30b634b2103932b8bab4b932b6b2b73a1760611b604482015260640161105d565b6000806142458484614b5d565b90508015613180576000848152601a6020526040902061426590846140fd565b509392505050565b60125460ff16156110665760405162461bcd60e51b815260206004820152601e60248201527f436f6e747261637420686173206265656e20696e697469616c697a65642e0000604482015260640161105d565b6000806142cd8484614bd2565b90508015613180576000848152601a6020526040902061426590845b6000613180836001600160a01b038416614c5e565b6000611123825490565b6000818152600560205260408120805460018201546002830154600384015460ff9093169285808086600b81111561434257614342614e52565b600b81111561435357614353614e52565b81526020810191909152604090810160002054905160248101869052604481018590526064810184905260e09190911b9060840160408051601f198184030181529181526020820180516001600160e01b03166001600160e01b031990941693909317909252905190915030906143cb908390615881565b6000604051808303816000865af19150503d8060008114614408576040519150601f19603f3d011682016040523d82523d6000602084013e61440d565b606091505b509097505086156144675760078601805460ff19166002179055336001600160a01b0316887f48f16d9e6ab6f19798a7c7f307ecea3def480049fa0a09280e2a3fa45aaa84268787878760405161170094939291906155db565b60078601805460ff19166003179055336001600160a01b0316887fbd3ad69fc5a8e233118506c67ebe892bef493fcf2eb9e6986f6d6c3f2adf0e8a8787878760405161177894939291906155db565b6144be61426d565b600654158015906144de575060175461010090046001600160a01b031615155b801561455a57507f0000000000000000000000000000000000000000000000000000000000000000158061455a57507f0000000000000000000000000000000000000000000000000000000000000000801561454457506007546001600160a01b031615155b801561455a57506009546001600160a01b031615155b61459d5760405162461bcd60e51b81526020600482015260146024820152732737ba1039b2ba103ab810383937b832b9363c9760611b604482015260640161105d565b600d5460ff1615156001146145ec5760405162461bcd60e51b81526020600482015260156024820152742932bb34b2bbb9903737ba103334b734b9b432b21760591b604482015260640161105d565b6000805b600c5481101561462757600c80548290811061460e5761460e61557e565b60009182526020909120015491909101906001016145f0565b5080341461466f5760405162461bcd60e51b81526020600482015260156024820152742b30b63ab2903237b2b9903737ba1036b0ba31b41760591b604482015260640161105d565b60108190556011819055614681614ca5565b6012805460ff191660011790556146953390565b6001600160a01b03167f2b3c5e8e58d7d1e42ccd071c6f749d53f9ee506020a81fad9ff98140ccccde69346040516146cf91815260200190565b60405180910390a250565b6000826001600160a01b03163b6000036146f657506000611123565b6000839050806001600160a01b0316634b6a94cc6040518163ffffffff1660e01b8152600401600060405180830381865afa158015614739573d6000803e3d6000fd5b505050506040513d6000823e601f3d908101601f19168201604052614761919081019061589d565b805190602001207fa2f5d64a9f0bcdeed97e196203f5a8c1a5c8293988b625b7925686d30805508214614798576000915050611123565b82816001600160a01b031663ffa1ad746040518163ffffffff1660e01b8152600401602060405180830381865afa1580156147d7573d6000803e3d6000fd5b505050506040513d601f19601f820116820180604052508101906147fb9190615826565b1461480a576000915050611123565b6000816001600160a01b031663139d7fed6040518163ffffffff1660e01b8152600401602060405180830381865afa15801561484a573d6000803e3d6000fd5b505050506040513d601f19601f8201168201806040525081019061486e91906157e1565b604051630aabaead60e11b81526001600160a01b0382166004820152909150600090610400906315575d5a90602401606060405180830381865afa1580156148ba573d6000803e3d6000fd5b505050506040513d601f19601f820116820180604052508101906148de91906158d2565b506001600160a01b039081169088161494505050505092915050565b60006131808383614db3565b600a546000906001600160a01b031633036149215750600190565b60006104006001600160a01b0316631865c57d6040518163ffffffff1660e01b8152600401600060405180830381865afa158015614963573d6000803e3d6000fd5b505050506040513d6000823e601f3d908101601f1916820160405261498b9190810190615914565b50905060005b81518110156149e3578181815181106149ac576149ac61557e565b60200260200101516001600160a01b03166149c43390565b6001600160a01b0316036149db5760019250505090565b600101614991565b50600091505090565b606081600001805480602002602001604051908101604052809291908181526020018280548015614a3c57602002820191906000526020600020905b815481526020019060010190808311614a28575b50505050509050919050565b6001600160a01b03811660009081526001830160205260408120541515613180565b60008181526001830160205260408120548015614b53576000614a8e60018361556b565b8554909150600090614aa29060019061556b565b9050808214614b07576000866000018281548110614ac257614ac261557e565b9060005260206000200154905080876000018481548110614ae557614ae561557e565b6000918252602080832090910192909255918252600188019052604090208390555b8554869080614b1857614b186159b6565b600190038181906000526020600020016000905590558560010160008681526020019081526020016000206000905560019350505050611123565b6000915050611123565b6000614b698383613187565b15614bca5760008381526019602090815260408083206001600160a01b0386168085529252808320805460ff1916905551339286917ff6391f5c32d9c69d2a47ea670b442974b53935d1edc7fd64eb21e047a839171b9190a4506001611123565b506000611123565b6000614bde8383613187565b614bca5760008381526019602090815260408083206001600160a01b03861684529091529020805460ff19166001179055614c163390565b6001600160a01b0316826001600160a01b0316847f2f8788117e7eff1d82e926ec794901d17c78024a50270940304540a733656f0d60405160405180910390a4506001611123565b6000818152600183016020526040812054614bca57508154600181810184556000848152602080822090930184905584548482528286019093526040902091909155611123565b7f0000000000000000000000000000000000000000000000000000000000000000614d4257614ce2600080516020615a2d833981519152306142c0565b5060005b614cfd600080516020615a0d833981519152613955565b811015611072576000614d1e600080516020615a0d83398151915283613168565b9050614d38600080516020615a4d833981519152826142c0565b5050600101614ce6565b600754614d67906000805160206159ed833981519152906001600160a01b03166142c0565b50600754614d8d90600080516020615a2d833981519152906001600160a01b03166142c0565b5060075461107290600080516020615a4d833981519152906001600160a01b03166142c0565b6000826000018281548110614dca57614dca61557e565b9060005260206000200154905092915050565b600060208284031215614def57600080fd5b81356001600160e01b03198116811461318057600080fd5b6001600160a01b038116811461107257600080fd5b600060208284031215614e2e57600080fd5b813561318081614e07565b600060208284031215614e4b57600080fd5b5035919050565b634e487b7160e01b600052602160045260246000fd5b600c8110614e7857614e78614e52565b9052565b60008151808452602080850194506020840160005b83811015614eb65781516001600160a01b031687529582019590820190600101614e91565b509495945050505050565b60058110614e7857614e78614e52565b614edb8189614e68565b86602082015285604082015284606082015260018060a01b038416608082015260e060a08201526000614f1160e0830185614e7c565b9050614f2060c0830184614ec1565b98975050505050505050565b600080600060608486031215614f4157600080fd5b8335925060208401359150604084013560058110614f5e57600080fd5b809150509250925092565b60008151808452602080850194506020840160005b83811015614eb657815187529582019590820190600101614f7e565b6020815260006131806020830184614f69565b600080600080600060a08688031215614fc557600080fd5b853594506020860135600c8110614fdb57600080fd5b94979496505050506040830135926060810135926080909101359150565b6001600160a01b038a811682528981166020830152881660408201526101206060820181905260009061502e8382018a614e7c565b905087608084015282810360a08401526150488188614f69565b905082810360c084015261505c8187614f69565b94151560e0840152505090151561010090910152979650505050505050565b6001600160a01b0385168152602081018490526040810183905260808101600383106150a9576150a9614e52565b82606083015295945050505050565b634e487b7160e01b600052604160045260246000fd5b604051601f8201601f1916810167ffffffffffffffff811182821017156150f7576150f76150b8565b604052919050565b600067ffffffffffffffff821115615119576151196150b8565b50601f01601f191660200190565b6000806040838503121561513a57600080fd5b823561514581614e07565b9150602083013567ffffffffffffffff81111561516157600080fd5b8301601f8101851361517257600080fd5b8035615185615180826150ff565b6150ce565b81815286602083850101111561519a57600080fd5b816020840160208301376000602083830101528093505050509250929050565b600080604083850312156151cd57600080fd5b8235915060208301356151df81614e07565b809150509250929050565b60005b838110156152055781810151838201526020016151ed565b50506000910152565b600081518084526152268160208601602086016151ea565b601f01601f19169290920160200192915050565b602081526000613180602083018461520e565b6000806040838503121561526057600080fd5b823561526b81614e07565b946020939093013593505050565b60a08152600061528c60a0830188614f69565b828103602084015261529e8188614f69565b60408401969096525050606081019290925260809091015292915050565b6000806000606084860312156152d157600080fd5b83356152dc81614e07565b925060208401356152ec81614e07565b929592945050506040919091013590565b6020815260006131806020830184614e7c565b6000806040838503121561532357600080fd5b50508035926020909101359150565b60008060006060848603121561534757600080fd5b8335925060208401359150604084013560038110614f5e57600080fd5b602081016111238284614ec1565b6020808252601a908201527f5075626c69632064656c65676174696f6e20656e61626c65642e000000000000604082015260600190565b60208082526022908201527f5769746864726177616c207265717565737420646f6573206e6f7420657869736040820152613a1760f11b606082015260800190565b6020808252600e908201526d24b73b30b634b21039ba30ba329760911b604082015260600190565b60208082526017908201527f496e76616c6964205374616b696e67547261636b65722e000000000000000000604082015260600190565b600067ffffffffffffffff821115615464576154646150b8565b5060051b60200190565b6000602080838503121561548157600080fd5b825167ffffffffffffffff81111561549857600080fd5b8301601f810185136154a957600080fd5b80516154b76151808261544a565b81815260059190911b820183019083810190878311156154d657600080fd5b928401925b828410156154f4578351825292840192908401906154db565b979650505050505050565b60208082526036908201527f43616e6e6f742075706461746520747261636b6572207768656e2074686572656040820152751034b99030b71030b1ba34bb32903a3930b1b5b2b91760511b606082015260800190565b634e487b7160e01b600052601160045260246000fd5b8181038181111561112357611123615555565b634e487b7160e01b600052603260045260246000fd5b60208082526027908201527f46756e6374696f6e20696420616e6420617267756d656e747320646f206e6f746040820152661036b0ba31b41760c91b606082015260800190565b608081016155e98287614e68565b84602083015283604083015282606083015295945050505050565b61560e8187614e68565b84602082015283604082015282606082015260a0608082015260006154f460a0830184614e7c565b60208082526015908201527420b236b4b7103237b2b9903737ba1032bc34b9ba1760591b604082015260600190565b6020808252601b908201527f5075626c69632064656c65676174696f6e2064697361626c65642e0000000000604082015260600190565b600082601f8301126156ad57600080fd5b81516156bb615180826150ff565b8181528460208386010111156156d057600080fd5b6156e18260208301602087016151ea565b949350505050565b6000602082840312156156fb57600080fd5b815167ffffffffffffffff8082111561571357600080fd5b908301906080828603121561572757600080fd5b604051608081018181108382111715615742576157426150b8565b604052825161575081614e07565b8152602083015161576081614e07565b60208201526040838101519082015260608301518281111561578157600080fd5b61578d8782860161569c565b60608301525095945050505050565b60208152600060018060a01b03808451166020840152806020850151166040840152506040830151606083015260608301516080808401526156e160a084018261520e565b6000602082840312156157f357600080fd5b815161318081614e07565b6020808252600e908201526d24b73b30b634b2103b30b63ab29760911b604082015260600190565b60006020828403121561583857600080fd5b5051919050565b8082018082111561112357611123615555565b60208082526015908201527420b236b4b71030b63932b0b23c9032bc34b9ba399760591b604082015260600190565b600082516158938184602087016151ea565b9190910192915050565b6000602082840312156158af57600080fd5b815167ffffffffffffffff8111156158c657600080fd5b6156e18482850161569c565b6000806000606084860312156158e757600080fd5b83516158f281614e07565b602085015190935061590381614e07565b6040850151909250614f5e81614e07565b6000806040838503121561592757600080fd5b825167ffffffffffffffff81111561593e57600080fd5b8301601f8101851361594f57600080fd5b8051602061595f6151808361544a565b82815260059290921b8301810191818101908884111561597e57600080fd5b938201935b838510156159a557845161599681614e07565b82529382019390820190615983565b969091015195979596505050505050565b634e487b7160e01b600052603160045260246000fdfe97667070c54ef182b0f5858b034beac1b6f3089aa2d3188bb1e8929f4fa9b929b9e206fa2af7ee1331b72ce58b6d938ac810ce9b5cdb65d35ab723fd67badf9ea49807205ce4d355092ef5a8a18f56e8913cf4a201fbe287825b095693c217756bbd235a04f337cdf14b2f1846017b33479fad2c3ae66d711584f13463a2170adb8f45a81765d409768c063c845ce4a132a06990e9ba80f54a39553a43ea2c34a26469706673582212209b4c267ad01616d7be36aafd40302d3abc1c73e90e79e240e49c34273a1770b964736f6c63430008190033a49807205ce4d355092ef5a8a18f56e8913cf4a201fbe287825b095693c21775",
  "linkReferences": {},
  "deployedLinkReferences": {}
}