{
  "_format": "hh-sol-artifact-1",
  "contractName": "PocContract",
  "sourceName": "contracts/system_contracts/consensus/PocContract.sol",
  "abi": [
    {
      "constant": true,
      "inputs": [],
      "name": "getPocVersion",
      "outputs": [
        {
          "name": "",
          "type": "uint256"
        }
      ],
      "payable": false,
      "stateMutability": "pure",
      "type": "function"
    },
    {
      "constant": true,
      "inputs": [],
      "name": "getState",
      "outputs": [
        {
          "name": "",
          "type": "address[]"
        },
        {
          "name": "",
          "type": "uint256"
        }
      ],
      "payable": false,
      "stateMutability": "view",
      "type": "function"
    },
    {
      "constant": false,
      "inputs": [
        {
          "name": "_admin",
          "type": "address"
        }
      ],
      "name": "deleteAdmin",
      "outputs": [],
      "payable": false,
      "stateMutability": "nonpayable",
      "type": "function"
    },
    {
      "constant": false,
      "inputs": [
        {
          "name": "_functionId",
          "type": "uint8"
        },
        {
          "name": "_firstArg",
          "type": "bytes32"
        },
        {
          "name": "_secondArg",
          "type": "bytes32"
        },
        {
          "name": "_thirdArg",
          "type": "bytes32"
        }
      ],
      "name": "revokeRequest",
      "outputs": [],
      "payable": false,
      "stateMutability": "nonpayable",
      "type": "function"
    },
    {
      "constant": true,
      "inputs": [
        {
          "name": "_functionId",
          "type": "uint8"
        },
        {
          "name": "_firstArg",
          "type": "bytes32"
        },
        {
          "name": "_secondArg",
          "type": "bytes32"
        },
        {
          "name": "_thirdArg",
          "type": "bytes32"
        }
      ],
      "name": "getRequestInfoByArgs",
      "outputs": [
        {
          "name": "",
          "type": "bytes32"
        },
        {
          "name": "",
          "type": "address[]"
        },
        {
          "name": "",
          "type": "uint256"
        },
        {
          "name": "",
          "type": "uint8"
        }
      ],
      "payable": false,
      "stateMutability": "view",
      "type": "function"
    },
    {
      "constant": true,
      "inputs": [],
      "name": "CONTRACT_TYPE",
      "outputs": [
        {
          "name": "",
          "type": "string"
        }
      ],
      "payable": false,
      "stateMutability": "view",
      "type": "function"
    },
    {
      "constant": false,
      "inputs": [],
      "name": "clearRequest",
      "outputs": [],
      "payable": false,
      "stateMutability": "nonpayable",
      "type": "function"
    },
    {
      "constant": true,
      "inputs": [],
      "name": "MAX_ADMIN",
      "outputs": [
        {
          "name": "",
          "type": "uint256"
        }
      ],
      "payable": false,
      "stateMutability": "view",
      "type": "function"
    },
    {
      "constant": false,
      "inputs": [
        {
          "name": "_admin",
          "type": "address"
        }
      ],
      "name": "addAdmin",
      "outputs": [],
      "payable": false,
      "stateMutability": "nonpayable",
      "type": "function"
    },
    {
      "constant": true,
      "inputs": [],
      "name": "MAX_PENDING_REQUEST",
      "outputs": [
        {
          "name": "",
          "type": "uint256"
        }
      ],
      "payable": false,
      "stateMutability": "view",
      "type": "function"
    },
    {
      "constant": false,
      "inputs": [
        {
          "name": "_admin",
          "type": "address"
        }
      ],
      "name": "submitDeleteAdmin",
      "outputs": [],
      "payable": false,
      "stateMutability": "nonpayable",
      "type": "function"
    },
    {
      "constant": false,
      "inputs": [
        {
          "name": "_to",
          "type": "address"
        },
        {
          "name": "_value",
          "type": "uint256"
        }
      ],
      "name": "submitTransferKlay",
      "outputs": [],
      "payable": false,
      "stateMutability": "nonpayable",
      "type": "function"
    },
    {
      "constant": true,
      "inputs": [
        {
          "name": "_id",
          "type": "bytes32"
        }
      ],
      "name": "getRequestInfo",
      "outputs": [
        {
          "name": "",
          "type": "uint8"
        },
        {
          "name": "",
          "type": "bytes32"
        },
        {
          "name": "",
          "type": "bytes32"
        },
        {
          "name": "",
          "type": "bytes32"
        },
        {
          "name": "",
          "type": "address[]"
        },
        {
          "name": "",
          "type": "uint256"
        },
        {
          "name": "",
          "type": "uint8"
        }
      ],
      "payable": false,
      "stateMutability": "view",
      "type": "function"
    },
    {
      "constant": false,
      "inputs": [
        {
          "name": "_admin",
          "type": "address"
        }
      ],
      "name": "submitAddAdmin",
      "outputs": [],
      "payable": false,
      "stateMutability": "nonpayable",
      "type": "function"
    },
    {
      "constant": false,
      "inputs": [],
      "name": "submitClearRequest",
      "outputs": [],
      "payable": false,
      "stateMutability": "nonpayable",
      "type": "function"
    },
    {
      "constant": true,
      "inputs": [],
      "name": "ONE_WEEK",
      "outputs": [
        {
          "name": "",
          "type": "uint256"
        }
      ],
      "payable": false,
      "stateMutability": "view",
      "type": "function"
    },
    {
      "constant": true,
      "inputs": [],
      "name": "TWO_WEEKS",
      "outputs": [
        {
          "name": "",
          "type": "uint256"
        }
      ],
      "payable": false,
      "stateMutability": "view",
      "type": "function"
    },
    {
      "constant": false,
      "inputs": [
        {
          "name": "_to",
          "type": "address"
        },
        {
          "name": "_value",
          "type": "uint256"
        }
      ],
      "name": "transferKlay",
      "outputs": [],
      "payable": false,
      "stateMutability": "nonpayable",
      "type": "function"
    },
    {
      "constant": true,
      "inputs": [],
      "name": "requirement",
      "outputs": [
        {
          "name": "",
          "type": "uint256"
        }
      ],
      "payable": false,
      "stateMutability": "view",
      "type": "function"
    },
    {
      "constant": false,
      "inputs": [
        {
          "name": "_requirement",
          "type": "uint256"
        }
      ],
      "name": "updateRequirement",
      "outputs": [],
      "payable": false,
      "stateMutability": "nonpayable",
      "type": "function"
    },
    {
      "constant": true,
      "inputs": [],
      "name": "getPendingRequestList",
      "outputs": [
        {
          "name": "",
          "type": "bytes32[]"
        }
      ],
      "payable": false,
      "stateMutability": "view",
      "type": "function"
    },
    {
      "constant": false,
      "inputs": [
        {
          "name": "_requirement",
          "type": "uint256"
        }
      ],
      "name": "submitUpdateRequirement",
      "outputs": [],
      "payable": false,
      "stateMutability": "nonpayable",
      "type": "function"
    },
    {
      "constant": true,
      "inputs": [],
      "name": "VERSION",
      "outputs": [
        {
          "name": "",
          "type": "uint256"
        }
      ],
      "payable": false,
      "stateMutability": "view",
      "type": "function"
    },
    {
      "inputs": [
        {
          "name": "_adminList",
          "type": "address[]"
        },
        {
          "name": "_requirement",
          "type": "uint256"
        }
      ],
      "payable": false,
      "stateMutability": "nonpayable",
      "type": "constructor"
    },
    {
      "payable": true,
      "stateMutability": "payable",
      "type": "fallback"
    },
    {
      "anonymous": false,
      "inputs": [
        {
          "indexed": false,
          "name": "contractType",
          "type": "string"
        },
        {
          "indexed": false,
          "name": "adminList",
          "type": "address[]"
        },
        {
          "indexed": false,
          "name": "requirement",
          "type": "uint256"
        }
      ],
      "name": "DeployContract",
      "type": "event"
    },
    {
      "anonymous": false,
      "inputs": [
        {
          "indexed": true,
          "name": "admin",
          "type": "address"
        }
      ],
      "name": "AddAdmin",
      "type": "event"
    },
    {
      "anonymous": false,
      "inputs": [
        {
          "indexed": true,
          "name": "admin",
          "type": "address"
        }
      ],
      "name": "DeleteAdmin",
      "type": "event"
    },
    {
      "anonymous": false,
      "inputs": [
        {
          "indexed": false,
          "name": "requirement",
          "type": "uint256"
        }
      ],
      "name": "UpdateRequirement",
      "type": "event"
    },
    {
      "anonymous": false,
      "inputs": [],
      "name": "ClearRequest",
      "type": "event"
    },
    {
      "anonymous": false,
      "inputs": [
        {
          "indexed": true,
          "name": "id",
          "type": "bytes32"
        },
        {
          "indexed": true,
          "name": "from",
          "type": "address"
        },
        {
          "indexed": false,
          "name": "functionId",
          "type": "uint8"
        },
        {
          "indexed": false,
          "name": "firstArg",
          "type": "bytes32"
        },
        {
          "indexed": false,
          "name": "secondArg",
          "type": "bytes32"
        },
        {
          "indexed": false,
          "name": "thirdArg",
          "type": "bytes32"
        },
        {
          "indexed": false,
          "name": "confirmers",
          "type": "address[]"
        }
      ],
      "name": "SubmitRequest",
      "type": "event"
    },
    {
      "anonymous": false,
      "inputs": [
        {
          "indexed": true,
          "name": "id",
          "type": "bytes32"
        },
        {
          "indexed": true,
          "name": "from",
          "type": "address"
        },
        {
          "indexed": false,
          "name": "functionId",
          "type": "uint8"
        },
        {
          "indexed": false,
          "name": "firstArg",
          "type": "bytes32"
        },
        {
          "indexed": false,
          "name": "secondArg",
          "type": "bytes32"
        },
        {
          "indexed": false,
          "name": "thirdArg",
          "type": "bytes32"
        },
        {
          "indexed": false,
          "name": "confirmers",
          "type": "address[]"
        }
      ],
      "name": "ExpiredRequest",
      "type": "event"
    },
    {
      "anonymous": false,
      "inputs": [
        {
          "indexed": true,
          "name": "id",
          "type": "bytes32"
        },
        {
          "indexed": true,
          "name": "from",
          "type": "address"
        },
        {
          "indexed": false,
          "name": "functionId",
          "type": "uint8"
        },
        {
          "indexed": false,
          "name": "firstArg",
          "type": "bytes32"
        },
        {
          "indexed": false,
          "name": "secondArg",
          "type": "bytes32"
        },
        {
          "indexed": false,
          "name": "thirdArg",
          "type": "bytes32"
        },
        {
          "indexed": false,
          "name": "confirmers",
          "type": "address[]"
        }
      ],
      "name": "RevokeRequest",
      "type": "event"
    },
    {
      "anonymous": false,
      "inputs": [
        {
          "indexed": true,
          "name": "id",
          "type": "bytes32"
        },
        {
          "indexed": true,
          "name": "from",
          "type": "address"
        },
        {
          "indexed": false,
          "name": "functionId",
          "type": "uint8"
        },
        {
          "indexed": false,
          "name": "firstArg",
          "type": "bytes32"
        },
        {
          "indexed": false,
          "name": "secondArg",
          "type": "bytes32"
        },
        {
          "indexed": false,
          "name": "thirdArg",
          "type": "bytes32"
        }
      ],
      "name": "CancelRequest",
      "type": "event"
    },
    {
      "anonymous": false,
      "inputs": [
        {
          "indexed": true,
          "name": "id",
          "type": "bytes32"
        },
        {
          "indexed": true,
          "name": "from",
          "type": "address"
        },
        {
          "indexed": false,
          "name": "functionId",
          "type": "uint8"
        },
        {
          "indexed": false,
          "name": "firstArg",
          "type": "bytes32"
        },
        {
          "indexed": false,
          "name": "secondArg",
          "type": "bytes32"
        },
        {
          "indexed": false,
          "name": "thirdArg",
          "type": "bytes32"
        }
      ],
      "name": "ExecuteRequestSuccess",
      "type": "event"
    },
    {
      "anonymous": false,
      "inputs": [
        {
          "indexed": true,
          "name": "id",
          "type": "bytes32"
        },
        {
          "indexed": true,
          "name": "from",
          "type": "address"
        },
        {
          "indexed": false,
          "name": "functionId",
          "type": "uint8"
        },
        {
          "indexed": false,
          "name": "firstArg",
          "type": "bytes32"
        },
        {
          "indexed": false,
          "name": "secondArg",
          "type": "bytes32"
        },
        {
          "indexed": false,
          "name": "thirdArg",
          "type": "bytes32"
        }
      ],
      "name": "ExecuteRequestFailure",
      "type": "event"
    },
    {
      "anonymous": false,
      "inputs": [
        {
          "indexed": false,
          "name": "to",
          "type": "address"
        },
        {
          "indexed": false,
          "name": "value",
          "type": "uint256"
        }
      ],
      "name": "TransferKlay",
      "type": "event"
    },
    {
      "anonymous": false,
      "inputs": [
        {
          "indexed": true,
          "name": "sender",
          "type": "address"
        },
        {
          "indexed": false,
          "name": "value",
          "type": "uint256"
        }
      ],
      "name": "Deposit",
      "type": "event"
    }
  ],
  "bytecode": "0x60806040523480156200001157600080fd5b50604051620031b0380380620031b083398101604052805160208201519101805190919060009082603282118015906200004b5750818111155b80156200005757508015155b80156200006357508115155b1515620000d157604080517f08c379a000000000000000000000000000000000000000000000000000000000815260206004820152601460248201527f496e76616c696420726571756972656d656e742e000000000000000000000000604482015290519081900360640190fd5b600092505b84518310156200020b57600260008685815181101515620000f357fe5b6020908102909101810151600160a060020a031682528101919091526040016000205460ff1615801562000149575084838151811015156200013157fe5b90602001906020020151600160a060020a0316600014155b1515620001b757604080517f08c379a000000000000000000000000000000000000000000000000000000000815260206004820152601e60248201527f41646472657373206973206e756c6c206f72206e6f7420756e697175652e0000604482015290519081900360640190fd5b6001600260008786815181101515620001cc57fe5b602090810291909101810151600160a060020a03168252810191909152604001600020805460ff191691151591909117905560019290920191620000d6565b84516200022090600090602088019062000357565b506001849055604080518082018252600b81527f506f63436f6e747261637400000000000000000000000000000000000000000060208083019182528351938401889052606080855283519085015282517fc5caa942b8f8ea45a2e094d941dbba0ef9c0307f34c81ce78e71bfb128d6b25a946000938a939192839283019160808401918083838a5b83811015620002c3578181015183820152602001620002a9565b50505050905090810190601f168015620002f15780820380516001836020036101000a031916815260200191505b5083810382528581815481526020019150805480156200033b57602002820191906000526020600020905b8154600160a060020a031681526001909101906020018083116200031c575b50509550505050505060405180910390a15050505050620003eb565b828054828255906000526020600020908101928215620003af579160200282015b82811115620003af5782518254600160a060020a031916600160a060020a0390911617825560209092019160019091019062000378565b50620003bd929150620003c1565b5090565b620003e891905b80821115620003bd578054600160a060020a0319168155600101620003c8565b90565b612db580620003fb6000396000f3006080604052600436106101325763ffffffff7c01000000000000000000000000000000000000000000000000000000006000350416630f61007281146101c25780631865c57d146101e957806327e1f7df146102595780633f0628b11461027c578063407091eb146102a05780634b6a94cc1461033c5780634f97638f146103c657806358d65880146103db57806370480275146103f0578063778f39cb14610411578063791b5123146104265780637a5ed9b11461044757806382d67e5a1461046b578063863f5c0a1461052257806387cd9feb146105435780638e6f6b7714610558578063934d1fa41461056d5780639cbaca3b14610582578063b7563930146105a6578063c47afb3a146105bb578063da34a0bd146105d3578063e748357b14610638578063ffa1ad7414610650575b6000341161018a576040805160e560020a62461bcd02815260206004820152600e60248201527f496e76616c69642076616c75652e000000000000000000000000000000000000604482015290519081900360640190fd5b60408051348152905133917fe1fffcc4923d04b559f4d29a8bfc6cda04eb5b0d3c460751c2402c5c5cc9109c919081900360200190a2005b3480156101ce57600080fd5b506101d7610665565b60408051918252519081900360200190f35b3480156101f557600080fd5b506101fe61066b565b6040518080602001838152602001828103825284818151815260200191508051906020019060200280838360005b8381101561024457818101518382015260200161022c565b50505050905001935050505060405180910390f35b34801561026557600080fd5b5061027a600160a060020a03600435166106d7565b005b34801561028857600080fd5b5061027a60ff60043516602435604435606435610968565b3480156102ac57600080fd5b506102c460ff60043516602435604435606435610ff9565b6040805185815290810183905260208101606082018360048111156102e557fe5b60ff168152602001828103825285818151815260200191508051906020019060200280838360005b8381101561032557818101518382015260200161030d565b505050509050019550505050505060405180910390f35b34801561034857600080fd5b506103516110a6565b6040805160208082528351818301528351919283929083019185019080838360005b8381101561038b578181015183820152602001610373565b50505050905090810190601f1680156103b85780820380516001836020036101000a031916815260200191505b509250505060405180910390f35b3480156103d257600080fd5b5061027a6110dd565b3480156103e757600080fd5b506101d76111e2565b3480156103fc57600080fd5b5061027a600160a060020a03600435166111e7565b34801561041d57600080fd5b506101d76113c6565b34801561043257600080fd5b5061027a600160a060020a03600435166113cb565b34801561045357600080fd5b5061027a600160a060020a03600435166024356115e2565b34801561047757600080fd5b506104836004356117c6565b6040518088600581111561049357fe5b60ff16815260208101889052604081018790526060810186905260a08101849052608081019060c0018360048111156104c857fe5b60ff168152602001828103825285818151815260200191508051906020019060200280838360005b838110156105085781810151838201526020016104f0565b505050509050019850505050505050505060405180910390f35b34801561052e57600080fd5b5061027a600160a060020a0360043516611884565b34801561054f57600080fd5b5061027a611a64565b34801561056457600080fd5b506101d7611b22565b34801561057957600080fd5b506101d7611b29565b34801561058e57600080fd5b5061027a600160a060020a0360043516602435611b30565b3480156105b257600080fd5b506101d7611bf4565b3480156105c757600080fd5b5061027a600435611bfa565b3480156105df57600080fd5b506105e8611d4d565b60408051602080825283518183015283519192839290830191858101910280838360005b8381101561062457818101518382015260200161060c565b505050509050019250505060405180910390f35b34801561064457600080fd5b5061027a600435611da6565b34801561065c57600080fd5b506101d7611f29565b60015b90565b6060600080600154818054806020026020016040519081016040528092919081815260200182805480156106c857602002820191906000526020600020905b8154600160a060020a031681526001909101906020018083116106aa575b50505050509150915091509091565b60008033301461071f576040805160e560020a62461bcd02815260206004820152601b6024820152600080516020612d4a833981519152604482015290519081900360640190fd5b600160a060020a038316600090815260026020526040902054839060ff161515610781576040805160e560020a62461bcd0281526020600482015260156024820152600080516020612d2a833981519152604482015290519081900360640190fd5b60005461079590600163ffffffff611f2e16565b600154603282111580156107a95750818111155b80156107b457508015155b80156107bf57508115155b1515610803576040805160e560020a62461bcd0281526020600482015260146024820152600080516020612d6a833981519152604482015290519081900360640190fd5b60008054600160a060020a0388168252600260205260408220805460ff19169055955093505b600185038410156108dc5785600160a060020a031660008581548110151561084d57fe5b600091825260209091200154600160a060020a031614156108d15760008054600019870190811061087a57fe5b60009182526020822001548154600160a060020a0390911691908690811061089e57fe5b9060005260206000200160006101000a815481600160a060020a030219169083600160a060020a031602179055506108dc565b600190930192610829565b6000805460001987019081106108ee57fe5b600091825260208220018054600160a060020a03191690555461091890600163ffffffff611f2e16565b610923600082612c04565b5061092c6110dd565b604051600160a060020a038716907f1af6bd3d85a56e7c4a0700756fd2ca3b3b65c266e56c77652c5a346bc256522090600090a2505050505050565b33600081815260026020526040812054909182918291829160ff1615156109c7576040805160e560020a62461bcd0281526020600482015260156024820152600080516020612d2a833981519152604482015290519081900360640190fd5b6109d389898989611f45565b6000818152600360205260409020600501549095501515610a3e576040805160e560020a62461bcd02815260206004820152601060248201527f496e76616c696420726571756573742e00000000000000000000000000000000604482015290519081900360640190fd5b600160008681526003602052604090206006015460ff166004811115610a6057fe5b14610ab5576040805160e560020a62461bcd02815260206004820152601f60248201527f4d757374206265206174206e6f742d636f6e6669726d65642073746174652e00604482015290519081900360640190fd5b60008581526003602052604081206004015490945092508391505b82821015610f97576000858152600360205260409020600401805483908110610af557fe5b600091825260209091200154600160a060020a0316331415610f8c57600085815260036020526040902060050154600194504262093a809091011015610ca15760008581526003602052604090206005015442621275009091011015610bb057610b5e85612018565b60008581526003602081905260408220805460ff19168155600181018390556002810183905590810182905590610b986004830182612c28565b5060006005820155600601805460ff19169055610bcd565b6000858152600360205260409020600601805460ff191660041790555b600085815260036020526040908190209051339187917f9f3ca7a04988021200a04e0775f46648683bffe7203608269a66c371befe5685918d918d918d918d916004019080866005811115610c1e57fe5b60ff16815260208101869052604081018590526060810184905260a082820381016080830190815284549183018290529160c0019084908015610c8a57602002820191906000526020600020905b8154600160a060020a03168152600190910190602001808311610c6c575b5050965050505050505060405180910390a3610f87565b60001983018214610d3257600085815260036020526040902060040180546000198501908110610ccd57fe5b6000918252602080832090910154878352600390915260409091206004018054600160a060020a039092169184908110610d0357fe5b9060005260206000200160006101000a815481600160a060020a030219169083600160a060020a031602179055505b600085815260036020526040902060040180546000198501908110610d5357fe5b600091825260208083209091018054600160a060020a0319169055868252600390526040902060040154610d8e90600163ffffffff611f2e16565b6000868152600360205260409020610da99060040182612c04565b5060008581526003602081905260409182902080546001820154600283015493830154945133958b957f9c174b2536ba49e3478ca649dac74d9e9f71f70adf70f193e780eabbfcdc367c9560ff90951694909260049091019080866005811115610e0f57fe5b60ff16815260208101869052604081018590526060810184905260a082820381016080830190815284549183018290529160c0019084908015610e7b57602002820191906000526020600020905b8154600160a060020a03168152600190910190602001808311610e5d575b5050965050505050505060405180910390a36000858152600360205260409020600401541515610f8757610eae85612018565b60008581526003602081905260408220805460ff19168155600181018390556002810183905590810182905590610ee86004830182612c28565b50600060058281018290556006909201805460ff19169055868152600360208190526040918290208054600182015460028301549290930154935133958b957fbfda049a0206fd9c90ed4a3170f5bfaad83c323a16835dd68fea92faa247c2cd9560ff9094169492909181908690811115610f5f57fe5b60ff168152602081019490945250604080840192909252606083015251908190036080019150a35b610f97565b600190910190610ad0565b831515610fee576040805160e560020a62461bcd02815260206004820152601d60248201527f4d73672e73656e64657220686173206e6f74207265717565737465642e000000604482015290519081900360640190fd5b505050505050505050565b60006060600080600061100e89898989611f45565b600081815260036020908152604091829020600581015460068201546004909201805485518186028101860190965280865295965086959094919360ff9093169285919083018282801561108b57602002820191906000526020600020905b8154600160a060020a0316815260019091019060200180831161106d575b50505050509250945094509450945050945094509450949050565b60408051808201909152600b81527f506f63436f6e7472616374000000000000000000000000000000000000000000602082015281565b600080333014611125576040805160e560020a62461bcd02815260206004820152601b6024820152600080516020612d4a833981519152604482015290519081900360640190fd5b505060045460005b818110156111a9576003600060048381548110151561114857fe5b600091825260208083209091015483528201929092526040018120805460ff191681556001810182905560028101829055600381018290559061118e6004830182612c28565b5060006005820155600601805460ff1916905560010161112d565b6111b560046000612c28565b6040517f907527d30089abd16e30f06ddbbbc18480505176262f19bc16c1fbf9262f9c6b90600090a15050565b603281565b33301461122c576040805160e560020a62461bcd02815260206004820152601b6024820152600080516020612d4a833981519152604482015290519081900360640190fd5b600160a060020a038116600090815260026020526040902054819060ff161561129f576040805160e560020a62461bcd02815260206004820152601460248201527f41646d696e20616c72656164792065786974732e000000000000000000000000604482015290519081900360640190fd5b6000546112b390600163ffffffff6120da16565b600154603282111580156112c75750818111155b80156112d257508015155b80156112dd57508115155b1515611321576040805160e560020a62461bcd0281526020600482015260146024820152600080516020612d6a833981519152604482015290519081900360640190fd5b600160a060020a0384166000818152600260205260408120805460ff19166001908117909155815490810182559080527f290decd9548b62a8d60345a988386fc84ba6bc95484008f6362f93160ef3e563018054600160a060020a031916909117905561138c6110dd565b604051600160a060020a038516907fad6de4452a631e641cb59902236607946ce9272b9b981f2f80e8d129cb9084ba90600090a250505050565b606481565b600160a060020a038116600090815260026020526040812054829060ff16151561142d576040805160e560020a62461bcd0281526020600482015260156024820152600080516020612d2a833981519152604482015290519081900360640190fd5b3360008181526002602052604090205460ff161515611484576040805160e560020a62461bcd0281526020600482015260156024820152600080516020612d2a833981519152604482015290519081900360640190fd5b83600160a060020a03811615156114e5576040805160e560020a62461bcd02815260206004820152601060248201527f41646472657373206973206e756c6c2e00000000000000000000000000000000604482015290519081900360640190fd5b6000546114f990600163ffffffff611f2e16565b6001546032821115801561150d5750818111155b801561151857508015155b801561152357508115155b1515611567576040805160e560020a62461bcd0281526020600482015260146024820152600080516020612d6a833981519152604482015290519081900360640190fd5b61157e6002600160a060020a038916600080611f45565b95506115976002600160a060020a0389166000806120f3565b6115a086612724565b80156115cb5750600160008781526003602052604090206006015460ff1660048111156115c957fe5b145b156115d9576115d98661273f565b50505050505050565b600082600160a060020a0381161515611645576040805160e560020a62461bcd02815260206004820152601060248201527f41646472657373206973206e756c6c2e00000000000000000000000000000000604482015290519081900360640190fd5b3360008181526002602052604090205460ff16151561169c576040805160e560020a62461bcd0281526020600482015260156024820152600080516020612d2a833981519152604482015290519081900360640190fd5b600084116116f4576040805160e560020a62461bcd02815260206004820152600e60248201527f496e76616c69642076616c75652e000000000000000000000000000000000000604482015290519081900360640190fd5b303184111561174d576040805160e560020a62461bcd02815260206004820152601760248201527f4e6f742073756666696369656e742062616c616e63652e000000000000000000604482015290519081900360640190fd5b6117646005600160a060020a038716866000611f45565b925061177d6005600160a060020a0387168660006120f3565b61178683612724565b80156117b15750600160008481526003602052604090206006015460ff1660048111156117af57fe5b145b156117bf576117bf8361273f565b5050505050565b60008181526003602081815260408084208054600182015460028301549583015460058401546006850154600490950180548751818a0281018a019098528088528a998a998a996060998b998a9960ff91821699909895979096909594919092169291859183018282801561186457602002820191906000526020600020905b8154600160a060020a03168152600190910190602001808311611846575b505050505092509650965096509650965096509650919395979092949650565b3360008181526002602052604081205490919060ff1615156118de576040805160e560020a62461bcd0281526020600482015260156024820152600080516020612d2a833981519152604482015290519081900360640190fd5b600160a060020a038316600090815260026020526040902054839060ff1615611951576040805160e560020a62461bcd02815260206004820152601460248201527f41646d696e20616c72656164792065786974732e000000000000000000000000604482015290519081900360640190fd5b83600160a060020a03811615156119b2576040805160e560020a62461bcd02815260206004820152601060248201527f41646472657373206973206e756c6c2e00000000000000000000000000000000604482015290519081900360640190fd5b6000546119c690600163ffffffff6120da16565b600154603282111580156119da5750818111155b80156119e557508015155b80156119f057508115155b1515611a34576040805160e560020a62461bcd0281526020600482015260146024820152600080516020612d6a833981519152604482015290519081900360640190fd5b611a4b6001600160a060020a038916600080611f45565b95506115976001600160a060020a0389166000806120f3565b3360008181526002602052604081205490919060ff161515611abe576040805160e560020a62461bcd0281526020600482015260156024820152600080516020612d2a833981519152604482015290519081900360640190fd5b611acc600460008080611f45565b9150611adc6004600080806120f3565b611ae582612724565b8015611b105750600160008381526003602052604090206006015460ff166004811115611b0e57fe5b145b15611b1e57611b1e8261273f565b5050565b62093a8081565b6212750081565b333014611b75576040805160e560020a62461bcd02815260206004820152601b6024820152600080516020612d4a833981519152604482015290519081900360640190fd5b604051600160a060020a0383169082156108fc029083906000818181858888f19350505050158015611bab573d6000803e3d6000fd5b5060408051600160a060020a03841681526020810183905281517f46e4ea24e53e5210013b37fff7d00f1d26085196b867118a7174705d098bfdd6929181900390910190a15050565b60015481565b333014611c3f576040805160e560020a62461bcd02815260206004820152601b6024820152600080516020612d4a833981519152604482015290519081900360640190fd5b6000548160328211801590611c545750818111155b8015611c5f57508015155b8015611c6a57508115155b1515611cae576040805160e560020a62461bcd0281526020600482015260146024820152600080516020612d6a833981519152604482015290519081900360640190fd5b600154831415611d08576040805160e560020a62461bcd02815260206004820152601160248201527f53616d6520726571756972656d656e742e000000000000000000000000000000604482015290519081900360640190fd5b6001839055611d156110dd565b6040805184815290517f8951393946c27b45080aad111464c16c70f3d5e7d24b114a627334441961bf5f9181900360200190a1505050565b60606004805480602002602001604051908101604052809291908181526020018280548015611d9c57602002820191906000526020600020905b81548152600190910190602001808311611d87575b5050505050905090565b3360008181526002602052604081205490919060ff161515611e00576040805160e560020a62461bcd0281526020600482015260156024820152600080516020612d2a833981519152604482015290519081900360640190fd5b6000548360328211801590611e155750818111155b8015611e2057508015155b8015611e2b57508115155b1515611e6f576040805160e560020a62461bcd0281526020600482015260146024820152600080516020612d6a833981519152604482015290519081900360640190fd5b600154851415611ec9576040805160e560020a62461bcd02815260206004820152601160248201527f53616d6520726571756972656d656e742e000000000000000000000000000000604482015290519081900360640190fd5b611ed7600386600080611f45565b9350611ee76003866000806120f3565b611ef084612724565b8015611f1b5750600160008581526003602052604090206006015460ff166004811115611f1957fe5b145b156117bf576117bf8461273f565b600181565b60008083831115611f3e57600080fd5b5050900390565b60008484848460405160200180856005811115611f5e57fe5b60ff167f010000000000000000000000000000000000000000000000000000000000000002815260018101949094525060218301919091526041808301919091526040805180840390920182526061909201918290528051909250819060208401908083835b60208310611fe35780518252601f199092019160209182019101611fc4565b5181516020939093036101000a6000190180199091169216919091179052604051920182900390912098975050505050505050565b60045460005b818110156120d557600480548290811061203457fe5b6000918252602090912001548314156120cd576000198201811461208b5760048054600019840190811061206457fe5b906000526020600020015460048281548110151561207e57fe5b6000918252602090912001555b60048054600019840190811061209d57fe5b60009182526020822001556004546120bc90600163ffffffff611f2e16565b6120c7600482612c04565b506120d5565b60010161201e565b505050565b6000828201838110156120ec57600080fd5b9392505050565b600080600061210487878787611f45565b6000818152600360205260409020600501549093501561248d57600083815260036020526040902060050154426212750090910110156121995761214783612018565b60008381526003602081905260408220805460ff191681556001810183905560028101839055908101829055906121816004830182612c28565b5060006005820155600601805460ff1916905561248d565b6000838152600360205260409020600501544262093a8090910110156122d157600460008481526003602052604090206006015460ff1660048111156121db57fe5b146121fd576000838152600360205260409020600601805460ff191660041790555b600083815260036020526040908190209051339185917f9f3ca7a04988021200a04e0775f46648683bffe7203608269a66c371befe5685918b918b918b918b91600401908086600581111561224e57fe5b60ff16815260208101869052604081018590526060810184905260a082820381016080830190815284549183018290529160c00190849080156122ba57602002820191906000526020600020905b8154600160a060020a0316815260019091019060200180831161229c575b5050965050505050505060405180910390a361248d565b600083815260036020526040902060050154421061248d575050600081815260036020526040812060040154905b8181101561239857600083815260036020526040902060040180548290811061232457fe5b600091825260209091200154600160a060020a0316331415612390576040805160e560020a62461bcd02815260206004820152601d60248201527f4d73672e73656e64657220616c7265616479207265717565737465642e000000604482015290519081900360640190fd5b6001016122ff565b600083815260036020908152604080832060040180546001810182558185529284209092018054600160a060020a03191633908117909155928690525185917fb7b03afe355fcf2b1d00e020db2b1a902b9ee1b1c1d995626c1e18c957340ea8918b918b918b918b918086600581111561240e57fe5b60ff16815260208101869052604081018590526060810184905260a082820381016080830190815284549183018290529160c001908490801561247a57602002820191906000526020600020905b8154600160a060020a0316815260019091019060200180831161245c575b5050965050505050505060405180910390a35b60008381526003602052604090206005015415156115d9576004546064116125125760048760058111156124bd57fe5b14612512576040805160e560020a62461bcd02815260206004820152601560248201527f52657175657374206c6973742069732066756c6c2e0000000000000000000000604482015290519081900360640190fd5b60e06040519081016040528088600581111561252a57fe5b81526020808201899052604080830189905260608301889052805160008082529281019091526080909201919050815242602082015260400160019052600084815260036020526040902081518154829060ff1916600183600581111561258d57fe5b021790555060208281015160018301556040830151600283015560608301516003830155608083015180516125c89260048501920190612c49565b5060a0820151600582015560c082015160068201805460ff191660018360048111156125f057fe5b0217905550505060008381526003602090815260408083206004908101805460018181018355828752948620018054600160a060020a0319163390811790915582549485019092557f8a35acfbc15ff81a39ae7d344fd709f28e8600b4aa8c65c6b64bfe7fe36bd19b909301879055928690525185917fb7b03afe355fcf2b1d00e020db2b1a902b9ee1b1c1d995626c1e18c957340ea8918b918b918b918b918086600581111561269d57fe5b60ff16815260208101869052604081018590526060810184905260a082820381016080830190815284549183018290529160c001908490801561270957602002820191906000526020600020905b8154600160a060020a031681526001909101906020018083116126eb575b5050965050505050505060405180910390a350505050505050565b60015460009182526003602052604090912060040154101590565b6000612749612cae565b600083815260036020526040808220815160e0810190925280549294509091829060ff16600581111561277857fe5b600581111561278357fe5b81526001820154602080830191909152600283015460408084019190915260038401546060840152600484018054825181850281018501909352808352608090940193919290919083018282801561280457602002820191906000526020600020905b8154600160a060020a031681526001909101906020018083116127e6575b505050918352505060058201546020820152600682015460409091019060ff16600481111561282f57fe5b600481111561283a57fe5b905250905060018151600581111561284e57fe5b14156128b8576020810151604080517f70480275000000000000000000000000000000000000000000000000000000008152600160a060020a0390921660048301525130916370480275916024808301926000929190829003018183875af1925050509150612a8a565b6002815160058111156128c757fe5b1415612931576020810151604080517f27e1f7df000000000000000000000000000000000000000000000000000000008152600160a060020a0390921660048301525130916327e1f7df916024808301926000929190829003018183875af1925050509150612a8a565b60038151600581111561294057fe5b14156129a2576020810151604080517fc47afb3a000000000000000000000000000000000000000000000000000000008152600481019290925251309163c47afb3a916024808301926000929190829003018183875af1925050509150612a8a565b6004815160058111156129b157fe5b1415612a0d5730600160a060020a0316634f97638f6040518163ffffffff167c01000000000000000000000000000000000000000000000000000000000281526004016000604051808303816000875af1925050509150612a8a565b600581516005811115612a1c57fe5b1415612a8a57602081015160408083015181517f9cbaca3b000000000000000000000000000000000000000000000000000000008152600160a060020a0390931660048401526024830152513091639cbaca3b916044808301926000929190829003018183875af194505050505b612a9383612018565b8115612b4d5760008381526003602052604090206005015415612acd576000838152600360205260409020600601805460ff191660021790555b33600160a060020a031683600019167fc55c9229184beabeee72b6970a96691b4200919e47579cc4b9be50a1bec7ef11836000015184602001518560400151866060015160405180856005811115612b2157fe5b60ff168152602081019490945250604080840192909252606083015251908190036080019150a36120d5565b60008381526003602052604090206005015415612b84576000838152600360208190526040909120600601805460ff191690911790555b33600160a060020a031683600019167ff151a3ee41626c2511372320f09f7957af81c8c1cde8cdf3f05a5979626eaaf3836000015184602001518560400151866060015160405180856005811115612bd857fe5b60ff168152602081019490945250604080840192909252606083015251908190036080019150a3505050565b8154818355818111156120d5576000838152602090206120d5918101908301612ceb565b5080546000825590600052602060002090810190612c469190612ceb565b50565b828054828255906000526020600020908101928215612c9e579160200282015b82811115612c9e5782518254600160a060020a031916600160a060020a03909116178255602090920191600190910190612c69565b50612caa929150612d05565b5090565b6040805160e081019091528060008152600060208201819052604082018190526060808301829052608083015260a0820181905260c09091015290565b61066891905b80821115612caa5760008155600101612cf1565b61066891905b80821115612caa578054600160a060020a0319168155600101612d0b560041646472657373206973206e6f742061646d696e2e00000000000000000000004e6f742061206d756c74697369672d7472616e73616374696f6e2e0000000000496e76616c696420726571756972656d656e742e000000000000000000000000a165627a7a723058206dc970b164af9724012659216b6e1bb50bc9902bc7a87fd9da3fd3253646eec20029",
  "linkReferences": {},
  "deployedLinkReferences": {}
}