{
  "_format": "hh-sol-artifact-1",
  "contractName": "PublicDelegationFactory",
  "sourceName": "contracts/system_contracts/consensus/PublicDelegation/PublicDelegationFactory.sol",
  "abi": [
    {
      "inputs": [],
      "name": "CONTRACT_TYPE",
      "outputs": [
        {
          "internalType": "string",
          "name": "",
          "type": "string"
        }
      ],
      "stateMutability": "view",
      "type": "function"
    },
    {
      "inputs": [],
      "name": "VERSION",
      "outputs": [
        {
          "internalType": "uint256",
          "name": "",
          "type": "uint256"
        }
      ],
      "stateMutability": "view",
      "type": "function"
    },
    {
      "inputs": [
        {
          "components": [
            {
              "internalType": "address",
              "name": "owner",
              "type": "address"
            },
            {
              "internalType": "address",
              "name": "commissionTo",
              "type": "address"
            },
            {
              "internalType": "uint256",
              "name": "commissionRate",
              "type": "uint256"
            },
            {
              "internalType": "string",
              "name": "gcName",
              "type": "string"
            }
          ],
          "internalType": "struct IPublicDelegation.PDConstructorArgs",
          "name": "_pdArgs",
          "type": "tuple"
        }
      ],
      "name": "deployPublicDelegation",
      "outputs": [
        {
          "internalType": "contract IPublicDelegation",
          "name": "publicDelegation",
          "type": "address"
        }
      ],
      "stateMutability": "nonpayable",
      "type": "function"
    }
  ],
  "bytecode": "0x6080604052348015600f57600080fd5b5061329e8061001f6000396000f3fe608060405234801561001057600080fd5b50600436106100415760003560e01c80634b6a94cc14610046578063787821cc14610098578063ffa1ad74146100c3575b600080fd5b6100826040518060400160405280601781526020017f5075626c696344656c65676174696f6e466163746f727900000000000000000081525081565b60405161008f919061016a565b60405180910390f35b6100ab6100a6366004610210565b6100d9565b6040516001600160a01b03909116815260200161008f565b6100cb600181565b60405190815260200161008f565b600033826040516100e990610117565b6100f49291906102fd565b604051809103906000f080158015610110573d6000803e3d6000fd5b5092915050565b612f148061035583390190565b6000815180845260005b8181101561014a5760208185018101518683018201520161012e565b506000602082860101526020601f19601f83011685010191505092915050565b60208152600061017d6020830184610124565b9392505050565b634e487b7160e01b600052604160045260246000fd5b6040516080810167ffffffffffffffff811182821017156101bd576101bd610184565b60405290565b604051601f8201601f1916810167ffffffffffffffff811182821017156101ec576101ec610184565b604052919050565b80356001600160a01b038116811461020b57600080fd5b919050565b6000602080838503121561022357600080fd5b823567ffffffffffffffff8082111561023b57600080fd5b908401906080828703121561024f57600080fd5b61025761019a565b610260836101f4565b815261026d8484016101f4565b848201526040830135604082015260608301358281111561028d57600080fd5b80840193505086601f8401126102a257600080fd5b8235828111156102b4576102b4610184565b6102c6601f8201601f191686016101c3565b925080835287858286010111156102dc57600080fd5b80858501868501376000908301909401939093526060830152509392505050565b600060018060a01b0380851683526040602084015280845116604084015280602085015116606084015250604083015160808301526060830151608060a084015261034b60c0840182610124565b9594505050505056fe60a060405234801561001057600080fd5b50604051612f14380380612f1483398101604081905261002f916102bd565b8051606082015160405161004691906020016103bd565b604051602081830303815290604052826060015160405160200161006a91906103fe565b60408051601f19818403018152919052600761008683826104b4565b50600861009382826104b4565b5050506001600160a01b0381166100c557604051631e4fbdf760e01b8152600060048201526024015b60405180910390fd5b6100ce816101bd565b50610bb8816040015111156101255760405162461bcd60e51b815260206004820152601c60248201527f436f6d6d697373696f6e207261746520697320746f6f20686967682e0000000060448201526064016100bc565b6001600160a01b03828116608052604082810151600155602080840151600080546001600160a01b031916919094161790925580518082018252601081526f283ab13634b1a232b632b3b0ba34b7b760811b92810192909252517f559705a83e2830cb29ab43f78af7f847810ba4a5bff2a637f7e5665ecf8dc55f916101ae918590859061059f565b60405180910390a1505061060a565b600980546001600160a01b038381166001600160a01b0319831681179093556040519116919082907f8be0079c531659141344cd1fd0a4f28419497f9722a3daafe3b4186f6b6457e090600090a35050565b80516001600160a01b038116811461022657600080fd5b919050565b634e487b7160e01b600052604160045260246000fd5b604051608081016001600160401b03811182821017156102635761026361022b565b60405290565b604051601f8201601f191681016001600160401b03811182821017156102915761029161022b565b604052919050565b60005b838110156102b457818101518382015260200161029c565b50506000910152565b600080604083850312156102d057600080fd5b6102d98361020f565b602084810151919350906001600160401b03808211156102f857600080fd5b908501906080828803121561030c57600080fd5b610314610241565b61031d8361020f565b815261032a84840161020f565b848201526040830151604082015260608301518281111561034a57600080fd5b80840193505087601f84011261035f57600080fd5b8251828111156103715761037161022b565b610383601f8201601f19168601610269565b9250808352888582860101111561039957600080fd5b6103a881868501878701610299565b50816060820152809450505050509250929050565b600082516103cf818460208701610299565b7f205075626c69632044656c656761746564204b41494100000000000000000000920191825250601601919050565b60008251610410818460208701610299565b662d70644b41494160c81b920191825250600701919050565b600181811c9082168061043d57607f821691505b60208210810361045d57634e487b7160e01b600052602260045260246000fd5b50919050565b601f8211156104af576000816000526020600020601f850160051c8101602086101561048c5750805b601f850160051c820191505b818110156104ab57828155600101610498565b5050505b505050565b81516001600160401b038111156104cd576104cd61022b565b6104e1816104db8454610429565b84610463565b602080601f83116001811461051657600084156104fe5750858301515b600019600386901b1c1916600185901b1785556104ab565b600085815260208120601f198616915b8281101561054557888601518255948401946001909101908401610526565b50858210156105635787850151600019600388901b60f8161c191681555b5050505050600190811b01905550565b6000815180845261058b816020860160208601610299565b601f01601f19169290920160200192915050565b6060815260006105b26060830186610573565b60018060a01b038086166020850152838203604085015280855116825280602086015116602083015250604084015160408201526060840151608060608301526105ff6080830182610573565b979650505050505050565b6080516128a961066b6000396000818161079801528181610abb0152818161136f015281816113f1015281816114d3015281816115950152818161173e015281816119a401528181611b9d01528181611c470152611f4101526128a96000f3fe6080604052600436106102755760003560e01c80635ea1d6f81161014f578063c804b115116100c1578063e659d7d71161007a578063e659d7d7146107ba578063ef8b30f7146107da578063f29177c3146107fa578063f2fde38b14610830578063f3fef3a314610850578063ffa1ad741461087057600080fd5b8063c804b115146106c0578063ce96cb77146106e0578063d905777e14610700578063dd62ed3e14610720578063e15fc35014610766578063e2c8bde51461078657600080fd5b806393b89a841161011357806393b89a84146105f557806395d89b411461061557806397feb23c1461062a578063a9059cbb1461064a578063c166c4581461066a578063c6e6f592146106a057600080fd5b80635ea1d6f81461054957806360df7c6c1461055f57806370a082311461058c578063715018a6146105c25780638da5cb5b146105d757600080fd5b8063228cb733116101e8578063379607f5116101ac578063379607f51461049c5780633a4b66f1146104bc5780633b1dbfcc146104c45780634b6a94cc146104da5780634bf69206146105165780634cdad5061461052957600080fd5b8063228cb733146103fe57806323b872dd146104135780632f9ac83a14610433578063313ce5671461046b57806335faa4161461048757600080fd5b806307a2d13a1161023a57806307a2d13a14610343578063095ea7b3146103635780630a28a4771461039357806318160ddd146103b35780631e9a6950146103c8578063207239c0146103e857600080fd5b8062fa3d501461028c57806301e1d114146102ac57806304ddc9d1146102d4578063052028d01461030157806306fdde031461032157600080fd5b3661028757610285335b34610885565b005b600080fd5b34801561029857600080fd5b506102856102a73660046123aa565b61099e565b3480156102b857600080fd5b506102c1610a3c565b6040519081526020015b60405180910390f35b3480156102e057600080fd5b506102f46102ef3660046123aa565b610a4b565b6040516102cb91906123d9565b34801561030d57600080fd5b5061028561031c366004612416565b610b70565b34801561032d57600080fd5b50610336610bd3565b6040516102cb9190612457565b34801561034f57600080fd5b506102c161035e3660046123aa565b610c65565b34801561036f57600080fd5b5061038361037e36600461248a565b610c9c565b60405190151581526020016102cb565b34801561039f57600080fd5b506102c16103ae3660046123aa565b610cb6565b3480156103bf57600080fd5b506006546102c1565b3480156103d457600080fd5b506102856103e336600461248a565b610ce0565b3480156103f457600080fd5b506102c1610bb881565b34801561040a57600080fd5b506102c1610d81565b34801561041f57600080fd5b5061038361042e3660046124b6565b610d8b565b34801561043f57600080fd5b50600054610453906001600160a01b031681565b6040516001600160a01b0390911681526020016102cb565b34801561047757600080fd5b50604051601281526020016102cb565b34801561049357600080fd5b50610285610daf565b3480156104a857600080fd5b506102856104b73660046123aa565b610dbc565b610285610dd3565b3480156104d057600080fd5b506102c161271081565b3480156104e657600080fd5b506103366040518060400160405280601081526020016f283ab13634b1a232b632b3b0ba34b7b760811b81525081565b610285610524366004612416565b610ddc565b34801561053557600080fd5b506102c16105443660046123aa565b610e11565b34801561055557600080fd5b506102c160015481565b34801561056b57600080fd5b5061057f61057a366004612416565b610e1c565b6040516102cb91906124f7565b34801561059857600080fd5b506102c16105a7366004612416565b6001600160a01b031660009081526004602052604090205490565b3480156105ce57600080fd5b50610285610e88565b3480156105e357600080fd5b506009546001600160a01b0316610453565b34801561060157600080fd5b5061057f61061036600461253b565b610e9a565b34801561062157600080fd5b50610336610fad565b34801561063657600080fd5b506102c161064536600461248a565b610fbc565b34801561065657600080fd5b5061038361066536600461248a565b610fed565b34801561067657600080fd5b506102c1610685366004612416565b6001600160a01b031660009081526002602052604090205490565b3480156106ac57600080fd5b506102c16106bb3660046123aa565b610ffb565b3480156106cc57600080fd5b506102856106db3660046123aa565b611025565b3480156106ec57600080fd5b506102c16106fb366004612416565b611039565b34801561070c57600080fd5b506102c161071b366004612416565b61105b565b34801561072c57600080fd5b506102c161073b366004612578565b6001600160a01b03918216600090815260056020908152604080832093909416825291909152205490565b34801561077257600080fd5b5061028561078136600461248a565b611079565b34801561079257600080fd5b506104537f000000000000000000000000000000000000000000000000000000000000000081565b3480156107c657600080fd5b506102856107d536600461248a565b61114e565b3480156107e657600080fd5b506102c16107f53660046123aa565b61121f565b34801561080657600080fd5b506104536108153660046123aa565b6003602052600090815260409020546001600160a01b031681565b34801561083c57600080fd5b5061028561084b366004612416565b61122a565b34801561085c57600080fd5b5061028561086b36600461248a565b611265565b34801561087c57600080fd5b506102c1600181565b478190036000610894826112fb565b905080156108a5576108a581611310565b6001600160a01b0384161561098157600081836108c061136b565b0103905060006108d9856108d360065490565b84611477565b9050600081116109305760405162461bcd60e51b815260206004820152601860248201527f5374616b6520616d6f756e7420697320746f6f206c6f772e000000000000000060448201526064015b60405180910390fd5b61093a868261149b565b60408051868152602081018390526001600160a01b038816917f1449c6dd7851abc30abf37f57715f492010519147cc2652fbc38202c18a6ee90910160405180910390a250505b81830181810390821461099757610997816114d1565b5050505050565b6109a6611548565b610bb88111156109f85760405162461bcd60e51b815260206004820152601c60248201527f436f6d6d697373696f6e207261746520697320746f6f20686967682e000000006044820152606401610927565b610a03600080610885565b6001805490829055604051829082907f67fb2216d844c3553cf557bffa85f0fde0294999f808e61dcae1773d50d5e15090600090a35050565b6000610a46611575565b905090565b6000806000610a598461158d565b93509350505081600003610a71575060009392505050565b6002816002811115610a8557610a856123c3565b03610a94575060059392505050565b6001816002811115610aa857610aa86123c3565b03610ab7575060039392505050565b60007f00000000000000000000000000000000000000000000000000000000000000006001600160a01b03166396106ae46040518163ffffffff1660e01b8152600401602060405180830381865afa158015610b17573d6000803e3d6000fd5b505050506040513d601f19601f82011682018060405250810190610b3b91906125a6565b8301905082421015610b5257506001949350505050565b80421015610b6557506002949350505050565b506004949350505050565b610b78611548565b610b83600080610885565b600080546001600160a01b038381166001600160a01b0319831681178455604051919092169283917fa466bc069316af563b6a90c9b6f29a97752ac7be7c6bbf3767bc9b16c2fd90eb9190a35050565b606060078054610be2906125bf565b80601f0160208091040260200160405190810160405280929190818152602001828054610c0e906125bf565b8015610c5b5780601f10610c3057610100808354040283529160200191610c5b565b820191906000526020600020905b815481529060010190602001808311610c3e57829003601f168201915b5050505050905090565b600080610c7160065490565b90508015610c9357610c8e610c84610a3c565b8490836000611631565b610c95565b825b9392505050565b600033610caa818585611682565b60019150505b92915050565b600080610cc260065490565b90508015610c9357610c8e81610cd6610a3c565b8591906001611631565b816001600160a01b038116610d075760405162461bcd60e51b8152600401610927906125f9565b610d12600080610885565b6000610d1d83610e11565b9050610d29338461168f565b610d343385836116c5565b60408051828152602081018590526001600160a01b0386169133917f5cdf07ad0fc222442720b108e3ed4c4640f0fadc2ab2253e66f259a0fea8348091015b60405180910390a350505050565b6000610a46611835565b600033610d9985828561184b565b610da48585856118c9565b506001949350505050565b610dba600080610885565b565b610dc7600080610885565b610dd081611928565b50565b610dba3361027f565b806001600160a01b038116610e035760405162461bcd60e51b8152600401610927906125f9565b610e0d8234610885565b5050565b6000610cb082610c65565b6001600160a01b038116600090815260026020908152604091829020805483518184028101840190945280845260609392830182828015610e7c57602002820191906000526020600020905b815481526020019060010190808311610e68575b50505050509050919050565b610e90611548565b610dba6000611aa9565b6001600160a01b0382166000908152600260205260409020546060908067ffffffffffffffff811115610ecf57610ecf612623565b604051908082528060200260200182016040528015610ef8578160200160208202803683370190505b5091506000805b82811015610fa3576001600160a01b0386166000908152600260205260408120805483908110610f3157610f31612639565b90600052602060002001549050856005811115610f5057610f506123c3565b610f5982610a4b565b6005811115610f6a57610f6a6123c3565b03610f9a57808584610f7b81612665565b955081518110610f8d57610f8d612639565b6020026020010181815250505b50600101610eff565b5082525092915050565b606060088054610be2906125bf565b60026020528160005260406000208181548110610fd857600080fd5b90600052602060002001600091509150505481565b600033610caa8185856118c9565b60008061100760065490565b90508015610c9357610c8e8161101b610a3c565b8591906000611631565b611030600080610885565b610dd081611afb565b6001600160a01b038116600090815260046020526040812054610cb090610e11565b6001600160a01b038116600090815260046020526040812054610cb0565b611081611c43565b6110c65760405162461bcd60e51b81526020600482015260166024820152752932b232b632b3b0ba34b7b7103234b9b0b13632b21760511b6044820152606401610927565b6110da6001600160a01b0383166003611cc7565b61111d5760405162461bcd60e51b815260206004820152601460248201527324b73b30b634b21021b729ba30b5b4b733ab199760611b6044820152606401610927565b611128600080610885565b600061113382610e11565b905061113f338361168f565b6111498382611ee7565b505050565b611156611c43565b61119b5760405162461bcd60e51b81526020600482015260166024820152752932b232b632b3b0ba34b7b7103234b9b0b13632b21760511b6044820152606401610927565b6111af6001600160a01b0383166003611cc7565b6111f25760405162461bcd60e51b815260206004820152601460248201527324b73b30b634b21021b729ba30b5b4b733ab199760611b6044820152606401610927565b6111fd600080610885565b600061120882610cb6565b9050611215335b8261168f565b6111498383611ee7565b6000610cb082610ffb565b611232611548565b6001600160a01b03811661125c57604051631e4fbdf760e01b815260006004820152602401610927565b610dd081611aa9565b816001600160a01b03811661128c5760405162461bcd60e51b8152600401610927906125f9565b611297600080610885565b60006112a283610cb6565b90506112ad3361120f565b6112b83385856116c5565b60408051848152602081018390526001600160a01b0386169133917f5cdf07ad0fc222442720b108e3ed4c4640f0fadc2ab2253e66f259a0fea834809101610d73565b600154600090610cb090839061271084611631565b600054611326906001600160a01b031682612026565b6000546040518281526001600160a01b03909116907f6c3b15f4a619d5331e4708792bb87f858ffb7a08f1a87aabca7cd15e51e04a639060200160405180910390a250565b60007f00000000000000000000000000000000000000000000000000000000000000006001600160a01b031663630b11466040518163ffffffff1660e01b8152600401602060405180830381865afa1580156113cb573d6000803e3d6000fd5b505050506040513d601f19601f820116820180604052508101906113ef91906125a6565b7f00000000000000000000000000000000000000000000000000000000000000006001600160a01b0316634cf088d96040518163ffffffff1660e01b8152600401602060405180830381865afa15801561144d573d6000803e3d6000fd5b505050506040513d601f19601f8201168201806040525081019061147191906125a6565b03905090565b600082156114915761148c8484846000611631565b611493565b835b949350505050565b6001600160a01b0382166114c55760405163ec442f0560e01b815260006004820152602401610927565b610e0d600083836120bd565b7f00000000000000000000000000000000000000000000000000000000000000006001600160a01b031663c89e4361826040518263ffffffff1660e01b81526004016000604051808303818588803b15801561152c57600080fd5b505af1158015611540573d6000803e3d6000fd5b505050505050565b6009546001600160a01b03163314610dba5760405163118cdaa760e01b8152336004820152602401610927565b600061157f611835565b61158761136b565b01905090565b6000806000807f00000000000000000000000000000000000000000000000000000000000000006001600160a01b031663725c0503866040518263ffffffff1660e01b81526004016115e191815260200190565b608060405180830381865afa1580156115fe573d6000803e3d6000fd5b505050506040513d601f19601f82011682018060405250810190611622919061267e565b93509350935093509193509193565b60008061163f8686866120c8565b905061164a8361218c565b8015611666575060008480611661576116616126ce565b868809115b15611679576116766001826126e4565b90505b95945050505050565b61114983838360016121b9565b6001600160a01b0382166116b957604051634b637e8f60e11b815260006004820152602401610927565b610e0d826000836120bd565b600081116117155760405162461bcd60e51b815260206004820152601d60248201527f5769746864726177616c20616d6f756e7420697320746f6f206c6f772e0000006044820152606401610927565b604051632efc584d60e11b81526001600160a01b038381166004830152602482018390526000917f000000000000000000000000000000000000000000000000000000000000000090911690635df8b09a906044016020604051808303816000875af1158015611789573d6000803e3d6000fd5b505050506040513d601f19601f820116820180604052508101906117ad91906125a6565b6001600160a01b038581166000818152600260209081526040808320805460018101825590845282842001869055858352600382529182902080546001600160a01b0319168417905590518681529394508493928716927fd71e6ec4eed83207b08d7ee4a0773c0ff8f8a1ab94b8ce85737fc0c5ea2b5f0c910160405180910390a450505050565b60004781611842826112fb565b90910392915050565b6001600160a01b0383811660009081526005602090815260408083209386168352929052205460001981146118c357818110156118b457604051637dc7a0d960e11b81526001600160a01b03841660048201526024810182905260448101839052606401610927565b6118c3848484840360006121b9565b50505050565b6001600160a01b0383166118f357604051634b637e8f60e11b815260006004820152602401610927565b6001600160a01b03821661191d5760405163ec442f0560e01b815260006004820152602401610927565b6111498383836120bd565b6000818152600360205260409020546001600160a01b0316331461198e5760405162461bcd60e51b815260206004820152601d60248201527f4e6f7420746865206f776e6572206f662074686520726571756573742e0000006044820152606401610927565b604051636e93df0d60e01b8152600481018290527f00000000000000000000000000000000000000000000000000000000000000006001600160a01b031690636e93df0d90602401600060405180830381600087803b1580156119f057600080fd5b505af1158015611a04573d6000803e3d6000fd5b50505050600080611a148361158d565b935050925050600280811115611a2c57611a2c6123c3565b816002811115611a3e57611a3e6123c3565b03611a77576000611a6a83611a5260065490565b85611a5b611575565b611a6591906126f7565b611477565b90506118c3335b8261149b565b604051839033907fd8138f8a3f377c5259ca548e70e4c2de94f129f5a11036a15b69513cba2b426a90600090a3505050565b600980546001600160a01b038381166001600160a01b0319831681179093556040519116919082907f8be0079c531659141344cd1fd0a4f28419497f9722a3daafe3b4186f6b6457e090600090a35050565b6000818152600360205260409020546001600160a01b03163314611b615760405162461bcd60e51b815260206004820152601d60248201527f4e6f7420746865206f776e6572206f662074686520726571756573742e0000006044820152606401610927565b6000611b6c8261158d565b50509150506000611b7c8261121f565b9050611b8733611a71565b60405163c804b11560e01b8152600481018490527f00000000000000000000000000000000000000000000000000000000000000006001600160a01b03169063c804b11590602401600060405180830381600087803b158015611be957600080fd5b505af1158015611bfd573d6000803e3d6000fd5b5050505082611c093390565b6001600160a01b03167f853eba293fc3859716cf2e1a34b0c266f8265db181ec04748d0f25b8a19fc80e60405160405180910390a3505050565b60007f00000000000000000000000000000000000000000000000000000000000000006001600160a01b0316637a66c96b6040518163ffffffff1660e01b8152600401602060405180830381865afa158015611ca3573d6000803e3d6000fd5b505050506040513d601f19601f82011682018060405250810190610a46919061270a565b6000826001600160a01b03163b600003611ce357506000610cb0565b6000839050806001600160a01b0316634b6a94cc6040518163ffffffff1660e01b8152600401600060405180830381865afa158015611d26573d6000803e3d6000fd5b505050506040513d6000823e601f3d908101601f19168201604052611d4e919081019061272c565b805190602001207fa2f5d64a9f0bcdeed97e196203f5a8c1a5c8293988b625b7925686d30805508214611d85576000915050610cb0565b82816001600160a01b031663ffa1ad746040518163ffffffff1660e01b8152600401602060405180830381865afa158015611dc4573d6000803e3d6000fd5b505050506040513d601f19601f82011682018060405250810190611de891906125a6565b14611df7576000915050610cb0565b6000816001600160a01b031663139d7fed6040518163ffffffff1660e01b8152600401602060405180830381865afa158015611e37573d6000803e3d6000fd5b505050506040513d601f19601f82011682018060405250810190611e5b91906127d9565b604051630aabaead60e11b81526001600160a01b0382166004820152909150600090610400906315575d5a90602401606060405180830381865afa158015611ea7573d6000803e3d6000fd5b505050506040513d601f19601f82011682018060405250810190611ecb91906127f6565b506001600160a01b039081169088161494505050505092915050565b60008111611f375760405162461bcd60e51b815260206004820152601d60248201527f526564656c656761746520616d6f756e7420697320746f6f206c6f772e0000006044820152606401610927565b6001600160a01b037f000000000000000000000000000000000000000000000000000000000000000016636bd8f804336040516001600160e01b031960e084901b1681526001600160a01b039182166004820152908516602482015260448101849052606401600060405180830381600087803b158015611fb757600080fd5b505af1158015611fcb573d6000803e3d6000fd5b50505050816001600160a01b0316611fe03390565b6001600160a01b03167f78d93753d5a8009153a294711a82a3d1ba802938d66537c1b9142a053782d6938360405161201a91815260200190565b60405180910390a35050565b804710156120495760405163cd78605960e01b8152306004820152602401610927565b6000826001600160a01b03168260405160006040518083038185875af1925050503d8060008114612096576040519150601f19603f3d011682016040523d82523d6000602084013e61209b565b606091505b505090508061114957604051630a12f52160e11b815260040160405180910390fd5b611149838383612280565b60008383028160001985870982811083820303915050806000036120ff578382816120f5576120f56126ce565b0492505050610c95565b80841161211f5760405163227bc15360e01b815260040160405180910390fd5b6000848688096000868103871696879004966002600389028118808a02820302808a02820302808a02820302808a02820302808a02820302808a02909103029181900381900460010186841190950394909402919094039290920491909117919091029150509392505050565b600060028260038111156121a2576121a26123c3565b6121ac9190612843565b60ff166001149050919050565b6001600160a01b0384166121e35760405163e602df0560e01b815260006004820152602401610927565b6001600160a01b03831661220d57604051634a1406b160e11b815260006004820152602401610927565b6001600160a01b03808516600090815260056020908152604080832093871683529290522082905580156118c357826001600160a01b0316846001600160a01b03167f8c5be1e5ebec7d5bd14f71427d1e84f3dd0314c0f7b2291e5b200ac8c7c3b92584604051610d7391815260200190565b6001600160a01b0383166122ab5780600660008282546122a091906126e4565b9091555061231d9050565b6001600160a01b038316600090815260046020526040902054818110156122fe5760405163391434e360e21b81526001600160a01b03851660048201526024810182905260448101839052606401610927565b6001600160a01b03841660009081526004602052604090209082900390555b6001600160a01b03821661233957600680548290039055612358565b6001600160a01b03821660009081526004602052604090208054820190555b816001600160a01b0316836001600160a01b03167fddf252ad1be2c89b69c2b068fc378daa952ba7f163c4a11628f55a4df523b3ef8360405161239d91815260200190565b60405180910390a3505050565b6000602082840312156123bc57600080fd5b5035919050565b634e487b7160e01b600052602160045260246000fd5b60208101600683106123fb57634e487b7160e01b600052602160045260246000fd5b91905290565b6001600160a01b0381168114610dd057600080fd5b60006020828403121561242857600080fd5b8135610c9581612401565b60005b8381101561244e578181015183820152602001612436565b50506000910152565b6020815260008251806020840152612476816040850160208701612433565b601f01601f19169190910160400192915050565b6000806040838503121561249d57600080fd5b82356124a881612401565b946020939093013593505050565b6000806000606084860312156124cb57600080fd5b83356124d681612401565b925060208401356124e681612401565b929592945050506040919091013590565b6020808252825182820181905260009190848201906040850190845b8181101561252f57835183529284019291840191600101612513565b50909695505050505050565b6000806040838503121561254e57600080fd5b823561255981612401565b915060208301356006811061256d57600080fd5b809150509250929050565b6000806040838503121561258b57600080fd5b823561259681612401565b9150602083013561256d81612401565b6000602082840312156125b857600080fd5b5051919050565b600181811c908216806125d357607f821691505b6020821081036125f357634e487b7160e01b600052602260045260246000fd5b50919050565b60208082526010908201526f20b2323932b9b99034b990373ab6361760811b604082015260600190565b634e487b7160e01b600052604160045260246000fd5b634e487b7160e01b600052603260045260246000fd5b634e487b7160e01b600052601160045260246000fd5b6000600182016126775761267761264f565b5060010190565b6000806000806080858703121561269457600080fd5b845161269f81612401565b8094505060208501519250604085015191506060850151600381106126c357600080fd5b939692955090935050565b634e487b7160e01b600052601260045260246000fd5b80820180821115610cb057610cb061264f565b81810381811115610cb057610cb061264f565b60006020828403121561271c57600080fd5b81518015158114610c9557600080fd5b60006020828403121561273e57600080fd5b815167ffffffffffffffff8082111561275657600080fd5b818401915084601f83011261276a57600080fd5b81518181111561277c5761277c612623565b604051601f8201601f19908116603f011681019083821181831017156127a4576127a4612623565b816040528281528760208487010111156127bd57600080fd5b6127ce836020830160208801612433565b979650505050505050565b6000602082840312156127eb57600080fd5b8151610c9581612401565b60008060006060848603121561280b57600080fd5b835161281681612401565b602085015190935061282781612401565b604085015190925061283881612401565b809150509250925092565b600060ff83168061286457634e487b7160e01b600052601260045260246000fd5b8060ff8416069150509291505056fea264697066735822122017f36c5379cc2a66780111dd9b89ad12709e2eafbaed16dd715cc06f6d90bfe964736f6c63430008190033a2646970667358221220d4b77b97cd400e3b86476979a0f6d049ca5d7d0680668a6809bed7a4a70f377b64736f6c63430008190033",
  "linkReferences": {},
  "deployedLinkReferences": {}
}