{
  "_format": "hh-sol-artifact-1",
  "contractName": "PublicDelegation",
  "sourceName": "contracts/system_contracts/consensus/PublicDelegation/PublicDelegation.sol",
  "abi": [
    {
      "inputs": [
        {
          "internalType": "address",
          "name": "_baseCnStakingV3",
          "type": "address"
        },
        {
          "components": [
            {
              "internalType": "address",
              "name": "owner",
              "type": "address"
            },
            {
              "internalType": "address",
              "name": "commissionTo",
              "type": "address"
            },
            {
              "internalType": "uint256",
              "name": "commissionRate",
              "type": "uint256"
            },
            {
              "internalType": "string",
              "name": "gcName",
              "type": "string"
            }
          ],
          "internalType": "struct IPublicDelegation.PDConstructorArgs",
          "name": "_pdArgs",
          "type": "tuple"
        }
      ],
      "stateMutability": "nonpayable",
      "type": "constructor"
    },
    {
      "inputs": [
        {
          "internalType": "address",
          "name": "account",
          "type": "address"
        }
      ],
      "name": "AddressInsufficientBalance",
      "type": "error"
    },
    {
      "inputs": [
        {
          "internalType": "address",
          "name": "spender",
          "type": "address"
        },
        {
          "internalType": "uint256",
          "name": "allowance",
          "type": "uint256"
        },
        {
          "internalType": "uint256",
          "name": "needed",
          "type": "uint256"
        }
      ],
      "name": "ERC20InsufficientAllowance",
      "type": "error"
    },
    {
      "inputs": [
        {
          "internalType": "address",
          "name": "sender",
          "type": "address"
        },
        {
          "internalType": "uint256",
          "name": "balance",
          "type": "uint256"
        },
        {
          "internalType": "uint256",
          "name": "needed",
          "type": "uint256"
        }
      ],
      "name": "ERC20InsufficientBalance",
      "type": "error"
    },
    {
      "inputs": [
        {
          "internalType": "address",
          "name": "approver",
          "type": "address"
        }
      ],
      "name": "ERC20InvalidApprover",
      "type": "error"
    },
    {
      "inputs": [
        {
          "internalType": "address",
          "name": "receiver",
          "type": "address"
        }
      ],
      "name": "ERC20InvalidReceiver",
      "type": "error"
    },
    {
      "inputs": [
        {
          "internalType": "address",
          "name": "sender",
          "type": "address"
        }
      ],
      "name": "ERC20InvalidSender",
      "type": "error"
    },
    {
      "inputs": [
        {
          "internalType": "address",
          "name": "spender",
          "type": "address"
        }
      ],
      "name": "ERC20InvalidSpender",
      "type": "error"
    },
    {
      "inputs": [],
      "name": "FailedInnerCall",
      "type": "error"
    },
    {
      "inputs": [],
      "name": "MathOverflowedMulDiv",
      "type": "error"
    },
    {
      "inputs": [
        {
          "internalType": "address",
          "name": "owner",
          "type": "address"
        }
      ],
      "name": "OwnableInvalidOwner",
      "type": "error"
    },
    {
      "inputs": [
        {
          "internalType": "address",
          "name": "account",
          "type": "address"
        }
      ],
      "name": "OwnableUnauthorizedAccount",
      "type": "error"
    },
    {
      "anonymous": false,
      "inputs": [
        {
          "indexed": true,
          "internalType": "address",
          "name": "owner",
          "type": "address"
        },
        {
          "indexed": true,
          "internalType": "address",
          "name": "spender",
          "type": "address"
        },
        {
          "indexed": false,
          "internalType": "uint256",
          "name": "value",
          "type": "uint256"
        }
      ],
      "name": "Approval",
      "type": "event"
    },
    {
      "anonymous": false,
      "inputs": [
        {
          "indexed": true,
          "internalType": "address",
          "name": "_user",
          "type": "address"
        },
        {
          "indexed": true,
          "internalType": "uint256",
          "name": "_requestId",
          "type": "uint256"
        }
      ],
      "name": "Claimed",
      "type": "event"
    },
    {
      "anonymous": false,
      "inputs": [
        {
          "indexed": false,
          "internalType": "string",
          "name": "_contractType",
          "type": "string"
        },
        {
          "indexed": false,
          "internalType": "address",
          "name": "_baseCnStakingV3",
          "type": "address"
        },
        {
          "components": [
            {
              "internalType": "address",
              "name": "owner",
              "type": "address"
            },
            {
              "internalType": "address",
              "name": "commissionTo",
              "type": "address"
            },
            {
              "internalType": "uint256",
              "name": "commissionRate",
              "type": "uint256"
            },
            {
              "internalType": "string",
              "name": "gcName",
              "type": "string"
            }
          ],
          "indexed": false,
          "internalType": "struct IPublicDelegation.PDConstructorArgs",
          "name": "_pdArgs",
          "type": "tuple"
        }
      ],
      "name": "DeployContract",
      "type": "event"
    },
    {
      "anonymous": false,
      "inputs": [
        {
          "indexed": true,
          "internalType": "address",
          "name": "previousOwner",
          "type": "address"
        },
        {
          "indexed": true,
          "internalType": "address",
          "name": "newOwner",
          "type": "address"
        }
      ],
      "name": "OwnershipTransferred",
      "type": "event"
    },
    {
      "anonymous": false,
      "inputs": [
        {
          "indexed": true,
          "internalType": "address",
          "name": "_user",
          "type": "address"
        },
        {
          "indexed": true,
          "internalType": "address",
          "name": "_recipient",
          "type": "address"
        },
        {
          "indexed": false,
          "internalType": "uint256",
          "name": "_assets",
          "type": "uint256"
        },
        {
          "indexed": false,
          "internalType": "uint256",
          "name": "_shares",
          "type": "uint256"
        }
      ],
      "name": "Redeemed",
      "type": "event"
    },
    {
      "anonymous": false,
      "inputs": [
        {
          "indexed": true,
          "internalType": "address",
          "name": "_user",
          "type": "address"
        },
        {
          "indexed": true,
          "internalType": "address",
          "name": "_targetCnV3",
          "type": "address"
        },
        {
          "indexed": false,
          "internalType": "uint256",
          "name": "_assets",
          "type": "uint256"
        }
      ],
      "name": "Redelegated",
      "type": "event"
    },
    {
      "anonymous": false,
      "inputs": [
        {
          "indexed": true,
          "internalType": "address",
          "name": "_user",
          "type": "address"
        },
        {
          "indexed": true,
          "internalType": "uint256",
          "name": "_requestId",
          "type": "uint256"
        }
      ],
      "name": "RequestCancelWithdrawal",
      "type": "event"
    },
    {
      "anonymous": false,
      "inputs": [
        {
          "indexed": true,
          "internalType": "address",
          "name": "_user",
          "type": "address"
        },
        {
          "indexed": true,
          "internalType": "address",
          "name": "_recipient",
          "type": "address"
        },
        {
          "indexed": true,
          "internalType": "uint256",
          "name": "_requestId",
          "type": "uint256"
        },
        {
          "indexed": false,
          "internalType": "uint256",
          "name": "_assets",
          "type": "uint256"
        }
      ],
      "name": "RequestWithdrawal",
      "type": "event"
    },
    {
      "anonymous": false,
      "inputs": [
        {
          "indexed": true,
          "internalType": "address",
          "name": "_commissionTo",
          "type": "address"
        },
        {
          "indexed": false,
          "internalType": "uint256",
          "name": "_commission",
          "type": "uint256"
        }
      ],
      "name": "SendCommission",
      "type": "event"
    },
    {
      "anonymous": false,
      "inputs": [
        {
          "indexed": true,
          "internalType": "address",
          "name": "_user",
          "type": "address"
        },
        {
          "indexed": false,
          "internalType": "uint256",
          "name": "_assets",
          "type": "uint256"
        },
        {
          "indexed": false,
          "internalType": "uint256",
          "name": "_shares",
          "type": "uint256"
        }
      ],
      "name": "Staked",
      "type": "event"
    },
    {
      "anonymous": false,
      "inputs": [
        {
          "indexed": true,
          "internalType": "address",
          "name": "from",
          "type": "address"
        },
        {
          "indexed": true,
          "internalType": "address",
          "name": "to",
          "type": "address"
        },
        {
          "indexed": false,
          "internalType": "uint256",
          "name": "value",
          "type": "uint256"
        }
      ],
      "name": "Transfer",
      "type": "event"
    },
    {
      "anonymous": false,
      "inputs": [
        {
          "indexed": true,
          "internalType": "uint256",
          "name": "_prevCommissionRate",
          "type": "uint256"
        },
        {
          "indexed": true,
          "internalType": "uint256",
          "name": "_commissionRate",
          "type": "uint256"
        }
      ],
      "name": "UpdateCommissionRate",
      "type": "event"
    },
    {
      "anonymous": false,
      "inputs": [
        {
          "indexed": true,
          "internalType": "address",
          "name": "_prevCommissionTo",
          "type": "address"
        },
        {
          "indexed": true,
          "internalType": "address",
          "name": "_commissionTo",
          "type": "address"
        }
      ],
      "name": "UpdateCommissionTo",
      "type": "event"
    },
    {
      "inputs": [],
      "name": "COMMISSION_DENOMINATOR",
      "outputs": [
        {
          "internalType": "uint256",
          "name": "",
          "type": "uint256"
        }
      ],
      "stateMutability": "view",
      "type": "function"
    },
    {
      "inputs": [],
      "name": "CONTRACT_TYPE",
      "outputs": [
        {
          "internalType": "string",
          "name": "",
          "type": "string"
        }
      ],
      "stateMutability": "view",
      "type": "function"
    },
    {
      "inputs": [],
      "name": "MAX_COMMISSION_RATE",
      "outputs": [
        {
          "internalType": "uint256",
          "name": "",
          "type": "uint256"
        }
      ],
      "stateMutability": "view",
      "type": "function"
    },
    {
      "inputs": [],
      "name": "VERSION",
      "outputs": [
        {
          "internalType": "uint256",
          "name": "",
          "type": "uint256"
        }
      ],
      "stateMutability": "view",
      "type": "function"
    },
    {
      "inputs": [],
      "name": "acceptRewardAddress",
      "outputs": [],
      "stateMutability": "nonpayable",
      "type": "function"
    },
    {
      "inputs": [
        {
          "internalType": "address",
          "name": "owner",
          "type": "address"
        },
        {
          "internalType": "address",
          "name": "spender",
          "type": "address"
        }
      ],
      "name": "allowance",
      "outputs": [
        {
          "internalType": "uint256",
          "name": "",
          "type": "uint256"
        }
      ],
      "stateMutability": "view",
      "type": "function"
    },
    {
      "inputs": [
        {
          "internalType": "address",
          "name": "spender",
          "type": "address"
        },
        {
          "internalType": "uint256",
          "name": "value",
          "type": "uint256"
        }
      ],
      "name": "approve",
      "outputs": [
        {
          "internalType": "bool",
          "name": "",
          "type": "bool"
        }
      ],
      "stateMutability": "nonpayable",
      "type": "function"
    },
    {
      "inputs": [
        {
          "internalType": "address",
          "name": "account",
          "type": "address"
        }
      ],
      "name": "balanceOf",
      "outputs": [
        {
          "internalType": "uint256",
          "name": "",
          "type": "uint256"
        }
      ],
      "stateMutability": "view",
      "type": "function"
    },
    {
      "inputs": [],
      "name": "baseCnStakingV3",
      "outputs": [
        {
          "internalType": "contract ICnStakingV3",
          "name": "",
          "type": "address"
        }
      ],
      "stateMutability": "view",
      "type": "function"
    },
    {
      "inputs": [
        {
          "internalType": "uint256",
          "name": "_requestId",
          "type": "uint256"
        }
      ],
      "name": "cancelApprovedStakingWithdrawal",
      "outputs": [],
      "stateMutability": "nonpayable",
      "type": "function"
    },
    {
      "inputs": [
        {
          "internalType": "uint256",
          "name": "_requestId",
          "type": "uint256"
        }
      ],
      "name": "claim",
      "outputs": [],
      "stateMutability": "nonpayable",
      "type": "function"
    },
    {
      "inputs": [],
      "name": "commissionRate",
      "outputs": [
        {
          "internalType": "uint256",
          "name": "",
          "type": "uint256"
        }
      ],
      "stateMutability": "view",
      "type": "function"
    },
    {
      "inputs": [],
      "name": "commissionTo",
      "outputs": [
        {
          "internalType": "address",
          "name": "",
          "type": "address"
        }
      ],
      "stateMutability": "view",
      "type": "function"
    },
    {
      "inputs": [
        {
          "internalType": "uint256",
          "name": "_shares",
          "type": "uint256"
        }
      ],
      "name": "convertToAssets",
      "outputs": [
        {
          "internalType": "uint256",
          "name": "",
          "type": "uint256"
        }
      ],
      "stateMutability": "view",
      "type": "function"
    },
    {
      "inputs": [
        {
          "internalType": "uint256",
          "name": "_assets",
          "type": "uint256"
        }
      ],
      "name": "convertToShares",
      "outputs": [
        {
          "internalType": "uint256",
          "name": "",
          "type": "uint256"
        }
      ],
      "stateMutability": "view",
      "type": "function"
    },
    {
      "inputs": [],
      "name": "decimals",
      "outputs": [
        {
          "internalType": "uint8",
          "name": "",
          "type": "uint8"
        }
      ],
      "stateMutability": "view",
      "type": "function"
    },
    {
      "inputs": [
        {
          "internalType": "uint256",
          "name": "_id",
          "type": "uint256"
        }
      ],
      "name": "getCurrentWithdrawalRequestState",
      "outputs": [
        {
          "internalType": "enum IPublicDelegation.WithdrawalRequestState",
          "name": "",
          "type": "uint8"
        }
      ],
      "stateMutability": "view",
      "type": "function"
    },
    {
      "inputs": [
        {
          "internalType": "address",
          "name": "_owner",
          "type": "address"
        }
      ],
      "name": "getUserRequestCount",
      "outputs": [
        {
          "internalType": "uint256",
          "name": "",
          "type": "uint256"
        }
      ],
      "stateMutability": "view",
      "type": "function"
    },
    {
      "inputs": [
        {
          "internalType": "address",
          "name": "_owner",
          "type": "address"
        }
      ],
      "name": "getUserRequestIds",
      "outputs": [
        {
          "internalType": "uint256[]",
          "name": "",
          "type": "uint256[]"
        }
      ],
      "stateMutability": "view",
      "type": "function"
    },
    {
      "inputs": [
        {
          "internalType": "address",
          "name": "_owner",
          "type": "address"
        },
        {
          "internalType": "enum IPublicDelegation.WithdrawalRequestState",
          "name": "_state",
          "type": "uint8"
        }
      ],
      "name": "getUserRequestIdsWithState",
      "outputs": [
        {
          "internalType": "uint256[]",
          "name": "_requestIds",
          "type": "uint256[]"
        }
      ],
      "stateMutability": "view",
      "type": "function"
    },
    {
      "inputs": [
        {
          "internalType": "address",
          "name": "_owner",
          "type": "address"
        }
      ],
      "name": "maxRedeem",
      "outputs": [
        {
          "internalType": "uint256",
          "name": "",
          "type": "uint256"
        }
      ],
      "stateMutability": "view",
      "type": "function"
    },
    {
      "inputs": [
        {
          "internalType": "address",
          "name": "_owner",
          "type": "address"
        }
      ],
      "name": "maxWithdraw",
      "outputs": [
        {
          "internalType": "uint256",
          "name": "",
          "type": "uint256"
        }
      ],
      "stateMutability": "view",
      "type": "function"
    },
    {
      "inputs": [],
      "name": "name",
      "outputs": [
        {
          "internalType": "string",
          "name": "",
          "type": "string"
        }
      ],
      "stateMutability": "view",
      "type": "function"
    },
    {
      "inputs": [],
      "name": "owner",
      "outputs": [
        {
          "internalType": "address",
          "name": "",
          "type": "address"
        }
      ],
      "stateMutability": "view",
      "type": "function"
    },
    {
      "inputs": [
        {
          "internalType": "uint256",
          "name": "_assets",
          "type": "uint256"
        }
      ],
      "name": "previewDeposit",
      "outputs": [
        {
          "internalType": "uint256",
          "name": "",
          "type": "uint256"
        }
      ],
      "stateMutability": "view",
      "type": "function"
    },
    {
      "inputs": [
        {
          "internalType": "uint256",
          "name": "_shares",
          "type": "uint256"
        }
      ],
      "name": "previewRedeem",
      "outputs": [
        {
          "internalType": "uint256",
          "name": "",
          "type": "uint256"
        }
      ],
      "stateMutability": "view",
      "type": "function"
    },
    {
      "inputs": [
        {
          "internalType": "uint256",
          "name": "_assets",
          "type": "uint256"
        }
      ],
      "name": "previewWithdraw",
      "outputs": [
        {
          "internalType": "uint256",
          "name": "",
          "type": "uint256"
        }
      ],
      "stateMutability": "view",
      "type": "function"
    },
    {
      "inputs": [
        {
          "internalType": "address",
          "name": "_recipient",
          "type": "address"
        },
        {
          "internalType": "uint256",
          "name": "_shares",
          "type": "uint256"
        }
      ],
      "name": "redeem",
      "outputs": [],
      "stateMutability": "nonpayable",
      "type": "function"
    },
    {
      "inputs": [
        {
          "internalType": "address",
          "name": "_targetCnV3",
          "type": "address"
        },
        {
          "internalType": "uint256",
          "name": "_assets",
          "type": "uint256"
        }
      ],
      "name": "redelegateByAssets",
      "outputs": [],
      "stateMutability": "nonpayable",
      "type": "function"
    },
    {
      "inputs": [
        {
          "internalType": "address",
          "name": "_targetCnV3",
          "type": "address"
        },
        {
          "internalType": "uint256",
          "name": "_shares",
          "type": "uint256"
        }
      ],
      "name": "redelegateByShares",
      "outputs": [],
      "stateMutability": "nonpayable",
      "type": "function"
    },
    {
      "inputs": [],
      "name": "renounceOwnership",
      "outputs": [],
      "stateMutability": "nonpayable",
      "type": "function"
    },
    {
      "inputs": [
        {
          "internalType": "uint256",
          "name": "",
          "type": "uint256"
        }
      ],
      "name": "requestIdToOwner",
      "outputs": [
        {
          "internalType": "address",
          "name": "",
          "type": "address"
        }
      ],
      "stateMutability": "view",
      "type": "function"
    },
    {
      "inputs": [],
      "name": "reward",
      "outputs": [
        {
          "internalType": "uint256",
          "name": "",
          "type": "uint256"
        }
      ],
      "stateMutability": "view",
      "type": "function"
    },
    {
      "inputs": [],
      "name": "stake",
      "outputs": [],
      "stateMutability": "payable",
      "type": "function"
    },
    {
      "inputs": [
        {
          "internalType": "address",
          "name": "_recipient",
          "type": "address"
        }
      ],
      "name": "stakeFor",
      "outputs": [],
      "stateMutability": "payable",
      "type": "function"
    },
    {
      "inputs": [],
      "name": "sweep",
      "outputs": [],
      "stateMutability": "nonpayable",
      "type": "function"
    },
    {
      "inputs": [],
      "name": "symbol",
      "outputs": [
        {
          "internalType": "string",
          "name": "",
          "type": "string"
        }
      ],
      "stateMutability": "view",
      "type": "function"
    },
    {
      "inputs": [],
      "name": "totalAssets",
      "outputs": [
        {
          "internalType": "uint256",
          "name": "",
          "type": "uint256"
        }
      ],
      "stateMutability": "view",
      "type": "function"
    },
    {
      "inputs": [],
      "name": "totalSupply",
      "outputs": [
        {
          "internalType": "uint256",
          "name": "",
          "type": "uint256"
        }
      ],
      "stateMutability": "view",
      "type": "function"
    },
    {
      "inputs": [
        {
          "internalType": "address",
          "name": "to",
          "type": "address"
        },
        {
          "internalType": "uint256",
          "name": "value",
          "type": "uint256"
        }
      ],
      "name": "transfer",
      "outputs": [
        {
          "internalType": "bool",
          "name": "",
          "type": "bool"
        }
      ],
      "stateMutability": "nonpayable",
      "type": "function"
    },
    {
      "inputs": [
        {
          "internalType": "address",
          "name": "from",
          "type": "address"
        },
        {
          "internalType": "address",
          "name": "to",
          "type": "address"
        },
        {
          "internalType": "uint256",
          "name": "value",
          "type": "uint256"
        }
      ],
      "name": "transferFrom",
      "outputs": [
        {
          "internalType": "bool",
          "name": "",
          "type": "bool"
        }
      ],
      "stateMutability": "nonpayable",
      "type": "function"
    },
    {
      "inputs": [
        {
          "internalType": "address",
          "name": "newOwner",
          "type": "address"
        }
      ],
      "name": "transferOwnership",
      "outputs": [],
      "stateMutability": "nonpayable",
      "type": "function"
    },
    {
      "inputs": [
        {
          "internalType": "uint256",
          "name": "_commissionRate",
          "type": "uint256"
        }
      ],
      "name": "updateCommissionRate",
      "outputs": [],
      "stateMutability": "nonpayable",
      "type": "function"
    },
    {
      "inputs": [
        {
          "internalType": "address",
          "name": "_commissionTo",
          "type": "address"
        }
      ],
      "name": "updateCommissionTo",
      "outputs": [],
      "stateMutability": "nonpayable",
      "type": "function"
    },
    {
      "inputs": [
        {
          "internalType": "address",
          "name": "",
          "type": "address"
        },
        {
          "internalType": "uint256",
          "name": "",
          "type": "uint256"
        }
      ],
      "name": "userRequestIds",
      "outputs": [
        {
          "internalType": "uint256",
          "name": "",
          "type": "uint256"
        }
      ],
      "stateMutability": "view",
      "type": "function"
    },
    {
      "inputs": [
        {
          "internalType": "address",
          "name": "_recipient",
          "type": "address"
        },
        {
          "internalType": "uint256",
          "name": "_assets",
          "type": "uint256"
        }
      ],
      "name": "withdraw",
      "outputs": [],
      "stateMutability": "nonpayable",
      "type": "function"
    },
    {
      "stateMutability": "payable",
      "type": "receive"
    }
  ],
  "bytecode": "0x60a060405234801561001057600080fd5b5060405161303d38038061303d83398101604081905261002f916102bd565b8051606082015160405161004691906020016103bd565b604051602081830303815290604052826060015160405160200161006a91906103fe565b60408051601f19818403018152919052600761008683826104b4565b50600861009382826104b4565b5050506001600160a01b0381166100c557604051631e4fbdf760e01b8152600060048201526024015b60405180910390fd5b6100ce816101bd565b50610bb8816040015111156101255760405162461bcd60e51b815260206004820152601c60248201527f436f6d6d697373696f6e207261746520697320746f6f20686967682e0000000060448201526064016100bc565b6001600160a01b03828116608052604082810151600155602080840151600080546001600160a01b031916919094161790925580518082018252601081526f283ab13634b1a232b632b3b0ba34b7b760811b92810192909252517f559705a83e2830cb29ab43f78af7f847810ba4a5bff2a637f7e5665ecf8dc55f916101ae918590859061059f565b60405180910390a1505061060a565b600980546001600160a01b038381166001600160a01b0319831681179093556040519116919082907f8be0079c531659141344cd1fd0a4f28419497f9722a3daafe3b4186f6b6457e090600090a35050565b80516001600160a01b038116811461022657600080fd5b919050565b634e487b7160e01b600052604160045260246000fd5b604051608081016001600160401b03811182821017156102635761026361022b565b60405290565b604051601f8201601f191681016001600160401b03811182821017156102915761029161022b565b604052919050565b60005b838110156102b457818101518382015260200161029c565b50506000910152565b600080604083850312156102d057600080fd5b6102d98361020f565b602084810151919350906001600160401b03808211156102f857600080fd5b908501906080828803121561030c57600080fd5b610314610241565b61031d8361020f565b815261032a84840161020f565b848201526040830151604082015260608301518281111561034a57600080fd5b80840193505087601f84011261035f57600080fd5b8251828111156103715761037161022b565b610383601f8201601f19168601610269565b9250808352888582860101111561039957600080fd5b6103a881868501878701610299565b50816060820152809450505050509250929050565b600082516103cf818460208701610299565b7f205075626c69632044656c656761746564204b41494100000000000000000000920191825250601601919050565b60008251610410818460208701610299565b662d70644b41494160c81b920191825250600701919050565b600181811c9082168061043d57607f821691505b60208210810361045d57634e487b7160e01b600052602260045260246000fd5b50919050565b601f8211156104af576000816000526020600020601f850160051c8101602086101561048c5750805b601f850160051c820191505b818110156104ab57828155600101610498565b5050505b505050565b81516001600160401b038111156104cd576104cd61022b565b6104e1816104db8454610429565b84610463565b602080601f83116001811461051657600084156104fe5750858301515b600019600386901b1c1916600185901b1785556104ab565b600085815260208120601f198616915b8281101561054557888601518255948401946001909101908401610526565b50858210156105635787850151600019600388901b60f8161c191681555b5050505050600190811b01905550565b6000815180845261058b816020860160208601610299565b601f01601f19169290920160200192915050565b6060815260006105b26060830186610573565b60018060a01b038086166020850152838203604085015280855116825280602086015116602083015250604084015160408201526060840151608060608301526105ff6080830182610573565b979650505050505050565b6080516129c4610679600039600081816107b801528181610adb01528181610e1901528181611412015281816114940152818161157601528181611638015281816117de0152818161184301528181611abf01528181611cb801528181611d62015261205c01526129c46000f3fe6080604052600436106102805760003560e01c80635ea1d6f81161014f578063c804b115116100c1578063e659d7d71161007a578063e659d7d7146107da578063ef8b30f7146107fa578063f29177c31461081a578063f2fde38b14610850578063f3fef3a314610870578063ffa1ad741461089057600080fd5b8063c804b115146106e0578063ce96cb7714610700578063d905777e14610720578063dd62ed3e14610740578063e15fc35014610786578063e2c8bde5146107a657600080fd5b806393b89a841161011357806393b89a841461061557806395d89b411461063557806397feb23c1461064a578063a9059cbb1461066a578063c166c4581461068a578063c6e6f592146106c057600080fd5b80635ea1d6f81461056957806360df7c6c1461057f57806370a08231146105ac578063715018a6146105e25780638da5cb5b146105f757600080fd5b8063228cb733116101f35780633a4b66f1116101ac5780633a4b66f1146104c75780633b1dbfcc146104cf57806347d57d6e146104e55780634b6a94cc146104fa5780634bf69206146105365780634cdad5061461054957600080fd5b8063228cb7331461040957806323b872dd1461041e5780632f9ac83a1461043e578063313ce5671461047657806335faa41614610492578063379607f5146104a757600080fd5b806307a2d13a1161024557806307a2d13a1461034e578063095ea7b31461036e5780630a28a4771461039e57806318160ddd146103be5780631e9a6950146103d3578063207239c0146103f357600080fd5b8062fa3d501461029757806301e1d114146102b757806304ddc9d1146102df578063052028d01461030c57806306fdde031461032c57600080fd5b3661029257610290335b346108a5565b005b600080fd5b3480156102a357600080fd5b506102906102b23660046124c5565b6109be565b3480156102c357600080fd5b506102cc610a5c565b6040519081526020015b60405180910390f35b3480156102eb57600080fd5b506102ff6102fa3660046124c5565b610a6b565b6040516102d691906124f4565b34801561031857600080fd5b50610290610327366004612531565b610b90565b34801561033857600080fd5b50610341610bf3565b6040516102d69190612572565b34801561035a57600080fd5b506102cc6103693660046124c5565b610c85565b34801561037a57600080fd5b5061038e6103893660046125a5565b610cbc565b60405190151581526020016102d6565b3480156103aa57600080fd5b506102cc6103b93660046124c5565b610cd6565b3480156103ca57600080fd5b506006546102cc565b3480156103df57600080fd5b506102906103ee3660046125a5565b610d00565b3480156103ff57600080fd5b506102cc610bb881565b34801561041557600080fd5b506102cc610da1565b34801561042a57600080fd5b5061038e6104393660046125d1565b610dab565b34801561044a57600080fd5b5060005461045e906001600160a01b031681565b6040516001600160a01b0390911681526020016102d6565b34801561048257600080fd5b50604051601281526020016102d6565b34801561049e57600080fd5b50610290610dcf565b3480156104b357600080fd5b506102906104c23660046124c5565b610ddc565b610290610df3565b3480156104db57600080fd5b506102cc61271081565b3480156104f157600080fd5b50610290610dfc565b34801561050657600080fd5b506103416040518060400160405280601081526020016f283ab13634b1a232b632b3b0ba34b7b760811b81525081565b610290610544366004612531565b610e7f565b34801561055557600080fd5b506102cc6105643660046124c5565b610eb4565b34801561057557600080fd5b506102cc60015481565b34801561058b57600080fd5b5061059f61059a366004612531565b610ebf565b6040516102d69190612612565b3480156105b857600080fd5b506102cc6105c7366004612531565b6001600160a01b031660009081526004602052604090205490565b3480156105ee57600080fd5b50610290610f2b565b34801561060357600080fd5b506009546001600160a01b031661045e565b34801561062157600080fd5b5061059f610630366004612656565b610f3d565b34801561064157600080fd5b50610341611050565b34801561065657600080fd5b506102cc6106653660046125a5565b61105f565b34801561067657600080fd5b5061038e6106853660046125a5565b611090565b34801561069657600080fd5b506102cc6106a5366004612531565b6001600160a01b031660009081526002602052604090205490565b3480156106cc57600080fd5b506102cc6106db3660046124c5565b61109e565b3480156106ec57600080fd5b506102906106fb3660046124c5565b6110c8565b34801561070c57600080fd5b506102cc61071b366004612531565b6110dc565b34801561072c57600080fd5b506102cc61073b366004612531565b6110fe565b34801561074c57600080fd5b506102cc61075b366004612693565b6001600160a01b03918216600090815260056020908152604080832093909416825291909152205490565b34801561079257600080fd5b506102906107a13660046125a5565b61111c565b3480156107b257600080fd5b5061045e7f000000000000000000000000000000000000000000000000000000000000000081565b3480156107e657600080fd5b506102906107f53660046125a5565b6111f1565b34801561080657600080fd5b506102cc6108153660046124c5565b6112c2565b34801561082657600080fd5b5061045e6108353660046124c5565b6003602052600090815260409020546001600160a01b031681565b34801561085c57600080fd5b5061029061086b366004612531565b6112cd565b34801561087c57600080fd5b5061029061088b3660046125a5565b611308565b34801561089c57600080fd5b506102cc600181565b4781900360006108b48261139e565b905080156108c5576108c5816113b3565b6001600160a01b038416156109a157600081836108e061140e565b0103905060006108f9856108f360065490565b8461151a565b9050600081116109505760405162461bcd60e51b815260206004820152601860248201527f5374616b6520616d6f756e7420697320746f6f206c6f772e000000000000000060448201526064015b60405180910390fd5b61095a868261153e565b60408051868152602081018390526001600160a01b038816917f1449c6dd7851abc30abf37f57715f492010519147cc2652fbc38202c18a6ee90910160405180910390a250505b8183018181039082146109b7576109b781611574565b5050505050565b6109c66115eb565b610bb8811115610a185760405162461bcd60e51b815260206004820152601c60248201527f436f6d6d697373696f6e207261746520697320746f6f20686967682e000000006044820152606401610947565b610a236000806108a5565b6001805490829055604051829082907f67fb2216d844c3553cf557bffa85f0fde0294999f808e61dcae1773d50d5e15090600090a35050565b6000610a66611618565b905090565b6000806000610a7984611630565b93509350505081600003610a91575060009392505050565b6002816002811115610aa557610aa56124de565b03610ab4575060059392505050565b6001816002811115610ac857610ac86124de565b03610ad7575060039392505050565b60007f00000000000000000000000000000000000000000000000000000000000000006001600160a01b03166396106ae46040518163ffffffff1660e01b8152600401602060405180830381865afa158015610b37573d6000803e3d6000fd5b505050506040513d601f19601f82011682018060405250810190610b5b91906126c1565b8301905082421015610b7257506001949350505050565b80421015610b8557506002949350505050565b506004949350505050565b610b986115eb565b610ba36000806108a5565b600080546001600160a01b038381166001600160a01b0319831681178455604051919092169283917fa466bc069316af563b6a90c9b6f29a97752ac7be7c6bbf3767bc9b16c2fd90eb9190a35050565b606060078054610c02906126da565b80601f0160208091040260200160405190810160405280929190818152602001828054610c2e906126da565b8015610c7b5780601f10610c5057610100808354040283529160200191610c7b565b820191906000526020600020905b815481529060010190602001808311610c5e57829003601f168201915b5050505050905090565b600080610c9160065490565b90508015610cb357610cae610ca4610a5c565b84908360006116d4565b610cb5565b825b9392505050565b600033610cca818585611725565b60019150505b92915050565b600080610ce260065490565b90508015610cb357610cae81610cf6610a5c565b85919060016116d4565b816001600160a01b038116610d275760405162461bcd60e51b815260040161094790612714565b610d326000806108a5565b6000610d3d83610eb4565b9050610d493384611732565b610d54338583611768565b60408051828152602081018590526001600160a01b0386169133917f5cdf07ad0fc222442720b108e3ed4c4640f0fadc2ab2253e66f259a0fea8348091015b60405180910390a350505050565b6000610a66611956565b600033610db985828561196c565b610dc48585856119e4565b506001949350505050565b610dda6000806108a5565b565b610de76000806108a5565b610df081611a43565b50565b610dda3361028a565b610e046115eb565b60405163aa4058b960e01b81523060048201527f00000000000000000000000000000000000000000000000000000000000000006001600160a01b03169063aa4058b990602401600060405180830381600087803b158015610e6557600080fd5b505af1158015610e79573d6000803e3d6000fd5b50505050565b806001600160a01b038116610ea65760405162461bcd60e51b815260040161094790612714565b610eb082346108a5565b5050565b6000610cd082610c85565b6001600160a01b038116600090815260026020908152604091829020805483518184028101840190945280845260609392830182828015610f1f57602002820191906000526020600020905b815481526020019060010190808311610f0b575b50505050509050919050565b610f336115eb565b610dda6000611bc4565b6001600160a01b0382166000908152600260205260409020546060908067ffffffffffffffff811115610f7257610f7261273e565b604051908082528060200260200182016040528015610f9b578160200160208202803683370190505b5091506000805b82811015611046576001600160a01b0386166000908152600260205260408120805483908110610fd457610fd4612754565b90600052602060002001549050856005811115610ff357610ff36124de565b610ffc82610a6b565b600581111561100d5761100d6124de565b0361103d5780858461101e81612780565b95508151811061103057611030612754565b6020026020010181815250505b50600101610fa2565b5082525092915050565b606060088054610c02906126da565b6002602052816000526040600020818154811061107b57600080fd5b90600052602060002001600091509150505481565b600033610cca8185856119e4565b6000806110aa60065490565b90508015610cb357610cae816110be610a5c565b85919060006116d4565b6110d36000806108a5565b610df081611c16565b6001600160a01b038116600090815260046020526040812054610cd090610eb4565b6001600160a01b038116600090815260046020526040812054610cd0565b611124611d5e565b6111695760405162461bcd60e51b81526020600482015260166024820152752932b232b632b3b0ba34b7b7103234b9b0b13632b21760511b6044820152606401610947565b61117d6001600160a01b0383166003611de2565b6111c05760405162461bcd60e51b815260206004820152601460248201527324b73b30b634b21021b729ba30b5b4b733ab199760611b6044820152606401610947565b6111cb6000806108a5565b60006111d682610eb4565b90506111e23383611732565b6111ec8382612002565b505050565b6111f9611d5e565b61123e5760405162461bcd60e51b81526020600482015260166024820152752932b232b632b3b0ba34b7b7103234b9b0b13632b21760511b6044820152606401610947565b6112526001600160a01b0383166003611de2565b6112955760405162461bcd60e51b815260206004820152601460248201527324b73b30b634b21021b729ba30b5b4b733ab199760611b6044820152606401610947565b6112a06000806108a5565b60006112ab82610cd6565b90506112b8335b82611732565b6111ec8383612002565b6000610cd08261109e565b6112d56115eb565b6001600160a01b0381166112ff57604051631e4fbdf760e01b815260006004820152602401610947565b610df081611bc4565b816001600160a01b03811661132f5760405162461bcd60e51b815260040161094790612714565b61133a6000806108a5565b600061134583610cd6565b9050611350336112b2565b61135b338585611768565b60408051848152602081018390526001600160a01b0386169133917f5cdf07ad0fc222442720b108e3ed4c4640f0fadc2ab2253e66f259a0fea834809101610d93565b600154600090610cd0908390612710846116d4565b6000546113c9906001600160a01b031682612141565b6000546040518281526001600160a01b03909116907f6c3b15f4a619d5331e4708792bb87f858ffb7a08f1a87aabca7cd15e51e04a639060200160405180910390a250565b60007f00000000000000000000000000000000000000000000000000000000000000006001600160a01b031663630b11466040518163ffffffff1660e01b8152600401602060405180830381865afa15801561146e573d6000803e3d6000fd5b505050506040513d601f19601f8201168201806040525081019061149291906126c1565b7f00000000000000000000000000000000000000000000000000000000000000006001600160a01b0316634cf088d96040518163ffffffff1660e01b8152600401602060405180830381865afa1580156114f0573d6000803e3d6000fd5b505050506040513d601f19601f8201168201806040525081019061151491906126c1565b03905090565b600082156115345761152f84848460006116d4565b611536565b835b949350505050565b6001600160a01b0382166115685760405163ec442f0560e01b815260006004820152602401610947565b610eb0600083836121d8565b7f00000000000000000000000000000000000000000000000000000000000000006001600160a01b031663c89e4361826040518263ffffffff1660e01b81526004016000604051808303818588803b1580156115cf57600080fd5b505af11580156115e3573d6000803e3d6000fd5b505050505050565b6009546001600160a01b03163314610dda5760405163118cdaa760e01b8152336004820152602401610947565b6000611622611956565b61162a61140e565b01905090565b6000806000807f00000000000000000000000000000000000000000000000000000000000000006001600160a01b031663725c0503866040518263ffffffff1660e01b815260040161168491815260200190565b608060405180830381865afa1580156116a1573d6000803e3d6000fd5b505050506040513d601f19601f820116820180604052508101906116c59190612799565b93509350935093509193509193565b6000806116e28686866121e3565b90506116ed836122a7565b8015611709575060008480611704576117046127e9565b868809115b1561171c576117196001826127ff565b90505b95945050505050565b6111ec83838360016122d4565b6001600160a01b03821661175c57604051634b637e8f60e11b815260006004820152602401610947565b610eb0826000836121d8565b600081116117b85760405162461bcd60e51b815260206004820152601d60248201527f5769746864726177616c20616d6f756e7420697320746f6f206c6f772e0000006044820152606401610947565b604051631e06025f60e21b81526001600160a01b038381166004830152602482018390527f00000000000000000000000000000000000000000000000000000000000000009190821690637818097c90604401600060405180830381600087803b15801561182557600080fd5b505af1158015611839573d6000803e3d6000fd5b50505050600060017f00000000000000000000000000000000000000000000000000000000000000006001600160a01b03166319e44e326040518163ffffffff1660e01b8152600401602060405180830381865afa15801561189f573d6000803e3d6000fd5b505050506040513d601f19601f820116820180604052508101906118c391906126c1565b6118cd9190612812565b6001600160a01b038681166000818152600260209081526040808320805460018101825590845282842001869055858352600382529182902080546001600160a01b0319168417905590518781529394508493928816927fd71e6ec4eed83207b08d7ee4a0773c0ff8f8a1ab94b8ce85737fc0c5ea2b5f0c910160405180910390a45050505050565b600047816119638261139e565b90910392915050565b6001600160a01b038381166000908152600560209081526040808320938616835292905220546000198114610e7957818110156119d557604051637dc7a0d960e11b81526001600160a01b03841660048201526024810182905260448101839052606401610947565b610e79848484840360006122d4565b6001600160a01b038316611a0e57604051634b637e8f60e11b815260006004820152602401610947565b6001600160a01b038216611a385760405163ec442f0560e01b815260006004820152602401610947565b6111ec8383836121d8565b6000818152600360205260409020546001600160a01b03163314611aa95760405162461bcd60e51b815260206004820152601d60248201527f4e6f7420746865206f776e6572206f662074686520726571756573742e0000006044820152606401610947565b604051636e93df0d60e01b8152600481018290527f00000000000000000000000000000000000000000000000000000000000000006001600160a01b031690636e93df0d90602401600060405180830381600087803b158015611b0b57600080fd5b505af1158015611b1f573d6000803e3d6000fd5b50505050600080611b2f83611630565b935050925050600280811115611b4757611b476124de565b816002811115611b5957611b596124de565b03611b92576000611b8583611b6d60065490565b85611b76611618565b611b809190612812565b61151a565b9050610e79335b8261153e565b604051839033907fd8138f8a3f377c5259ca548e70e4c2de94f129f5a11036a15b69513cba2b426a90600090a3505050565b600980546001600160a01b038381166001600160a01b0319831681179093556040519116919082907f8be0079c531659141344cd1fd0a4f28419497f9722a3daafe3b4186f6b6457e090600090a35050565b6000818152600360205260409020546001600160a01b03163314611c7c5760405162461bcd60e51b815260206004820152601d60248201527f4e6f7420746865206f776e6572206f662074686520726571756573742e0000006044820152606401610947565b6000611c8782611630565b50509150506000611c97826112c2565b9050611ca233611b8c565b6040516306b35d3160e01b8152600481018490527f00000000000000000000000000000000000000000000000000000000000000006001600160a01b0316906306b35d3190602401600060405180830381600087803b158015611d0457600080fd5b505af1158015611d18573d6000803e3d6000fd5b5050505082611d243390565b6001600160a01b03167f853eba293fc3859716cf2e1a34b0c266f8265db181ec04748d0f25b8a19fc80e60405160405180910390a3505050565b60007f00000000000000000000000000000000000000000000000000000000000000006001600160a01b0316637a66c96b6040518163ffffffff1660e01b8152600401602060405180830381865afa158015611dbe573d6000803e3d6000fd5b505050506040513d601f19601f82011682018060405250810190610a669190612825565b6000826001600160a01b03163b600003611dfe57506000610cd0565b6000839050806001600160a01b0316634b6a94cc6040518163ffffffff1660e01b8152600401600060405180830381865afa158015611e41573d6000803e3d6000fd5b505050506040513d6000823e601f3d908101601f19168201604052611e699190810190612847565b805190602001207fa2f5d64a9f0bcdeed97e196203f5a8c1a5c8293988b625b7925686d30805508214611ea0576000915050610cd0565b82816001600160a01b031663ffa1ad746040518163ffffffff1660e01b8152600401602060405180830381865afa158015611edf573d6000803e3d6000fd5b505050506040513d601f19601f82011682018060405250810190611f0391906126c1565b14611f12576000915050610cd0565b6000816001600160a01b031663139d7fed6040518163ffffffff1660e01b8152600401602060405180830381865afa158015611f52573d6000803e3d6000fd5b505050506040513d601f19601f82011682018060405250810190611f7691906128f4565b604051630aabaead60e11b81526001600160a01b0382166004820152909150600090610400906315575d5a90602401606060405180830381865afa158015611fc2573d6000803e3d6000fd5b505050506040513d601f19601f82011682018060405250810190611fe69190612911565b506001600160a01b039081169088161494505050505092915050565b600081116120525760405162461bcd60e51b815260206004820152601d60248201527f526564656c656761746520616d6f756e7420697320746f6f206c6f772e0000006044820152606401610947565b6001600160a01b037f000000000000000000000000000000000000000000000000000000000000000016636bd8f804336040516001600160e01b031960e084901b1681526001600160a01b039182166004820152908516602482015260448101849052606401600060405180830381600087803b1580156120d257600080fd5b505af11580156120e6573d6000803e3d6000fd5b50505050816001600160a01b03166120fb3390565b6001600160a01b03167f78d93753d5a8009153a294711a82a3d1ba802938d66537c1b9142a053782d6938360405161213591815260200190565b60405180910390a35050565b804710156121645760405163cd78605960e01b8152306004820152602401610947565b6000826001600160a01b03168260405160006040518083038185875af1925050503d80600081146121b1576040519150601f19603f3d011682016040523d82523d6000602084013e6121b6565b606091505b50509050806111ec57604051630a12f52160e11b815260040160405180910390fd5b6111ec83838361239b565b600083830281600019858709828110838203039150508060000361221a57838281612210576122106127e9565b0492505050610cb5565b80841161223a5760405163227bc15360e01b815260040160405180910390fd5b6000848688096000868103871696879004966002600389028118808a02820302808a02820302808a02820302808a02820302808a02820302808a02909103029181900381900460010186841190950394909402919094039290920491909117919091029150509392505050565b600060028260038111156122bd576122bd6124de565b6122c7919061295e565b60ff166001149050919050565b6001600160a01b0384166122fe5760405163e602df0560e01b815260006004820152602401610947565b6001600160a01b03831661232857604051634a1406b160e11b815260006004820152602401610947565b6001600160a01b0380851660009081526005602090815260408083209387168352929052208290558015610e7957826001600160a01b0316846001600160a01b03167f8c5be1e5ebec7d5bd14f71427d1e84f3dd0314c0f7b2291e5b200ac8c7c3b92584604051610d9391815260200190565b6001600160a01b0383166123c65780600660008282546123bb91906127ff565b909155506124389050565b6001600160a01b038316600090815260046020526040902054818110156124195760405163391434e360e21b81526001600160a01b03851660048201526024810182905260448101839052606401610947565b6001600160a01b03841660009081526004602052604090209082900390555b6001600160a01b03821661245457600680548290039055612473565b6001600160a01b03821660009081526004602052604090208054820190555b816001600160a01b0316836001600160a01b03167fddf252ad1be2c89b69c2b068fc378daa952ba7f163c4a11628f55a4df523b3ef836040516124b891815260200190565b60405180910390a3505050565b6000602082840312156124d757600080fd5b5035919050565b634e487b7160e01b600052602160045260246000fd5b602081016006831061251657634e487b7160e01b600052602160045260246000fd5b91905290565b6001600160a01b0381168114610df057600080fd5b60006020828403121561254357600080fd5b8135610cb58161251c565b60005b83811015612569578181015183820152602001612551565b50506000910152565b602081526000825180602084015261259181604085016020870161254e565b601f01601f19169190910160400192915050565b600080604083850312156125b857600080fd5b82356125c38161251c565b946020939093013593505050565b6000806000606084860312156125e657600080fd5b83356125f18161251c565b925060208401356126018161251c565b929592945050506040919091013590565b6020808252825182820181905260009190848201906040850190845b8181101561264a5783518352928401929184019160010161262e565b50909695505050505050565b6000806040838503121561266957600080fd5b82356126748161251c565b915060208301356006811061268857600080fd5b809150509250929050565b600080604083850312156126a657600080fd5b82356126b18161251c565b915060208301356126888161251c565b6000602082840312156126d357600080fd5b5051919050565b600181811c908216806126ee57607f821691505b60208210810361270e57634e487b7160e01b600052602260045260246000fd5b50919050565b60208082526010908201526f20b2323932b9b99034b990373ab6361760811b604082015260600190565b634e487b7160e01b600052604160045260246000fd5b634e487b7160e01b600052603260045260246000fd5b634e487b7160e01b600052601160045260246000fd5b6000600182016127925761279261276a565b5060010190565b600080600080608085870312156127af57600080fd5b84516127ba8161251c565b8094505060208501519250604085015191506060850151600381106127de57600080fd5b939692955090935050565b634e487b7160e01b600052601260045260246000fd5b80820180821115610cd057610cd061276a565b81810381811115610cd057610cd061276a565b60006020828403121561283757600080fd5b81518015158114610cb557600080fd5b60006020828403121561285957600080fd5b815167ffffffffffffffff8082111561287157600080fd5b818401915084601f83011261288557600080fd5b8151818111156128975761289761273e565b604051601f8201601f19908116603f011681019083821181831017156128bf576128bf61273e565b816040528281528760208487010111156128d857600080fd5b6128e983602083016020880161254e565b979650505050505050565b60006020828403121561290657600080fd5b8151610cb58161251c565b60008060006060848603121561292657600080fd5b83516129318161251c565b60208501519093506129428161251c565b60408501519092506129538161251c565b809150509250925092565b600060ff83168061297f57634e487b7160e01b600052601260045260246000fd5b8060ff8416069150509291505056fea2646970667358221220769624cbe560e60872862aca2e91d847ab16e1e6ce9b02b7455c83853b5fb6ea64736f6c63430008190033",
  "linkReferences": {},
  "deployedLinkReferences": {}
}