{
  "_format": "hh-sol-artifact-1",
  "contractName": "StakingTracker",
  "sourceName": "contracts/system_contracts/consensus/StakingTracker.sol",
  "abi": [
    {
      "anonymous": false,
      "inputs": [
        {
          "indexed": true,
          "internalType": "uint256",
          "name": "trackerId",
          "type": "uint256"
        },
        {
          "indexed": false,
          "internalType": "uint256",
          "name": "trackStart",
          "type": "uint256"
        },
        {
          "indexed": false,
          "internalType": "uint256",
          "name": "trackEnd",
          "type": "uint256"
        },
        {
          "indexed": false,
          "internalType": "uint256[]",
          "name": "gcIds",
          "type": "uint256[]"
        }
      ],
      "name": "CreateTracker",
      "type": "event"
    },
    {
      "anonymous": false,
      "inputs": [
        {
          "indexed": true,
          "internalType": "address",
          "name": "previousOwner",
          "type": "address"
        },
        {
          "indexed": true,
          "internalType": "address",
          "name": "newOwner",
          "type": "address"
        }
      ],
      "name": "OwnershipTransferred",
      "type": "event"
    },
    {
      "anonymous": false,
      "inputs": [
        {
          "indexed": true,
          "internalType": "uint256",
          "name": "trackerId",
          "type": "uint256"
        },
        {
          "indexed": true,
          "internalType": "uint256",
          "name": "gcId",
          "type": "uint256"
        },
        {
          "indexed": false,
          "internalType": "address",
          "name": "staking",
          "type": "address"
        },
        {
          "indexed": false,
          "internalType": "uint256",
          "name": "stakingBalance",
          "type": "uint256"
        },
        {
          "indexed": false,
          "internalType": "uint256",
          "name": "gcBalance",
          "type": "uint256"
        },
        {
          "indexed": false,
          "internalType": "uint256",
          "name": "gcVote",
          "type": "uint256"
        },
        {
          "indexed": false,
          "internalType": "uint256",
          "name": "totalVotes",
          "type": "uint256"
        }
      ],
      "name": "RefreshStake",
      "type": "event"
    },
    {
      "anonymous": false,
      "inputs": [
        {
          "indexed": true,
          "internalType": "uint256",
          "name": "gcId",
          "type": "uint256"
        },
        {
          "indexed": false,
          "internalType": "address",
          "name": "staking",
          "type": "address"
        },
        {
          "indexed": false,
          "internalType": "address",
          "name": "voter",
          "type": "address"
        }
      ],
      "name": "RefreshVoter",
      "type": "event"
    },
    {
      "anonymous": false,
      "inputs": [
        {
          "indexed": true,
          "internalType": "uint256",
          "name": "trackerId",
          "type": "uint256"
        }
      ],
      "name": "RetireTracker",
      "type": "event"
    },
    {
      "inputs": [],
      "name": "ADDRESS_BOOK_ADDRESS",
      "outputs": [
        {
          "internalType": "address",
          "name": "",
          "type": "address"
        }
      ],
      "stateMutability": "view",
      "type": "function"
    },
    {
      "inputs": [],
      "name": "CONTRACT_TYPE",
      "outputs": [
        {
          "internalType": "string",
          "name": "",
          "type": "string"
        }
      ],
      "stateMutability": "view",
      "type": "function"
    },
    {
      "inputs": [],
      "name": "MIN_STAKE",
      "outputs": [
        {
          "internalType": "uint256",
          "name": "",
          "type": "uint256"
        }
      ],
      "stateMutability": "view",
      "type": "function"
    },
    {
      "inputs": [],
      "name": "VERSION",
      "outputs": [
        {
          "internalType": "uint256",
          "name": "",
          "type": "uint256"
        }
      ],
      "stateMutability": "view",
      "type": "function"
    },
    {
      "inputs": [
        {
          "internalType": "uint256",
          "name": "trackStart",
          "type": "uint256"
        },
        {
          "internalType": "uint256",
          "name": "trackEnd",
          "type": "uint256"
        }
      ],
      "name": "createTracker",
      "outputs": [
        {
          "internalType": "uint256",
          "name": "trackerId",
          "type": "uint256"
        }
      ],
      "stateMutability": "nonpayable",
      "type": "function"
    },
    {
      "inputs": [
        {
          "internalType": "uint256",
          "name": "",
          "type": "uint256"
        }
      ],
      "name": "gcIdToVoter",
      "outputs": [
        {
          "internalType": "address",
          "name": "",
          "type": "address"
        }
      ],
      "stateMutability": "view",
      "type": "function"
    },
    {
      "inputs": [
        {
          "internalType": "uint256",
          "name": "trackerId",
          "type": "uint256"
        }
      ],
      "name": "getAllTrackedGCs",
      "outputs": [
        {
          "internalType": "uint256[]",
          "name": "gcIds",
          "type": "uint256[]"
        },
        {
          "internalType": "uint256[]",
          "name": "gcBalances",
          "type": "uint256[]"
        },
        {
          "internalType": "uint256[]",
          "name": "gcVotes",
          "type": "uint256[]"
        }
      ],
      "stateMutability": "view",
      "type": "function"
    },
    {
      "inputs": [],
      "name": "getAllTrackerIds",
      "outputs": [
        {
          "internalType": "uint256[]",
          "name": "",
          "type": "uint256[]"
        }
      ],
      "stateMutability": "view",
      "type": "function"
    },
    {
      "inputs": [],
      "name": "getLastTrackerId",
      "outputs": [
        {
          "internalType": "uint256",
          "name": "",
          "type": "uint256"
        }
      ],
      "stateMutability": "view",
      "type": "function"
    },
    {
      "inputs": [],
      "name": "getLiveTrackerIds",
      "outputs": [
        {
          "internalType": "uint256[]",
          "name": "",
          "type": "uint256[]"
        }
      ],
      "stateMutability": "view",
      "type": "function"
    },
    {
      "inputs": [
        {
          "internalType": "uint256",
          "name": "trackerId",
          "type": "uint256"
        },
        {
          "internalType": "uint256",
          "name": "gcId",
          "type": "uint256"
        }
      ],
      "name": "getTrackedGC",
      "outputs": [
        {
          "internalType": "uint256",
          "name": "gcBalance",
          "type": "uint256"
        },
        {
          "internalType": "uint256",
          "name": "gcVotes",
          "type": "uint256"
        }
      ],
      "stateMutability": "view",
      "type": "function"
    },
    {
      "inputs": [
        {
          "internalType": "uint256",
          "name": "trackerId",
          "type": "uint256"
        }
      ],
      "name": "getTrackerSummary",
      "outputs": [
        {
          "internalType": "uint256",
          "name": "trackStart",
          "type": "uint256"
        },
        {
          "internalType": "uint256",
          "name": "trackEnd",
          "type": "uint256"
        },
        {
          "internalType": "uint256",
          "name": "numGCs",
          "type": "uint256"
        },
        {
          "internalType": "uint256",
          "name": "totalVotes",
          "type": "uint256"
        },
        {
          "internalType": "uint256",
          "name": "numEligible",
          "type": "uint256"
        }
      ],
      "stateMutability": "view",
      "type": "function"
    },
    {
      "inputs": [
        {
          "internalType": "address",
          "name": "staking",
          "type": "address"
        }
      ],
      "name": "isCnStakingV2",
      "outputs": [
        {
          "internalType": "bool",
          "name": "",
          "type": "bool"
        }
      ],
      "stateMutability": "view",
      "type": "function"
    },
    {
      "inputs": [],
      "name": "owner",
      "outputs": [
        {
          "internalType": "address",
          "name": "",
          "type": "address"
        }
      ],
      "stateMutability": "view",
      "type": "function"
    },
    {
      "inputs": [
        {
          "internalType": "address",
          "name": "staking",
          "type": "address"
        }
      ],
      "name": "readCnStaking",
      "outputs": [
        {
          "internalType": "bool",
          "name": "isV2",
          "type": "bool"
        },
        {
          "internalType": "uint256",
          "name": "effectiveBalance",
          "type": "uint256"
        },
        {
          "internalType": "uint256",
          "name": "gcId",
          "type": "uint256"
        },
        {
          "internalType": "address",
          "name": "stakingTracker",
          "type": "address"
        },
        {
          "internalType": "address",
          "name": "voterAddress",
          "type": "address"
        }
      ],
      "stateMutability": "view",
      "type": "function"
    },
    {
      "inputs": [
        {
          "internalType": "address",
          "name": "staking",
          "type": "address"
        }
      ],
      "name": "refreshStake",
      "outputs": [],
      "stateMutability": "nonpayable",
      "type": "function"
    },
    {
      "inputs": [
        {
          "internalType": "address",
          "name": "staking",
          "type": "address"
        }
      ],
      "name": "refreshVoter",
      "outputs": [],
      "stateMutability": "nonpayable",
      "type": "function"
    },
    {
      "inputs": [],
      "name": "renounceOwnership",
      "outputs": [],
      "stateMutability": "nonpayable",
      "type": "function"
    },
    {
      "inputs": [
        {
          "internalType": "uint256",
          "name": "trackerId",
          "type": "uint256"
        },
        {
          "internalType": "address",
          "name": "staking",
          "type": "address"
        }
      ],
      "name": "stakingToGCId",
      "outputs": [
        {
          "internalType": "uint256",
          "name": "",
          "type": "uint256"
        }
      ],
      "stateMutability": "view",
      "type": "function"
    },
    {
      "inputs": [
        {
          "internalType": "address",
          "name": "newOwner",
          "type": "address"
        }
      ],
      "name": "transferOwnership",
      "outputs": [],
      "stateMutability": "nonpayable",
      "type": "function"
    },
    {
      "inputs": [
        {
          "internalType": "address",
          "name": "",
          "type": "address"
        }
      ],
      "name": "voterToGCId",
      "outputs": [
        {
          "internalType": "uint256",
          "name": "",
          "type": "uint256"
        }
      ],
      "stateMutability": "view",
      "type": "function"
    }
  ],
  "bytecode": "0x6080604052348015600f57600080fd5b50601733601b565b606b565b600080546001600160a01b038381166001600160a01b0319831681178455604051919092169283917f8be0079c531659141344cd1fd0a4f28419497f9722a3daafe3b4186f6b6457e09190a35050565b611b658061007a6000396000f3fe608060405234801561001057600080fd5b50600436106101375760003560e01c80638da5cb5b116100b8578063dac189b81161007c578063dac189b814610366578063e2ec3a581461036e578063f2f2f49b14610397578063f2fde38b1461039f578063f85b7bba146103b2578063ffa1ad74146103d557600080fd5b80638da5cb5b14610300578063aad8cb3f14610325578063c4efadfb14610338578063cb1c2b5c1461034d578063d4377d4d1461035e57600080fd5b806351afc36c116100ff57806351afc36c146102275780635605a4e5146102785780636a94f18b1461028d578063715018a6146102d6578063870a53ff146102de57600080fd5b806301d057c11461013c5780630294a897146101625780633c7fff461461019c5780634b6a94cc146101d75780634f471c0214610207575b600080fd5b61014f61014a366004611643565b6103dc565b6040519081526020015b60405180910390f35b61014f61017036600461167a565b60008281526001602090815260408083206001600160a01b038516845260040190915290205492915050565b6101af6101aa3660046116aa565b6104c7565b604080519586526020860194909452928401919091526060830152608082015260a001610159565b604080518082018252600e81526d29ba30b5b4b733aa3930b1b5b2b960911b6020820152905161015991906116e7565b61014f61021536600461171a565b60056020526000908152604090205481565b610263610235366004611643565b6000918252600160209081526040808420928452600683018252808420546007909301909152909120549091565b60408051928352602083019190915201610159565b61028b61028636600461171a565b6104fc565b005b6102a061029b36600461171a565b610605565b6040805195151586526020860194909452928401919091526001600160a01b03908116606084015216608082015260a001610159565b61028b6107db565b6102f16102ec3660046116aa565b6107ef565b60405161015993929190611773565b6000546001600160a01b03165b6040516001600160a01b039091168152602001610159565b61028b61033336600461171a565b61098a565b610340610aee565b60405161015991906117b6565b6a0422ca8b0a00a42500000061014f565b610340610b46565b60025461014f565b61030d61037c3660046116aa565b6004602052600090815260409020546001600160a01b031681565b61040061030d565b61028b6103ad36600461171a565b610b9c565b6103c56103c036600461171a565b610c15565b6040519015158152602001610159565b600161014f565b60006103e6610e12565b6002546103f49060016117df565b6002805460018181019092557f405787fa12a823e0f2b7631cc41b3ba8828b3321ca811111fa75cd3aa3bb5ace01829055600380548083019091557fc2575a0e9e593c00f959f8c92f12db2869c3395a3b0502d05e2516446f71f85b01829055600082815260208290526040902085815590810184905590915061047782610e6c565b61048082610f9f565b817fa99a778a0f1ab0a253c5e2aa8ff583bd28a4e9b81e7cf6e053f685f683f077d18585846002016040516104b7939291906117f2565b60405180910390a2505b92915050565b600081815260016020819052604090912080549181015460028201546008830154600990930154919290915b91939590929450565b60005b6003548110156106015760006003828154811061051e5761051e61184e565b90600052602060002001549050610534816110b4565b6105e457600380546000919061054c90600190611864565b8154811061055c5761055c61184e565b90600052602060002001549050806003848154811061057d5761057d61184e565b600091825260209091200155600380548061059a5761059a611877565b60019003818190600052602060002001600090559055817f9e6e7ff15b559bab9c50f497e4c7697d608282d32244b6e922892cf01bb2f7df60405160405180910390a250506104ff565b6105ee81846110dd565b816105f88161188d565b925050506104ff565b5050565b600080600080600061061686610c15565b156107c7576001866001600160a01b031663630b11466040518163ffffffff1660e01b8152600401602060405180830381865afa15801561065b573d6000803e3d6000fd5b505050506040513d601f19601f8201168201806040525081019061067f91906118a6565b610693906001600160a01b03891631611864565b876001600160a01b0316636d2714db6040518163ffffffff1660e01b8152600401602060405180830381865afa1580156106d1573d6000803e3d6000fd5b505050506040513d601f19601f820116820180604052508101906106f591906118a6565b886001600160a01b0316628c477a6040518163ffffffff1660e01b8152600401602060405180830381865afa158015610732573d6000803e3d6000fd5b505050506040513d601f19601f8201168201806040525081019061075691906118bf565b896001600160a01b031663992ac9fa6040518163ffffffff1660e01b8152600401602060405180830381865afa158015610794573d6000803e3d6000fd5b505050506040513d601f19601f820116820180604052508101906107b891906118bf565b945094509450945094506104f3565b506000958695508594508493508392509050565b6107e3610e12565b6107ed600061129d565b565b600081815260016020908152604091829020600281018054845181850281018501909552808552606094859485949390839083018282801561085057602002820191906000526020600020905b81548152602001906001019080831161083c575b505050505094508067ffffffffffffffff811115610870576108706118dc565b604051908082528060200260200182016040528015610899578160200160208202803683370190505b5093508067ffffffffffffffff8111156108b5576108b56118dc565b6040519080825280602002602001820160405280156108de578160200160208202803683370190505b50925060005b818110156109805760008360020182815481106109035761090361184e565b90600052602060002001549050836006016000828152602001908152602001600020548683815181106109385761093861184e565b6020026020010181815250508360070160008281526020019081526020016000205485838151811061096c5761096c61184e565b6020908102919091010152506001016108e4565b5050509193909250565b60006109946112ed565b509150506000805b82518110156109e857836001600160a01b03168382815181106109c1576109c161184e565b60200260200101516001600160a01b0316036109e057600191506109e8565b60010161099c565b5080610a345760405162461bcd60e51b8152602060048201526016602482015275139bdd0818481cdd185ada5b99c818dbdb9d1c9858dd60521b60448201526064015b60405180910390fd5b6000806000610a4286610605565b945050935050925082610a975760405162461bcd60e51b815260206004820152601a60248201527f496e76616c696420436e5374616b696e6720636f6e74726163740000000000006044820152606401610a2b565b610aa182826113b5565b604080516001600160a01b0380891682528316602082015283917f6734527732bd32c7303b2d45bd8e1a2f64f45d0439e14c01d6dd46b5d276e58d910160405180910390a2505050505050565b60606002805480602002602001604051908101604052809291908181526020018280548015610b3c57602002820191906000526020600020905b815481526020019060010190808311610b28575b5050505050905090565b60606003805480602002602001604051908101604052809291908181526020018280548015610b3c5760200282019190600052602060002090815481526020019060010190808311610b28575050505050905090565b610ba4610e12565b6001600160a01b038116610c095760405162461bcd60e51b815260206004820152602660248201527f4f776e61626c653a206e6577206f776e657220697320746865207a65726f206160448201526564647265737360d01b6064820152608401610a2b565b610c128161129d565b50565b60408051600481526024810182526020810180516001600160e01b03166312daa53360e21b179052905160009182916060916001600160a01b03861691610c5c91906118f2565b600060405180830381855afa9150503d8060008114610c97576040519150601f19603f3d011682016040523d82523d6000602084013e610c9c565b606091505b509092509050811580610cae57508051155b15610cbd575060009392505050565b600081806020019051810190610cd3919061193f565b60408051808201909152601181527010db94dd185ada5b99d0dbdb9d1c9858dd607a1b6020918201528151908201209091507fa2f5d64a9f0bcdeed97e196203f5a8c1a5c8293988b625b7925686d30805508214610d3657506000949350505050565b60408051600481526024810182526020810180516001600160e01b03166001621794a360e21b031917905290516001600160a01b03871691610d77916118f2565b600060405180830381855afa9150503d8060008114610db2576040519150601f19603f3d011682016040523d82523d6000602084013e610db7565b606091505b509093509150821580610dc957508151155b15610dd957506000949350505050565b600082806020019051810190610def91906118a6565b90506002811015610e065750600095945050505050565b50600195945050505050565b6000546001600160a01b031633146107ed5760405162461bcd60e51b815260206004820181905260248201527f4f776e61626c653a2063616c6c6572206973206e6f7420746865206f776e65726044820152606401610a2b565b600081815260016020526040812090610e836112ed565b5091505060005b8151811015610f99576000828281518110610ea757610ea761184e565b60200260200101519050600080600080610ec085610605565b50935093509350935083610ed8575050505050610f91565b6001600160a01b0381163014610ef2575050505050610f91565b600082815260038901602052604090205460ff16610f3e57600082815260038901602090815260408220805460ff1916600190811790915560028b018054918201815583529120018290555b6001600160a01b0385166000908152600489016020908152604080832085905560058b01825280832086905584835260068b0190915281208054859290610f869084906117df565b909155505050505050505b600101610e8a565b50505050565b60008181526001602052604081209080805b6002840154811015611020576000846002018281548110610fd457610fd461184e565b90600052602060002001549050610ff36a0422ca8b0a00a42500000090565b60008281526006870160205260409020541061101757836110138161188d565b9450505b50600101610fb1565b5060005b60028401548110156110a25760008460020182815481106110475761104761184e565b60009182526020808320909101548083526006880190915260408220549092509061107286836114be565b60008481526007890160205260409020819055905061109181866117df565b945050600190920191506110249050565b50600983019190915560089091015550565b6000818152600160205260408120805443108015906110d65750806001015443105b9392505050565b60008281526001602090815260408083206001600160a01b03851684526004810190925282205490918190036111135750505050565b6001600160a01b03831660009081526005830160205260408120549061113885610605565b5050506001600160a01b03871660009081526005870160209081526040808320849055878352600689019091528120805492945091925084919061117c8385611864565b90915550506000848152600686016020526040812080548492906111a19084906117df565b909155505060008481526006860160205260409020546111c2888383611504565b600085815260078701602052604081205460098801549091906111e590846114be565b600088815260078a016020526040812082905560088a0180549293508492909190611211908490611864565b925050819055508088600801600082825461122c91906117df565b90915550506008880154604080516001600160a01b038c168152602081018890528082018690526060810184905260808101929092525188918c917fdb84b66602d6a1eb74094da1da947e3d5896fc08ebc7770e271dbc61e44667719181900360a00190a350505050505050505050565b600080546001600160a01b038381166001600160a01b0319831681178455604051919092169283917f8be0079c531659141344cd1fd0a4f28419497f9722a3daafe3b4186f6b6457e09190a35050565b606080806104006001600160a01b031663160370b86040518163ffffffff1660e01b8152600401600060405180830381865afa158015611331573d6000803e3d6000fd5b505050506040513d6000823e601f3d908101601f191682016040526113599190810190611a5c565b5050815183519396509194509250148015611375575080518351145b6113b05760405162461bcd60e51b815260206004820152600c60248201526b496e76616c6964206461746160a01b6044820152606401610a2b565b909192565b6000828152600460205260409020546001600160a01b0316801561140a576001600160a01b03811660009081526005602090815260408083208390558583526004909152902080546001600160a01b03191690555b6001600160a01b038216156114b9576001600160a01b0382166000908152600560205260409020541561147f5760405162461bcd60e51b815260206004820152601b60248201527f566f746572206164647265737320616c72656164792074616b656e00000000006044820152606401610a2b565b6001600160a01b03821660008181526005602090815260408083208790558683526004909152902080546001600160a01b03191690911790555b505050565b60006001808411156114d8576114d5600185611864565b90505b60006114ef6a0422ca8b0a00a42500000085611b0d565b9050818111156114fc5750805b949350505050565b60008381526001602052604090206a0422ca8b0a00a42500000080841015908310158082146115775781156115535760018360090160008282546115489190611864565b9091555061156e9050565b600183600901600082825461156891906117df565b90915550505b6115778661157f565b505050505050565b6000818152600160205260408120600881015490915b60028301548110156116395760008360020182815481106115b8576115b861184e565b60009182526020808320909101548083526006870182526040808420546007890190935283205460098801549194509192906115f490846114be565b9050808214611629576000848152600788016020526040902081905561161a8287611864565b955061162681876117df565b95505b5050600190920191506115959050565b5060089091015550565b6000806040838503121561165657600080fd5b50508035926020909101359150565b6001600160a01b0381168114610c1257600080fd5b6000806040838503121561168d57600080fd5b82359150602083013561169f81611665565b809150509250929050565b6000602082840312156116bc57600080fd5b5035919050565b60005b838110156116de5781810151838201526020016116c6565b50506000910152565b60208152600082518060208401526117068160408501602087016116c3565b601f01601f19169190910160400192915050565b60006020828403121561172c57600080fd5b81356110d681611665565b60008151808452602080850194506020840160005b838110156117685781518752958201959082019060010161174c565b509495945050505050565b6060815260006117866060830186611737565b82810360208401526117988186611737565b905082810360408401526117ac8185611737565b9695505050505050565b6020815260006110d66020830184611737565b634e487b7160e01b600052601160045260246000fd5b808201808211156104c1576104c16117c9565b600060608201858352602085602085015260606040850152818554808452608086019150866000526020600020935060005b8181101561184057845483526001948501949284019201611824565b509098975050505050505050565b634e487b7160e01b600052603260045260246000fd5b818103818111156104c1576104c16117c9565b634e487b7160e01b600052603160045260246000fd5b60006001820161189f5761189f6117c9565b5060010190565b6000602082840312156118b857600080fd5b5051919050565b6000602082840312156118d157600080fd5b81516110d681611665565b634e487b7160e01b600052604160045260246000fd5b600082516119048184602087016116c3565b9190910192915050565b604051601f8201601f1916810167ffffffffffffffff81118282101715611937576119376118dc565b604052919050565b60006020828403121561195157600080fd5b815167ffffffffffffffff8082111561196957600080fd5b818401915084601f83011261197d57600080fd5b81518181111561198f5761198f6118dc565b6119a2601f8201601f191660200161190e565b91508082528560208285010111156119b957600080fd5b6119ca8160208401602086016116c3565b50949350505050565b600082601f8301126119e457600080fd5b8151602067ffffffffffffffff821115611a0057611a006118dc565b8160051b611a0f82820161190e565b9283528481018201928281019087851115611a2957600080fd5b83870192505b84831015611a51578251611a4281611665565b82529183019190830190611a2f565b979650505050505050565b600080600080600060a08688031215611a7457600080fd5b855167ffffffffffffffff80821115611a8c57600080fd5b611a9889838a016119d3565b96506020880151915080821115611aae57600080fd5b611aba89838a016119d3565b95506040880151915080821115611ad057600080fd5b50611add888289016119d3565b9350506060860151611aee81611665565b6080870151909250611aff81611665565b809150509295509295909350565b600082611b2a57634e487b7160e01b600052601260045260246000fd5b50049056fea2646970667358221220dea4ac1ea069ae766df222d85f4826996cbf124886e8865c6c83379a42fba4d064736f6c63430008190033",
  "linkReferences": {},
  "deployedLinkReferences": {}
}